:030000000216885D
:0C168800787FE4F6D8FD75816A0216CF69
:101EA0000000000000000000000000000000000032
:101A6600022B000020230800080010A7625BF80381
:101A760022F80047B610181D1CC700B2EA2A00114A
:0A1A8600598135090B06060501FF22
:101D4500E4FDFCC3ED9FEC9E50070DBD00010C802A
:101D5500F2E4FCFDC3ED9FEC9E50070DBD00010CA8
:021D650080F20A
:011D67002259
:101DE500000000000000000000000000000000EFFF
:091DF5001F70011E144E70E8225B
:071F1A00C290C282D29022A6
:0A1EF700121F1A7F887E13021D459A
:101CAD00E4FEC282FDEF30E704D2928002C292EFD1
:101CBD0025E0FFD2820000EE25E0FE3091010EC23C
:091CCD008200000DBD08DEAF0627
:011CD60022EB
:101E9000C2902091FD7F30121CAD2091FDD2902286
:101DAB00D2907F017E00121DE5C2907F017E001252
:0E1DBB001DE5D2907F297E00121DE5021E90CC
:101E6D00AC05C2902091FD121CADAF04121CADD279
:021E7D009022B1
:061BF5008B3B8A3C893D98
:101BFB00EF4440FFC2902091FD121CADE4FCECC3FE
:101C0B00953E5015AB3BAA3CA93D8C8275830012C7
:0B1C1B0010E7FF121CAD0C80E5D2901A
:011C2600229B
:0B1EEC00C2902091FD121CADD290228C
:101E4500EF4480FFC2902091FD121CADE4FF121CEF
:031E5500ADD2907B
:011E58002267
:061BC1008B438A448945B4
:101BC700EF44C0FFC2902091FD121CADE4FCECC3B2
:101BD70095465017E4FF121CADAB43AA44A9458CA8
:0D1BE70082758300EF1211260C80E3D2906E
:011BF40022CE
:101E5900EF44C0FFC2902091FD121CADE4FF121C9B
:031E6900ADD29067
:011E6C002253
:10145900AD087F0C121E6DAD097F0B121E6DAD0A12
:101469007F0C121E6DAD0B7F0D121E6DAD0C7F0E24
:10147900121E6DAD0D7F0F121E6DAD0E7F10121E67
:101489006DAD0F7F11121E6DAD107F12121E6DAD65
:10149900117F13121E6DAD127F14121E6DAD137FD5
:1014A9000A121E6DAD147F15121E6DAD157F211226
:1014B9001E6DAD167F22121E6DAD177F18121E6D9F
:1014C900AD187F19121E6DAD197F1A121E6DAD1A56
:1014D9007F1B121E6DAD1B7F1C121E6DAD1C7F1D67
:1014E900121E6DAD1D7F23121E6DAD1E7F24121EAF
:1014F9006DAD1F7F25121E6DAD207F26121E6DADAD
:10150900217F29121E6DAD227F2C121E6DAD237F06
:101519002D121E6DAD247F2E121E6DAD25E4FF1216
:101529001E6DAD267F02121E6DAD277F07121E6D3F
:10153900AD287F08121E6DAD297F09121E6DAD2AD7
:051549007F06021E6D8B
:101D21008D397F3F121E6D85393E7F3F121BF57F36
:101D310036121EEC7F35121EEC3084FD2084FD7FAF
:041D41003B021EEC57
:051F28007F34021EECF5
:06154E008B398A3A893B4B
:10155400AB3CAA3DA93E1210CE75F014A4FB7F3417
:10156400121EEC7F027E00121D453084117F027E24
:1015740000121D451BEBC3940150EF7FFF227F3BFC
:10158400121E59EF547F60647F3F121E458F41AB9A
:101594003CAA3DA93E1210CEFFE541D39F503AAB81
:1015A40039AA3AA93B8541467F3F121BC1AB3CAAED
:1015B4003DA93EE5411211147B007A00793F75463E
:1015C400027F3F121BC17F3A121EEC853F69E54042
:1015D40030E7037F01227F0022AB3CAA3DA93EE510
:0E15E400411211147F3A121EEC7F00227F008C
:0115F20022D6
:101D68007F34121E59EFC39480EF400B2401FFE427
:101D780034FFC313EF8001C31324B6FCECFF339583
:021D8800E0FE7B
:011D8A002236
:0815F3008B478A4889498D4AA3
:1015FB0078197C007D017BFF7A1E79A07E007F0825
:10160B001210A8754C08754D04438901E4F58CF54F
:10161B008AC28DAB47AA48A949E54B1211147F0921
:10162B00121E59AB47AA48A949900002EF12112686
:10163B00AD4A121D21D28CE54D603F753C00753DC6
:10164B0000753E4C7B017A00791912154EEF60093B
:10165B0090001AE070037F0122308DDB052CE52C06
:10166B007002052B154DAB47AA48A949AD4A121D6F
:0C167B0021E4F58CF58AC28D80BD7F0053
:011687002240
:061890008B328A3389341B
:1018960078117C007D017BFF7A1E79A87E007F0887
:1018A6001210A875380385353C85363D85373EAB25
:1018B60032AA33A93412154EEF6034AB32AA33A9DB
:1018C600349000021210E7900011F0E4A3F07F09B3
:1018D600121E59A3EFF0AB32AA33A9341210CE6010
:1018E6000B7B017A007911AD38121D217F01227F11
:0118F60000F1
:0118F70022CE
:100CA80000000000000000000000004F00000000ED
:100CB80000000708101010080700F00804040408D2
:100CC800F00008181F00000000000404FC040400E1
:100CD80000000E101010110E00001C3464C4840CA7
:100CE80000000C101010110E000018040484887005
:100CF8000000010204081F000000E0202424FC2456
:100D080020001F101111111000008884040408F03D
:100D180000000708111111110800F08804040408E4
:100D2800F00018101010111C1000000000FC00004A
:100D380000000E111010110E00003844848444384D
:100D480000000708101008070000008C444488F0D1
:100D5800000000031C07000000043CC44040E41CE1
:100D680004101F1111110E000004FC040404887003
:100D780000030C101010101C00E0180404040810E4
:100D880000101F10101008070004FC04040408F0E9
:100D980000101F11111710080004FC0404C40418E3
:100DA80000101F11111710080004FC0400C00000F7
:100DB8000000000003030000000000000C0C00000D
:100DC8000000380F1010100C000000F008040C0888
:100DD80000101F1111110E000004FC040404887097
:100DE800000000000000000000000C0C00000000E3
:100DF80000010100010101000004FC84000004FC62
:100E080004101F0C0300101F1004FC0400E018FC61
:100E18000002030100010302001030E0C0E03010BE
:100E28000002030000000302000282E61CF08000BA
:100E380000000000000000000000000000000000AA
:100E4800000000000000000000000000000000009A
:100E5800000000000000000000000000000000008A
:100E6800000000000000000000000000000000007A
:100E7800000000000000000000000000000000006A
:100E8800000000000000000000000000000000005A
:100E9800000000000000000000000000000000004A
:100EA800000000000000000000000000000000003A
:100EB800000000000000000000000000000000002A
:100EC8000000000000609090671F302040404040C4
:100ED8004020780000000000E0F80C040202020242
:100EE80002040800000002424242437E424342425A
:100EF80042020200000102040830C00000FC0202A5
:100F080002020E00000001061FE000202424A46451
:100F18002424242000800000FF0000009F92929269
:100F280092929F00000101017D4545454545454593
:100F38007D0101010000000060A020202022212264
:100F48003C00000000000242221A0202FE02020ACD
:100F580012630000000002222222222222222222E0
:100F680022FF00000010101794741417101013308B
:100F7800D0171010000000FF909291FE0000F002C0
:100F880001FE0000000001061FE008090888680843
:100F9800080B080000800000FF0202827A02020E9D
:100FA800728202020000E8A8ABAAEAAABEAAEAAACC
:100FB800ABA8E80000020202FEAAAAAAAAAAAAAA44
:100FC800FE02020200000000000000000000000015
:081F01007F207EFFDEFEDFFA07
:011F090022B5
:101E7F007FFF7EFF0000000000000000DEF6DFF2B3
:011E8F002230
:101B8200C2B5121F01D2B5121F017FA3121E377FE9
:101B9200A0121E377FAF121E377F2F121E377F23F0
:101BA200121E377F81121E377F28121E377FC01206
:0F1BB2001E377FAF121E377F40121E37000022F2
:081E2F00E534C4540F2410FF38
:0E1E3700C2B600C2B400121CD70000D2B62200
:101C560075F020E55FA42562F582E435F0F583E5AD
:0E1C66008224B8F582E583340CF583E493FF05
:0E1C7400C2B600D2B400121CD70000D2B622B5
:101CD700C2B37D087C00C2B30000EF54806004D219
:101CE700B28002C2B2D2B3EF25E0FFED1D70011C36
:041CF700ED4C70E25E
:011CFB0022C6
:04179C007D077F0F37
:0617A0008F328D338B3403
:1017A6007FAF121E37E53324B0FF121E37121E2FED
:1017B600E534540FFF121E3775351075F020E532EB
:1017C600A42535F582E435F0F583E58224ACF5826F
:1017D600E583340E121C6F1535E535D3940050DBC6
:1017E600E53324AFFF121E37121E2FE534540FFFC8
:1017F600121E3775352075F020E532A42535F582A1
:10180600E435F0F583E58224ACF582E583340E12E7
:0B1816001C6F1535E535D3941050DB36
:0118210022A4
:061AB1008F5B8D5C8B5D74
:101AB7007FAF121E37E55C24B0FF121E37E55D12BB
:101AC7001E31E55D540FFF121E37E4F55E75F00811
:101AD700E55BA4255EF582E435F0F583E58224A86D
:101AE700F582E583340C121C6F055EE55EC394082E
:021AF70040DBD2
:011AF90022CA
:0619BE008F5F8D608B615C
:1019C4007FAF121E37E56024B0FF121E37E56112A7
:1019D4001E31E561540FFF121E37E4F562121C56E6
:1019E4000562E562C3941040F4E56024AFFF121E63
:1019F40037E561121E31E561540FFF121E3775621F
:0D1A040010121C560562E562C3942040F4E8
:011A110022B2
:0618F8008F388D398B3A98
:1018FE007FAF121E37E53924B0FF121E37E53A12BC
:10190E001E31E53A540FFF121E37753B0875F01065
:10191E00E538A4253B121C5E153BE53BD3940050E5
:10192E00ECE53924AFFF121E37E53A121E31E53AC7
:10193E00540FFF121E37753B1075F010E538A425B5
:0D194E003B121C5E153BE53BD3940850ECAA
:01195B002269
:061B40008F638D648B65CC
:101B46007FAF121E37E56424B0FF121E37E565121B
:101B56001E31E565540FFF121E37E4FF0FBF10FC60
:101B6600E56424B1FF121E37E565121E31E56554A2
:0B1B76000FFF121E377F100FBF20FC76
:011B81002241
:041AFA008F328D3367
:101AFE007536B0AF36121E377F10121E37E4FF1246
:101B0E001E37E4F534F535AF32121C74AF33121CA8
:101B1E00740535E53570020534C39440E5346480B0
:101B2E00948040E30536E536C394B940C67FAF02D4
:021B3E001E3750
:061A12008B558A5689572E
:101A18007FAF121E37755AB0AF5A121E377F101299
:101A28001E37E4FF121E37E4F558F559AB55055734
:101A3800E557AA567002055614F91210CEFF121C6B
:101A4800740559E55970020558C39480E5586480B7
:0D1A5800948040D8055AE55AC394B840BBAD
:011A6500225E
:101359007B7012179C7B6012179C7B5012179C7B29
:101369004012179C7B3012179C7B2012179C7B1014
:1013790012179CE4FB12179C7B707D057F0F1217D7
:10138900A07B607D057F0F1217A07B507D057F0F25
:101399001217A07B407D057F0F1217A07B307D05BA
:1013A9007F0F1217A07B207D057F0F1217A07B10DE
:1013B9007D057F0F1217A0E4FB7D057F0F1217A093
:1013C9007B707D037F0F1217A07B607D037F0F1257
:1013D90017A07B507D037F0F1217A07B407D037FF1
:1013E9000F1217A07B307D037F0F1217A07B207D82
:1013F900037F0F1217A07B107D037F0F1217A0E444
:10140900FB7D037F0F1217A07B707D017F0F1217E1
:10141900A07B607D017F0F1217A07B507D017F0F9C
:101429001217A07B407D017F0F1217A07B307D0131
:101439007F0F1217A07B207D017F0F1217A07B1051
:101449007D017F0F1217A0E4FB7D017F0F0217A01A
:08195C008E328F338D348B3580
:101964007C007D64121148AB07EB75F064A4FFC3DF
:10197400E5339FFFE53295F0FE7C007D0A121148A5
:101984008F36EB75F064A4FEC3E5339EFFE5367530
:10199400F00AA4FEC3EF9EF537AF03AB35AD3412A6
:1019A40018F8E53524F8FBAD34AF361218F8E535F0
:0A19B40024F0FBAD34AF370218F841
:0A1C27007452C39533FB7D077FE87C
:101C31008F388D398B3A7FAF121E37E53924B0FFCB
:101C4100121E37E53A121E31E53A540FFF121E37C4
:051C5100AF38021C7415
:10069F008E328F338C348D351211D3E5356401458D
:1006AF00347040D3E5339403E53264809480403353
:1006BF00E533944BE532648094805027C374529590
:1006CF0033FBE4FD7FD7121C31C374519533FBE428
:1006DF00FD7FFF121C31C374509533FBE4FD7FD7B0
:1006EF00121C31E535643845347040D3E53394033B
:1006FF00E532648094804033E533944BE532648077
:10070F0094805027C374529533FB7D077FEB121CE7
:10071F0031C374519533FB7D077FFF121C31C374B6
:10072F00509533FB7D077FEB121C31E5356438455F
:10073F00347025E53364034532701D121C27C374D2
:10074F00519533FB7D077FFF121C31C374509533D6
:10075F00FB7D077FEB121C31E5356438453470277C
:10076F00E533644B4532701F7450121C29C374510A
:10077F009533FB7D077FFF121C31C374529533FBFA
:10078F007D077FEB121C31E53564014534702FE591
:10079F0033640345327027C374529533FBE4FD7FF6
:1007AF0017121C31C374519533FBE4FD7FFF121CEC
:1007BF0031C374509533FBE4FD7FD7121C31E535FF
:1007CF0064014534702FE533644B45327027C37491
:1007DF00509533FBE4FD7F17121C31C374519533D1
:1007EF00FBE4FD7FFF121C31C374529533FBE4FD14
:1007FF007FD7121C31E535643845347025E53364F5
:10080F00024532701D121C27C374519533FB7D07AF
:10081F007FFC121C31C374509533FB7D077FEB12A5
:10082F001C31E535643845347028E533644C453266
:10083F007020C37450121C2AC374519533FB7D076B
:10084F007FFC121C31C374529533FB7D077FEB1273
:10085F001C31E53564014534702FE53364024532B0
:10086F007027C374529533FBE4FD7F17121C31C3FD
:10087F0074519533FBE4FD7F3F121C31C3745095C7
:10088F0033FBE4FD7FD7121C31E53564014534702D
:10089F002FE533644C45327027C374509533FBE416
:1008AF00FD7F17121C31C374519533FBE4FD7F3F5D
:1008BF00121C31C374529533FBE4FD7FD7121C31E8
:1008CF00E53564384534701EE533640145327016E2
:1008DF00121C27C374519533FB7D077FFC121C310B
:1008EF00C37450121C2AE53564384534701EE53345
:1008FF00644D45327016C37450121C2AC37451953F
:10090F0033FB7D077FFC121C31121C27E535640178
:10091F004534702FE533640145327027C374529507
:10092F0033FBE4FD7F17121C31C374519533FBE485
:10093F00FD7F3F121C31C374509533FBE4FD7F17CD
:10094F00121C31E53564014534702FE533644D4594
:10095F00327027C374509533FBE4FD7F17121C319F
:10096F00C374519533FBE4FD7F3F121C31C37452A6
:10097F009533FBE4FD7F17121C31E53364014532DB
:10098F00600BE533644D45326003020BD6E53564E9
:10099F000245347057E5352403FFE43534FE7C00FF
:1009AF007D08121148AD07C374519533FB7F271291
:1009BF001C31E5352403FFE43534FE7C007D08123D
:1009CF001148AD07C374529533FB7F27121C31E5D5
:1009DF00352403FFE43534FE7C007D08121148AD49
:1009EF0007C374509533FB7F27121C31E535640321
:1009FF0045347057E5352403FFE43534FE7C007D24
:100A0F0008121148AD07C374519533FB7F47121C71
:100A1F0031E5352403FFE43534FE7C007D081211E7
:100A2F0048AD07C374529533FB7F47121C31E53530
:100A3F002403FFE43534FE7C007D08121148AD0716
:100A4F00C374509533FB7F47121C31E53564044561
:100A5F00347057E5352403FFE43534FE7C007D0800
:100A6F00121148AD07C374519533FB7F87121C31A8
:100A7F00E5352403FFE43534FE7C007D0812114870
:100A8F00AD07C374529533FB7F87121C31E53524B4
:100A9F0003FFE43534FE7C007D08121148AD07C317
:100AAF0074509533FB7F87121C31E535643545341F
:100ABF007057E5352403FFE43534FE7C007D0812C2
:100ACF001148AD07C374519533FB7FE1121C31E51B
:100ADF00352403FFE43534FE7C007D08121148AD48
:100AEF0007C374529533FB7FE1121C31E5352403A4
:100AFF00FFE43534FE7C007D08121148AD07C37446
:100B0F00509533FB7FE1121C31E535643645347067
:100B1F0057E5352403FFE43534FE7C007D081211C0
:100B2F0048AD07C374519533FB7FE2121C31E53595
:100B3F002403FFE43534FE7C007D08121148AD0715
:100B4F00C374529533FB7FE2121C31E5352403FF4A
:100B5F00E43534FE7C007D08121148AD07C3745094
:100B6F009533FB7FE2121C31E535643745347057FE
:100B7F00E5352403FFE43534FE7C007D081211486F
:100B8F00AD07C374519533FB7FE4121C31E5352457
:100B9F0003FFE43534FE7C007D08121148AD07C316
:100BAF0074529533FB7FE4121C31E5352403FFE4C7
:100BBF003534FE7C007D08121148AD07C374509583
:100BCF0033FB7FE4121C31C3E5359405E5346480B3
:100BDF0094805003020CA7D3E5359434E534648038
:100BEF0094804003020CA7E5352403FBE43534FA67
:100BFF007C007D08AF03FE121148AD07C0057C00D5
:100C0F007D08AF03AE02121148AF057401A80708A3
:100C1F008002C333D8FCFFC374519533FBD0051248
:100C2F001C31E5352403FBE43534FA7C007D08AF35
:100C3F0003FE121148AD07C0057C007D08AF03AE5F
:100C4F0002121148AF057401A807088002C333D8F8
:100C5F00FCFFC374529533FBD005121C31E53524CC
:100C6F0003FBE43534FA7C007D08AF03FE12114814
:100C7F00AD07C0057C007D08AF03AE02121148AF6F
:100C8F00057401A807088002C333D8FCFFC3745052
:090C9F009533FBD005121C312233
:1011D300E4F537E4FBAD377FFF121C317B01AD37FC
:1011E3007FFF121C317B02AD377FFF121C317B5214
:1011F300AD377FFF121C317B53AD377FFF121C319C
:101203007B54AD377FFF121C310537E537D3940785
:1012130040C17537017B03AD37E4FF121C317B04FA
:10122300AD37E4FF121C317B05AD37E4FF121C31EF
:101233007B4FAD37E4FF121C317B50AD37E4FF1217
:101243001C317B51AD37E4FF121C310537E537D331
:10125300940640C1753606AB367D077FE3121C3119
:10126300AB36E4FD7FC7121C310536E536D3944E09
:1012730040E57B03E4FD7F07121C317B04E4FD7F23
:1012830007121C317B05E4FD7F07121C317B4FE401
:10129300FD7F07121C317B50E4FD7F07121C317B5D
:1012A30051E4FD7F07121C317B037D077FE0121C95
:1012B300317B047D077FE0121C317B057D077FE0D6
:1012C300121C317B4F7D077FE0121C317B507D0761
:1012D3007FE0121C317B517D077FE0121C31753793
:1012E300017B06AD377FFF121C317B07AD377FFFD4
:1012F300121C317B4DAD377FFF121C317B4EAD3756
:101303007FFF121C310537E537D3940640D37B4169
:10131300E4FD7FCF121C317B12E4FD7FCF121C3121
:101323007B02E4FD7F7F121C317B027D067FFB1273
:101333001C317B127D077FF3121C317B477D077FB6
:10134300F3121C317B527D067FEF121C317B527DE1
:06135300027FF7021C31CD
:0E1EDE000000000000000000000000000000F6
:0B1A9000480021C0C0C0C0C0C0C0C0E2
:10000300E4F52DF52FF530753101900000740AF0F9
:10001300E4A3F078027C007D017BFF7A1E79DEFE8B
:100023007F061210A878087C007D017BFF7A1E7979
:10003300E47E007F081210A8E4900010F0D2B7C24B
:10004300C0C2C3C295121B82121E7F121E7F121ED4
:100053007FE4FDFF121AFA121E7F121E7F121E7F0B
:10006300121E7F121E7F121E7F121EF7121DAB126D
:1000730014597B017A007921753E087F3E121BF5E6
:10008300D2C0D2B7D2C0D2C31211D37B417D047F79
:10009300161218F87B417D027F171218F87B397D01
:1000A300047F101218F87B397D027F101218F87B39
:1000B300787D037F151218F87B707D037F15121866
:1000C300F87B687D037F101218F87B787D077F1417
:1000D3001218F87B717D077F101218F87D367C00AB
:1000E3007F017E0012069F121D8B438910758D3C84
:1000F300758BB0C28FD28E90000374FFF090000511
:10010300F0900010E004F0E0900007F0B2C0E4903B
:100113000006F07B017A0079027D06121D217F081B
:100123007E00121DFE7B017A0079027D06121D21DD
:100133007F087E00121DFE7B017A0079027D061284
:100143001D217F087E00121DFE7B017A0079027D4E
:1001530006121D217F087E00121DFE7B017A0079A5
:10016300027D06121D217F087E00121DFE7B017A8F
:100173000079027D06121D217F087E00121DFE7B81
:10018300017A0079027D06121D217F087E00121D6F
:10019300FE7B017A0079027D06121D217F087E0015
:1001A300121DFE7B017A0079027D06121D217F0854
:1001B3007E00121DFE90000674FFF07B017A007929
:1001C300027D06121D217F067E00121DFE7B017A31
:1001D3000079027D06121D217F067E00121DFE7B23
:1001E300017A0079027D06121D217F067E00121D11
:1001F300FE7B017A0079027D06121D21B2C09000B8
:1002030010E0FF7E007B677D0712195CE49000011C
:10021300F0121D8B7FCC121E177F44121E17121D66
:100223008B7FCC121E177FBE121E17121DC98F4F54
:10023300121DC98F4EE54ED3947F400C634FFFE5EB
:100243004EF404F54EE4F552E54FC4540FFFE54E6A
:10025300C454F02FF554E54F540FFD75F00AA4FF75
:10026300E5F0C4F854F0C8EFC4540F48F550ED75E9
:10027300F064A4FFE5F0C4F854F0C8EFC4540F4889
:1002830075F00A8485F051E55075F00AA42551F5FF
:1002930053E55475F00A84F52E7B787D01FF12181F
:1002A300F8E52E75F00AA4FFC3E5549FF52E7B7085
:1002B3007D01FF1218F87B687D017F131218F8E5A2
:1002C3005375F00A84F52E7B657D01FF1218F8E55E
:1002D3002E75F00AA4FFC3E5539FF52E7B557D01D0
:1002E3007F011217A0208F0302045D900001E00438
:1002F300F0E064146003020455900010E004F0E0A1
:10030300900007F0B2C0052DE52D640270417B3CDF
:100313007D06FF1217A07B2C7D06E4FF1217A07B3E
:100323001C7D06E4FF1217A07B0C7D06E4FF121769
:10033300A07B347D067F021217A07B247D067F03FA
:100343001217A07B147D067F041217A0E4F52DE499
:10035300900006F07B017A0079027D06121D217F51
:10036300087E00121DFE7B017A0079027D06121DB4
:10037300217F087E00121DFE7B017A0079027D0633
:10038300121D217F087E00121DFE7B017A00790277
:100393007D06121D217F087E00121DFE7B017A005F
:1003A30079027D06121D217F087E00121DFE7B014E
:1003B3007A0079027D06121D217F087E00121DFE40
:1003C3007B017A0079027D06121D217F087E0012CF
:1003D3001DFE7B017A0079027D06121D217F087EB6
:1003E30000121DFE7B017A0079027D06121D217F1A
:1003F300087E00121DFE90000674FFF07B017A0058
:1004030079027D06121D217F067E00121DFE7B01EF
:100413007A0079027D06121D217F067E00121DFEE1
:100423007B017A0079027D06121D217F067E001270
:100433001DFE7B017A0079027D06121D21B2C09058
:100443000010E0FF7E007B677D0712195CE49000DB
:1004530001F0758D3C758BB0C28F75350175360013
:100463007537007B017A007908121890EF70030248
:1004730002147B347D06E4FF1217A07B247D06E47F
:10048300FF1217A07B147D06E4FF1217A07B3C7DAF
:10049300067F051217A07B2C7D067F061217A07B13
:1004A3001C7D067F071217A07B0C7D067F081217A1
:1004B300A0900010E0FF90000DE0B50712B2C390CA
:1004C3000009E0FF7B5A7D031218F80531B2C3908F
:1004D3000010E02401FFE433FE90000DE06F700193
:1004E300EE6003020214B2C3900009E0FF7B5A7D61
:1004F300031218F890000BE0FF7E0090000EE0FD61
:100503007C0012069F90000BE075F00A84F52E7BA9
:10051300327D04FF1218F8E52E75F00AA4FF90004F
:100523000BE0C39FF52E7B2A7D04FF1218F87B2274
:100533007D047F131218F890000CE075F00A84F51F
:100543002E7B1F7D04FF1218F8E52E75F00AA4FF19
:1005530090000CE0C39FF52E7B167D04FF1218F864
:1005630090000EE075F00A84F52E7B327D02FF12B7
:1005730018F8E52E75F00AA4FF90000EE0C39FF56E
:100583002E7B2A7D02FF1218F87B227D027F131235
:1005930018F890000FE075F00A84F52E7B1F7D029A
:1005A300FF1218F8E52E75F00AA4FF90000FE0C3C0
:1005B3009FF52E7B167D02FF1218F80531B2C3900A
:1005C3000010E004F0E0900007F0B2C0E4900006F1
:1005D300F07B017A0079027D06121D217F0A7E00DD
:1005E300121DFE7B017A0079027D06121D217F0A0E
:1005F3007E00121DFE7B017A0079027D06121D2109
:100603007F0A7E00121DFE7B017A0079027D0612AD
:100613001D217F0A7E00121DFE7B017A0079027D77
:1006230006121D217F0A7E00121DFE7B017A0079CE
:10063300027D06121D217F0A7E00121DFE7B017AB8
:100643000079027D06121D217F0A7E00121DFE7BAA
:10065300017A0079027D06121D217F0A7E00121D98
:10066300FE7B017A0079027D06121D217F0A7E003E
:10067300121DFE90000674FFF07B017A0079027D63
:1006830006121D21B2C0900010E0FF7E007B677D43
:0C0693000712195CE4900001F002021450
:0F1EC000759850438920758DFD758BFDD28E224C
:081F0A008F993099FDC2992264
:101CFC008B668A678968AB66AA67A9681210CE6082
:101D0C00130568E5687002056714F91210CEFF120E
:051D1C001F0A80E22215
:04182200AB07AA0660
:10182600D3EB9400EA6480948040047F2B8009C344
:10183600E49BFBE49AFA7F2D121F0A7C007D64AFBD
:1018460003AE021211488F6AEF75F064A4FFC3EB72
:101856009FFFEA95F0FE7C007D0A121148AE07E56F
:101866006A75F064A4FDC3EB9DFFEE75F00AA4FD56
:10187600C3EF9DFDE56A2430FF121F0AEE2430FFF8
:0A188600121F0AED2430FF021F0AB2
:071F12003098FDAF99C29861
:011F190022A5
:0F1EB0007F017E000FBF00010EBE06F8BF18F5C0
:011EBF002200
:041DFE00AD07AC067B
:101E0200E4FBFAC3EB9DEA9C500A121EB00BBB0026
:041E1200010A80EF52
:011E160022A9
:101A9B00014F00014E0001540001500001510001A3
:051AAB00530001520090
:0E1ECF00E4FEEF14FDEEC39D5004000E80F4FF
:011EDD0022E2
:071F2100AE071FEE70FA226B
:101D8B00E4F532D2A27F0A121ECFC2A27FE0121E4E
:101D9B00CFD2A27F41121ECF30A2FD7F14021F2192
:101DC900E4FB7C08C2A2EBC313FBD2A230A20343FB
:0B1DD90003807F3C121ECFDCEBAF0349
:011DE40022DC
:021E1700AB0717
:101E19007A08C2A2EB1392A27F3C121ECFD2A2EB88
:051E2900C313FBDAED1C
:011E2E002291
:101C8200AC07121D8B7FCC121E177F4E121E177FC0
:101C920002121E177F01121E17AF04121E17121D09
:0B1CA2008B7FCC121E177F48021E171C
:10171400121D8B7FCC121E177F44121E177F207E52
:1017240003121DFE121D8B7FCC121E177FBE121ECC
:1017340017121DC98F4F121DC98F4EE54ED3947FCA
:10174400400C634FFFE54EF404F54EE4F552E54FCB
:10175400C4540FFFE54EC454F02FF554E54F540F15
:10176400FD75F00AA4FFE5F0C4F854F0C8EFC454C2
:101774000F48F550ED75F064A4FFE5F0C4F854F09B
:10178400C8EFC4540F4875F00A8485F051E55075CC
:08179400F00AA42551F55322CF
:10169400020003E493A3F8E493A34003F68001F269
:1016A40008DFF48029E493A3F85407240CC8C33357
:1016B400C4540F4420C8834004F456800146F6DF26
:1016C400E4800B0102040810204080901A66E47E36
:1016D400019360BCA3FF543F30E509541FFEE4931B
:1016E400A360010ECF54C025E060A840B8E493A3E2
:1016F400FAE493A3F8E493A3C8C582C8CAC583CA0D
:10170400F0A3C8C582C8CAC583CADFE9DEE780BEC4
:011AB0000035
:100FD800E709F608DFFA8046E709F208DFFA803EFB
:100FE80088828C83E709F0A3DFFA8032E309F608E8
:100FF800DFFA8078E309F208DFFA807088828C8350
:10100800E309F0A3DFFA806489828A83E0A3F60803
:10101800DFFA805889828A83E0A3F208DFFA804CDD
:1010280080D280FA80C680D4806980F280338010B4
:1010380080A680EA809A80A880DA80E280CA80331D
:1010480089828A83ECFAE493A3C8C582C8CCC58395
:10105800CCF0A3C8C582C8CCC583CCDFE9DEE78065
:101068000D89828A83E493A3F608DFF9ECFAA9F0E4
:10107800EDFB2289828A83ECFAE0A3C8C582C8CC3A
:10108800C583CCF0A3C8C582C8CCC583CCDFEADE53
:10109800E880DB89828A83E493A3F208DFF980CCB5
:1010A80088F0EF60010E4E60C388F0ED2402B404AE
:1010B8000050B9F582EB2402B4040050AF23234555
:0610C80082239010287342
:1010CE00BB010689828A83E0225002E722BBFE0220
:0910DE00E32289828A83E4932253
:1010E700BB010CE58229F582E5833AF583E02250BE
:1010F70006E92582F8E622BBFE06E92582F8E22208
:0D110700E58229F582E5833AF583E4932221
:10111400BB010689828A83F0225002F722BBFE01BA
:02112400F322B4
:10112600F8BB010DE58229F582E5833AF583E8F0FF
:10113600225006E92582C8F622BBFE05E92582C8AB
:02114600F22293
:10114800C2D5EC30E709B2D5E4C39DFDE49CFCEEC2
:1011580030E715B2D5E4C39FFFE49EFE12117EC3AB
:10116800E49DFDE49CFC800312117E30D507C3E4A6
:061178009FFFE49EFE2231
:10117E00BC000BBE0029EF8DF084FFADF022E4CC55
:10118E00F875F008EF2FFFEE33FEEC33FCEE9DEC1E
:10119E00984005FCEE9DFE0FD5F0E9E4CEFD22ED64
:1011AE00F8F5F0EE8420D21CFEADF075F008EF2FAE
:1011BE00FFED33FD4007985006D5F0F222C398FD9F
:0511CE000FD5F0EA223C
:00000001FF
