:030000000217F6EE
:0C17F600787FE4F6D8FD75817C02183D78
:081ECA00000000000000000010
:101350000244000020232100080010A7625BF8036C
:1013600022F80047B610181D1CC700B2EA2A001167
:0A137000598135090B06060501FF3F
:101C5A00E4FDFCC3ED9FEC9E50070DBD00010C8016
:101C6A00F2E4FCFDC3ED9FEC9E50070DBD00010C94
:021C7A0080F2F6
:011C7C002245
:101D5400000000000000000000000000000000EF90
:091D64001F70011E144E70E822EC
:071ED200C290C282D29022EF
:0A1EB700121ED27F887E13021C5A0F
:101BC000E4FEC282FDEF30E704D2928002C292EFBF
:101BD00025E0FFD2820000EE25E0FE3091010EC22A
:091BE0008200000DBD08DEAF0615
:011BE90022D9
:101DFA00C2902091FD7F30121BC02091FDD290220B
:101CA000D2907F017E00121D54C2907F017E0012EF
:0E1CB0001D54D2907F297E00121D54021DFA91
:101DC400AC05C2902091FD121BC0AF04121BC0D2FF
:021DD40090225B
:061AA9008B6A8A6B896C58
:101AAF00EF4440FFC2902091FD121BC0E4FCECC339
:101ABF00956D5015AB6AAA6BA96C8C827583001259
:0B1ACF00107EFF121BC00C80E5D290BF
:011ADA0022E9
:0B1EAC00C2902091FD121BC0D29022BA
:101D9C00EF4480FFC2902091FD121BC0E4FF121B88
:031DAC00C0D29012
:011DAF002211
:061A41008B718A728973AB
:101A4700EF44C0FFC2902091FD121BC0E4FCECC321
:101A570095745017E4FF121BC0AB71AA72A9738C5F
:0D1A670082758300EF1210BD0C80E3D29059
:011A7400224F
:101DB000EF44C0FFC2902091FD121BC0E4FF121B34
:031DC000C0D290FE
:011DC30022FD
:10165C00AD217F0C121DC4AD227F0B121DC4AD2316
:10166C007F0C121DC4AD247F0D121DC4AD257F0E41
:10167C00121DC4AD267F0F121DC4AD277F10121D85
:10168C00C4AD287F11121DC4AD297F12121DC4AD2B
:10169C002A7F13121DC4AD2B7F14121DC4AD2C7FD9
:1016AC000A121DC4AD2D7F15121DC4AD2E7F211243
:1016BC001DC4AD2F7F22121DC4AD307F18121DC466
:1016CC00AD317F19121DC4AD327F1A121DC4AD335A
:1016DC007F1B121DC4AD347F1C121DC4AD357F1D84
:1016EC00121DC4AD367F23121DC4AD377F24121DCD
:1016FC00C4AD387F25121DC4AD397F26121DC4AD73
:10170C003A7F29121DC4AD3B7F2C121DC4AD3C7F0A
:10171C002D121DC4AD3D7F2E121DC4AD3EE4FF1233
:10172C001DC4AD3F7F02121DC4AD407F07121DC406
:10173C00AD417F08121DC4AD427F09121DC4AD43DB
:05174C007F06021DC430
:101C36008D687F3F121DC485686D7F3F121AA97F8C
:101C460036121EAC7F35121EAC3084FD2084FD7F1B
:041C56003B021EAC83
:051EE0007F34021EAC7E
:061751008B678A688969BC
:10175700AB6AAA6BA96C12106575F014A4FB7F34F1
:10176700121EAC7F027E00121C5A3084117F027E4B
:1017770000121C5A1BEBC3940150EF7FFF227F3BE3
:10178700121DB0EF547F60647F3F121D9C8F6FABBB
:101797006AAA6BA96C121065FFE56FD39F503AAB2D
:1017A70067AA68A969856F747F3F121A41AB6AAA55
:1017B7006BA96CE56F1210AB7B007A00796D7574BD
:1017C700027F3F121A417F3A121EAC856D00E56E0B
:1017D70030E7037F01227F0022AB6AAA6BA96CE581
:0E17E7006F1210AB7F3A121EAC7F00227F0003
:0117F50022D1
:101C7D007F34121DB0EFC39480EF400B2401FFE4BD
:101C8D0034FFC313EF8001C31324B6FCECFF33956F
:021C9D00E0FE67
:011C9F002222
:061904008B088A09890A24
:10190A0078F57C007D017BFF7A1E79CA7E007F080C
:10191A0012103F750E03850B6A850C6B850D6CAB37
:10192A0008AA09A90A121751EF6034AB08AA09A933
:10193A000A90000212107E9000F5F0E4A3F07F09ED
:10194A00121DB0A3EFF0AB08AA09A90A121065602C
:10195A000B7B017A0079F5AD0E121C367F01227FCE
:01196A00007C
:01196B002259
:1009AC0000000000000000000000004F00000000EC
:1009BC0000000708101010080700F00804040408D1
:1009CC00F00008181F00000000000404FC040400E0
:1009DC0000000E101010110E00001C3464C4840CA6
:1009EC0000000C101010110E000018040484887004
:1009FC000000010204081F000000E0202424FC2455
:100A0C0020001F101111111000008884040408F03C
:100A1C0000000708111111110800F08804040408E3
:100A2C00F00018101010111C1000000000FC000049
:100A3C0000000E111010110E00003844848444384C
:100A4C0000000708101008070000008C444488F0D0
:100A5C00000000031C07000000043CC44040E41CE0
:100A6C0004101F1111110E000004FC040404887002
:100A7C0000030C101010101C00E0180404040810E3
:100A8C0000101F10101008070004FC04040408F0E8
:100A9C0000101F11111710080004FC0404C40418E2
:100AAC0000101F11111710080004FC0400C00000F6
:100ABC000000000003030000000000000C0C00000C
:100ACC000000380F1010100C000000F008040C0887
:100ADC0000101F1111110E000004FC040404887096
:100AEC00000000000000000000000C0C00000000E2
:100AFC0000010100010101000004FC84000004FC61
:100B0C0004101F0C0300101F1004FC0400E018FC60
:100B1C000002030100010302001030E0C0E03010BD
:100B2C000002030000000302000282E61CF08000B9
:100B3C0000000000000000000000000000000000A9
:100B4C000000000000000000000000000000000099
:100B5C000000000000000000000000000000000089
:100B6C000000000000000000000000000000000079
:100B7C000000000000000000000000000000000069
:100B8C000000000000000000000000000000000059
:100B9C000000000000000000000000000000000049
:100BAC000000000000000000000000000000000039
:100BBC000000000000000000000000000000000029
:100BCC000000000000609090671F302040404040C3
:100BDC004020780000000000E0F80C040202020241
:100BEC0002040800000002424242437E4243424259
:100BFC0042020200000102040830C00000FC0202A4
:100C0C0002020E00000001061FE000202424A46450
:100C1C002424242000800000FF0000009F92929268
:100C2C0092929F00000101017D4545454545454592
:100C3C007D0101010000000060A020202022212263
:100C4C003C00000000000242221A0202FE02020ACC
:100C5C0012630000000002222222222222222222DF
:100C6C0022FF00000010101794741417101013308A
:100C7C00D0171010000000FF909291FE0000F002BF
:100C8C0001FE0000000001061FE008090888680842
:100C9C00080B080000800000FF0202827A02020E9C
:100CAC00728202020000E8A8ABAAEAAABEAAEAAACB
:100CBC00ABA8E80000020202FEAAAAAAAAAAAAAA43
:100CCC00FE02020200000000000000000000000014
:081EC1007F207EFFDEFEDFFA48
:011EC90022F6
:101A0200C2B5121EC1D2B5121EC17FA3121D8E7F96
:101A1200A0121D8E7FAF121D8E7F2F121D8E7F236F
:101A2200121D8E7F81121D8E7F28121D8E7FC01285
:0F1A32001D8E7FAF121D8E7F40121D8E00002271
:081D8600E57BC4540F2410FF9B
:0E1D8E00C2B600C2B400121C110000D2B62270
:101B940075F010E579A4257CF582E435F0F583E54C
:0E1BA4008224BCF582E5833409F583E493FFC7
:0E1BB200C2B600D2B400121C110000D2B6223E
:101C1100C2B37D087C00C2B30000EF54806004D2DF
:101C2100B28002C2B2D2B3EF25E0FFED1D70011CFC
:041C3100ED4C70E224
:011C3500228C
:06196C008F798D7A8B7B60
:101972007FAF121D8EE57A24B0FF121D8E121D86D6
:10198200E57B540FFF121D8E757C08121B94157C8B
:10199200E57CD3940050F4E57A24AFFF121D8E1239
:1019A2001D86E57B540FFF121D8E757C10121B9451
:0919B200157CE57CD3940850F487
:0119BB002209
:0419BC008F678D683C
:1019C000756BB0AF6B121D8E7F10121D8EE4FF126F
:1019D0001D8EE4F569F56AAF67121BB2AF68121B82
:1019E000B2056AE56A70020569C39440E5696480DE
:1019F000948040E3056BE56BC394B940C67FAF02AA
:021A00001D8E39
:061BEA008D768B77AE073B
:101BF000EE75F00A84FF75F00AA4FDC3EE9DF5783A
:101C0000AD7612196CE57724F8FBAD76AF78021942
:011C10006C67
:0A1ADB00C374519568FB7D077FFF7F
:101AE5008F6F8D708B717FAF121D8EE57024B0FFE7
:101AF500121D8EE571121D88E571540FFF121D8EA2
:051B0500AF6F021BB2EE
:080CDC008E678F688C698D6A38
:100CE400E4F56BF56C1214D6E56A64014569702667
:100CF400D3E5689403E567648094804019E56894BB
:100D04004BE56764809480500DC374519568FBE48F
:100D1400FD7FFF121AE5E56A64384569701CD3E566
:100D2400689403E56764809480400FE568944BE51C
:100D340067648094805003121ADBE56A643845695D
:100D4400700BE568640345677003121ADBE56A6497
:100D5400384569700BE568644B45677003121ADB0C
:100D6400E56A640145697015E56864034567700DBB
:100D7400C374519568FBE4FD7FFF121AE5E56A64CC
:100D84000145697015E568644B4567700DC374517E
:100D94009568FBE4FD7FFF121AE5E56A643845694E
:100DA4007015E56864024567700DC374519568FB5E
:100DB4007D077FFC121AE5E56A643845697015E51C
:100DC40068644C4567700DC374519568FB7D077F5B
:100DD400FC121AE5E56A640145697015E568640268
:100DE4004567700DC374519568FBE4FD7F3F121A8B
:100DF400E5E56A640145697015E568644C4567700A
:100E04000DC374519568FBE4FD7F3F121AE5E56A52
:100E1400643845697015E56864014567700DC374ED
:100E2400519568FB7D077FFC121AE5E56A64384535
:100E3400697015E568644D4567700DC37451956814
:100E4400FB7D077FFC121AE5E56A640145697015AC
:100E5400E56864014567700DC374519568FBE4FD52
:100E64007F3F121AE5E56A640145697015E5686417
:100E74004D4567700DC374519568FBE4FD7F3F12C7
:100E84001AE5E56A2403FFE43569FE7C007D081257
:100E940010F18F6BE56864014567600BE568644D8C
:100EA40045676003020F29E56A64024569700DC352
:100EB40074519568FBAD6B7F27121AE5E56A6403EC
:100EC4004569700DC374519568FBAD6B7F47121A69
:100ED400E5E56A64044569700DC374519568FBAD1A
:100EE4006B7F87121AE5E56A64354569700DC37432
:100EF400519568FBAD6B7FE1121AE5E56A643645EE
:100F040069700DC374519568FBAD6B7FE2121AE5ED
:100F1400E56A64374569700DC374519568FBAD6B20
:100F24007FE4121AE5E56A2403FFE43569FE7C00D8
:100F34007D081210F18D6CC3E56A9405E56964803F
:100F440094804026D3E56A9434E5696480948050A3
:100F540019AF6C7401A807088002C333D8FCFFC31F
:0A0F640074519568FBAD6B121AE59D
:010F6E002260
:1014D600E4F56EE4FBAD6E7FFF121AE57B01AD6E9F
:1014E6007FFF121AE57B02AD6E7FFF121AE57B5273
:1014F600AD6E7FFF121AE57B53AD6E7FFF121AE5C4
:101506007B54AD6E7FFF121AE5056EE56ED3940728
:1015160040C1756E017B03AD6EE4FF121AE57B04D4
:10152600AD6EE4FF121AE57B05AD6EE4FF121AE517
:101536007B4FAD6EE4FF121AE57B50AD6EE4FF12F1
:101546001AE57B51AD6EE4FF121AE5056EE56ED322
:10155600940640C1756D06AB6D7D077FE3121AE5F3
:10156600AB6DE4FD7FC7121AE5056DE56DD3944EAC
:1015760040E57B03E4FD7F07121AE57B04E4FD7F6B
:1015860007121AE57B05E4FD7F07121AE57B4FE497
:10159600FD7F07121AE57B50E4FD7F07121AE57BF3
:1015A60051E4FD7F07121AE57B037D077FE0121ADF
:1015B600E57B047D077FE0121AE57B057D077FE06A
:1015C600121AE57B4F7D077FE0121AE57B507D07F7
:1015D6007FE0121AE57B517D077FE0121AE5756EF2
:1015E600017B06AD6E7FFF121AE57B07AD6E7FFFAE
:1015F600121AE57B4DAD6E7FFF121AE57B4EAD6E7E
:101606007FFF121AE5056EE56ED3940640D37B4143
:10161600E4FD7FCF121AE57B12E4FD7FCF121AE5B7
:101626007B02E4FD7F7F121AE57B027D067FFB12BB
:101636001AE57B127D077FF3121AE57B477D077F4C
:10164600F3121AE57B527D067FEF121AE57B527D77
:06165600027FF7021AE515
:0C1EA000C0C0C0C0C0C0C0C00000000036
:10137A004D00910000000000000000000000000085
:10138A004D00840000000000000000000000000082
:10139A0002580064025A0064015C000150000151C5
:1013AA000002561F40025401C20252FE3E42006C25
:1013BA00E0C0420073000042008200004100810048
:1013CA0042007E00144100F01442009E00004200D8
:1013DA00F300004200F10000410072004200780070
:1013EA0050606400020000000000000000000000DD
:1013FA0000000000000000000000000000000000E3
:10140A0000000000000000000000000000000000D2
:10141A0000000000000000000000000000000000C2
:10142A0000000000000000000000000000000000B2
:10143A0000000000000000000000000000000000A2
:10144A00000000000000000000605000A000000042
:10145A000000000000000000000000000000000082
:10146A000000000000000000000000000000000072
:10147A000000000000000000000000000000000062
:10148A000000000000000000000000000000000052
:10149A000000000000000000000000000042006898
:1014AA000000420066000042007C000042007A0010
:1014BA0000024E0000410080004100010041007519
:0B14CA0000420076000042006A0000B3
:101CBE00EF25E0FFD2A5121CCFA2A6E4334207C245
:011CCE00A570
:0D1CCF0000000000000000000000000022E6
:0F1E1A00D2A6D2A5121CCFC2A6121CCFC2A522DF
:0C1E8800C2A6D2A5121CCFD2A6021CCF0D
:0E1E3800A20092A6D2A5121CCFC2A5021CCFFA
:0D1E5400D2A5121CCFA2A6C2A5121CCF223F
:051CDC00121E1A7FA694
:101CE100E4FEEF25E0FF92A6D2A5121CCFC2A512F9
:091CF1001CCF0EBE08EC021E54CB
:0C1E6100E4FFD2A6FE121CBE0EBE08F963
:011E6D002252
:101DD600AC07121CDCAF04121CE1AF05121CE102B9
:021DE6001E8855
:021CFA00AD0734
:101CFC00121CDCAF05121CE1121E1A7FA7121CE18C
:0B1D0C00121E61D200121E38121E8849
:011D170022A9
:101B0A00121CDC7F32121CE1121E1A7FA7121CE182
:101B1A00E4FD121E61745D2DF8A607BD0504D2000E
:0E1B2A008002C200121E380DBD06E7021E88A2
:101B38007D0B7F31121DD60D7F2C121DD67D087F9F
:101B48002D121DD67D807F2E121DD6E4FD7F1E121C
:0E1B58001DD67F1F121DD67D057F20021DD6D3
:0F1E2900D2A6D2A5121CCFC2A6121CCFC2A522D0
:0C1E9400C2A6D2A5121CCFD2A6021CCF01
:0E1E4600A20092A6D2A5121CCFC2A5021CCFEC
:0D1E6E00D2A5121CCFA2A6C2A5121CCF2225
:051D1800121E297F3CB2
:101D1D00E4FEEF25E0FF92A6D2A5121CCFC2A512BC
:091D2D001CCF0EBE08EC021E6E74
:0C1E7B00E4FFD2A6FE121CBE0EBE08F949
:011E87002238
:101DE800AC07121D18AF04121D1DAF05121D1D02F0
:021DF8001E9437
:021D3600AD07F7
:101D3800121D18AF05121D1D121E297F3D121D1DF3
:0B1D4800121E7BD200121E46121E94D9
:011D5300226D
:101B6600121D187F03121D1D121E297F3D121D1DF9
:101B7600E4FD121E7B74482DF8A607BD0504D200AD
:0E1B86008002C200121E460DBD06E7021E942C
:071ED900E4FD7F02021DE899
:1000030078687C007D007BFF7A1E79A87E007F04E0
:1000130012103FE4F56CF56DF56EF56FF570F57143
:10002300F572F573F574F575308F080551F58DF597
:100033008BC28F121B0A858D46858B47E4F58DF5A0
:100043008BC28F121B66E54AFEE54BFF900070EEF4
:10005300F0FCA3EFF0FDE54CFFE54D90006ECFF013
:10006300A3EFF0AF05AE04EE3395E0FDFCE4FB7ABD
:1000730080F9F8D312113D500F900070E0FFA3E018
:10008300900070CFF0A3EFF090006EE0FEA3E0FFCE
:10009300EE3395E0FDFCE4FB7A80F9F8D312113DD1
:1000A300500F90006EE0FFA3E090006ECFF0A3EF3F
:1000B300F0900071E024A7F0900070E03400F0901D
:1000C300006FE0248DF090006EE03401F09000703A
:1000D300E0FEA3E0FFD39496EE64809480402390E7
:1000E300006EE0FCA3E0FD94F3EC64809480501276
:1000F300ED940DEC6480947F40089000007402F04E
:10010300804BC3EF946AEE6480947F502490006E1A
:10011300E0FEA3E0FFC394F3EE648094805012EFFB
:10012300940DEE6480947F40089000007404F08086
:100133001CD390006FE0940090006EE06480948084
:1001430090000040057401F080037403F090009266
:10015300E546F0A3E547F0A3E55EF0A3E55DF0A374
:100163007499F0A3E551F0E4F551F550E55025E01D
:100173002404F582E43400F583E0FEA3E0FFE550B8
:1001830025E02402F582E43400F583EEF0A3EFF0DA
:100193000550E550B431D5E55EFE7C00E4255DFFF6
:1001A300EC3EFE900064F0A3EFF0EE3395E0FDFC2F
:1001B300E4FB7A80F9F8D312113D500F900064E00C
:1001C300FFA3E0900064CFF0A3EFF0900064E0FEA3
:1001D300A3E0FF7C007D271210DF7D0A1210F1E4FB
:1001E3002FFFEE34FC900064F0A3EFF0E4F550E54C
:1001F3005025E024A0F582E43400F583E4F0A3F075
:100203000550E550B428E8E4F550E4F575E55025CC
:100213007525E02402F582E43400F583E0FEA3E0D3
:10022300FFE55025E024A0F582E43400F583EE8F4A
:10023300F01211270575E575B40BD20550E550B4DE
:1002430028C8E562FE7C00E42561FFEC3EFE9000D9
:100253007CF0A3EFF0EE3395E0FDFCE4FB7A80F94C
:10026300F8D312113D500F90007CE0FFA3E0900003
:100273007CCFF0A3EFF090007CE0FEA3E0FF7C00D6
:100283007D271210DF7D0A1210F190007CEEF0A39F
:10029300EFF0E562FE7C00E42561FFEC3EFE90009A
:1002A3007AF0A3EFF0EE3395E0FDFCE4FB7A80F9FE
:1002B300F8D312113D500F90007AE0FFA3E09000B5
:1002C3007ACFF0A3EFF090007AE0FEA3E0FF7C008A
:1002D3007D271210DF7D0A1210F190007AEEF0A351
:1002E300EFF090007FE004F0700690007EE004F0F1
:1002F30090009FE004F0700690009EE004F09000F0
:1003030074E004F07006900073E004F0900079E06C
:1003130004F07006900078E004F0D3900079E09444
:10032300FA900078E0648094804006E4F0A374506F
:10033300F0D3900074E09478900073E0648094802C
:1003430040297554017555C27552FE75533E755655
:100353002375572890006C74DCF0A374D8F0E490F4
:1003630000F3F0A3F09000F1F0A3F0900068E0FE3A
:10037300A3E0FF90007CE0FCA3E0FDD39FEE64804C
:10038300F8EC6480984008900068ECF0A3EDF090DE
:100393000066E0FEA3E0FFC3ED9FEE6480F8EC642B
:1003A3008098500F90007CE0FFA3E0900066CFF0B0
:1003B300A3EFF0900064E0FEA3E0FFD39410EE649B
:1003C3008094A75043C3EF94F0EE64809458403870
:1003D30090007AE0FEA3E0FFD394E8EE6480948378
:1003E3005026C3EF9418EE6480947C401BA3E0FE78
:1003F300A3E0FFD394E8EE64809483500BC3EF949F
:10040300ECEE6480947A5007E4900078F0A3F0E473
:10041300F550E55025E024A0F582E43400F583E0AF
:10042300FEA3E0FFC39555E5546480F8EE6480981D
:100433004002056CD3EF956FE56E6480F8EE64803F
:100443009840048E6E8F6F0550E550B414C47550F8
:1004530014E55025E024A0F582E43400F583E0FEA2
:10046300A3E0FFD39553E5526480F8EE648098507F
:1004730002056DC3EF9571E5706480F8EE648098B2
:1004830050048E708F710550E550B428C4E56CD3C9
:1004930094035003020569E56DD3940250030205EA
:1004A3006990007FE0940590007EE0648094804032
:1004B300479000F1E0FEA3E0FF9000F4E09FFF907F
:1004C30000F3E09EFEC3EF94B8EE6480948B90003B
:1004D300F07414F0C3900079E09432900078E064F3
:1004E30080948040069000727401F0E49000F3F071
:1004F300A3F09000F1F0A3F0E490007EF0A3F0C32A
:100503009000F4E0956FE56E6480F89000F3E0648A
:1005130080985007E56EF0A3E56FF0D39000F2E00A
:100523009571E5706480F89000F1E064809840076D
:10053300E570F0A3E571F0D3E56F9557E556648058
:10054300F8E56E648098501490006DE09571E57045
:100553006480F890006CE06480984003757401E453
:10056300900073F0A3F090007EE07004A3E06406B3
:1005730060030209AB900072E06401600302093377
:100583009000F0E0FFD390009FE09F7480F890000C
:100593009EE06480985003020933900081E004F0E8
:1005A300900083E004F07006900082E004F0E49091
:1005B3000072F0900066E0FEA3E0FFC3900069E0E4
:1005C3009FF573900068E09EF572D3E57394FAE5A6
:1005D300726480948050099000807436F00206E2C1
:1005E300C3E573942CE57264809481500990008074
:1005F3007457F00206E2C3E573945EE57264809477
:10060300815009900080745CF00206E2C3E57394A4
:1006130090E5726480948150099000807460F002C8
:1006230006E2C3E57394C2E5726480948150099035
:1006330000807464F00206E2C3E57394F4E5726427
:100643008094815009900080746BF00206E2C3E548
:10065300739426E5726480948250089000807470CD
:10066300F0807CC3E5739458E572648094825008EB
:100673009000807472F08067C3E573948AE57264B6
:1006830080948250089000807474F08052C3E573A4
:1006930094BCE5726480948250089000807476F074
:1006A300803DC3E5739420E5726480948350089081
:1006B30000807478F08028C3E5739428E572648021
:1006C30094A35008900080747AF08013D3E5739458
:1006D30084E572648094834006900080747DF0C347
:1006E300E54F9410E54E648094A74005E4F54EF57C
:1006F3004F900080E0FD254FF54FE4354EF54E90C9
:100703000000E0FCB4011CA3E0FFE5748FF0A4FF3C
:10071300EDC39FFFE495F0FEC3E5599FF559E558F6
:100723009EF558ECB40220900001E0FFE5748FF0D1
:10073300A4FF900080E0C39FFFE495F0FEEF255BEC
:10074300F55BEE355AF55A900000E0B4031EA3E0C2
:10075300FFE5748FF0A4FF900080E0C39FFFE49552
:10076300F0FEEF2559F559EE3558F558900000E0A5
:10077300FDB4041FA3E0FFE5748FF0A4FF90008095
:10078300E0C39FFFE495F0FEC3E55B9FF55BE55A8D
:100793009EF55AE574B40122900001E0FFC3E54FD2
:1007A3009FF54FE54E9400F54E900083E024FFF053
:1007B300900082E034FFF0E4F574900080E0900054
:1007C30001F0E4900068F0A3F0900066F0A3F0D38A
:1007D300E5599490E558648094814068E55994E81C
:1007E300E5586480949C505CE55B9490E55A648082
:1007F30094814050E55B94B4E55A648094945044EA
:10080300ED64016007900000E0B4031DC3E55B9451
:10081300F0E55A6480948A5008755A00755B6480C9
:1008230023755A15755BE0801BC3E55994D8E558C9
:100833006480948E50087558007559648006755805
:100843001E755914D3E5599414E5586480949E4059
:100853000675581E755914C3E5599464E5586480A8
:1008630094805006755800755964D3E55B94E0E5B0
:100873005A648094954006755A15755BE0C3E55B31
:100883009464E55A648094805006755A00755B64DD
:10089300AE58AF597C007D641210F17B327D041297
:1008A3001BEA7B227D047F1312196CAE58AF597C6F
:1008B300007D641210F1AF057B1F7D04121BEAAEAD
:1008C3005AAF5B7C007D641210F17B327D02121BF8
:1008D300EA7B227D027F1312196CAE5AAF5B7C0058
:1008E3007D641210F1AF057B1F7D02121BEA90009D
:1008F30082E0FEA3E0FF7C007D641210F1AF057B74
:10090300367D06121BEA900080E075F06484FF7B5D
:10091300247D06121BEA7B147D067F1312196C904B
:100923000080E075F06484AFF07B117D06121BEA52
:10093300E490009EF0A3F09000F1E0FAA3E0FBAE98
:10094300027802C333CE33CED8F9FF90006CEEF0B9
:10095300A3EFF07C007D05AF03AE021210F1C3EFED
:10096300943EEE6480947E50068E528F53800675BB
:1009730052FE75533E9000F3E0FAA3E0FB7C007D4A
:1009830003FFAE021210DF8E568F57AF03AE021273
:1009930010F1D3EF94C2EE6480948140058E548F9E
:0809A30055227554017555C27F
:0109AB002229
:10188200E4F567900091F0A374FFF0A37401F0A354
:1018920074FFF0E4A3F0A3E55CF0900000E0900098
:1018A20097F0AE4EAF4F7C007D641210F1A3EFF0C3
:1018B200AE4EAF4F7C007D641210F1A3EDF0AE5A34
:1018C200AF5B7C007D641210F1A3EFF0AE5AAF5B08
:1018D2007C007D641210F1A3EDF0E4F5672096120E
:1018E2007B017A0079917D0B121C367FD07E071224
:1018F2001D6D3096031200030567E567C39401402E
:01190200DC08
:0119030022C1
:1011A800E4F56375640175650AF566D2B7C2C0C215
:1011B800C3121A02E4FDFF1219BC7FF47E01121D4E
:1011C8006DD295121EB7121CA012165C7BFF7A1EF8
:1011D80079A0756D087F3E121AA9D2C0D2B7D2C0C5
:1011E800D2C31214D67B417D047F1612196C7B4141
:1011F8007D027F1712196C7B397D047F1012196CE0
:101208007B397D027F1012196C121B38121ED943CC
:101218008910E4F58DF58BC28FD28E438901758CC8
:101228004CF58AC28DD28C90009274FFF090009495
:10123800F0055C900096E55CF0B2C0121882B2C06E
:10124800E4F566AF8DEFFEAD8B7C00E42DFFEC3E40
:10125800FEC3EF946EEE94215007E551C39401400C
:1012680006309603120003209725AE58AF597C002C
:101278007D641210F1AA06AB07AE5AAF5B7C007D05
:10128800641210F1AC06AD07AF03AE02120CDC30ED
:101298008F090551E4F58DF58BC28F308D3C0566BD
:1012A800E5666414702C055C900096E55CF0B2C0AD
:1012B8000563E563B40203E4F563900000E0FF7B97
:1012C800417D0612196C121882E4900081F0B2C0B8
:1012D800F566758C4CE4F58AC28D756A00756B00ED
:1012E800756C657B017A007984121751EF700302DF
:1012F800124B900085E0FFF4700302124B900089B6
:10130800E0655C600302124BB2C37B5A7D0312197D
:101318006C900089E075F06484AFF07B647D051201
:101328001BEA0564B2C3055C900096E55CF0B2C0A8
:1013380075F06484AFF07B677D07121BEA12188290
:08134800B2C0E4F56602124B8D
:0F1E0A007F017E000FBF00010EBE06F8BF18F566
:011E190022A6
:041D6D00AD07AC060C
:101D7100E4FBFAC3EB9DEA9C500A121E0A0BBB005E
:041D8100010A80EFE4
:011D8500223B
:041A7500AD07AC0607
:101A7900858D0FA98BAF8DEFFEAB8B7A00E42BFB25
:101A8900EA3EFAE50FFEC3EB9400FFEA9EFEE9FB8E
:0F1A9900C3EF9BFFEE9400FED3EF9DEE9C40D673
:011AA800221B
:101802000211A8E493A3F8E493A34003F68001F243
:1018120008DFF48029E493A3F85407240CC8C333E7
:10182200C4540F4420C8834004F456800146F6DFB6
:10183200E4800B0102040810204080901350E47EE3
:10184200019360BCA3FF543F30E509541FFEE493AB
:10185200A360010ECF54C025E060A840B8E493A372
:10186200FAE493A3F8E493A3C8C582C8CAC583CA9D
:10187200F0A3C8C582C8CAC583CADFE9DEE780BE55
:0114D5000016
:100F6F00E709F608DFFA8046E709F208DFFA803E64
:100F7F0088828C83E709F0A3DFFA8032E309F60851
:100F8F00DFFA8078E309F208DFFA807088828C83B9
:100F9F00E309F0A3DFFA806489828A83E0A3F6086D
:100FAF00DFFA805889828A83E0A3F208DFFA804C47
:100FBF0080D280FA80C680D4806980F2803380101E
:100FCF0080A680EA809A80A880DA80E280CA803387
:100FDF0089828A83ECFAE493A3C8C582C8CCC583FF
:100FEF00CCF0A3C8C582C8CCC583CCDFE9DEE780CF
:100FFF000D89828A83E493A3F608DFF9ECFAA9F04E
:10100F00EDFB2289828A83ECFAE0A3C8C582C8CCA3
:10101F00C583CCF0A3C8C582C8CCC583CCDFEADEBC
:10102F00E880DB89828A83E493A3F208DFF980CC1E
:10103F0088F0EF60010E4E60C388F0ED2402B40417
:10104F000050B9F582EB2402B4040050AF232345BE
:06105F008223900FBF7315
:10106500BB010689828A83E0225002E722BBFE0289
:09107500E32289828A83E49322BC
:10107E00BB010CE58229F582E5833AF583E0225027
:10108E0006E92582F8E622BBFE06E92582F8E22271
:0D109E00E58229F582E5833AF583E493228B
:1010AB00BB010689828A83F0225002F722BBFE0124
:0210BB00F3221E
:1010BD00F8BB010DE58229F582E5833AF583E8F069
:1010CD00225006E92582C8F622BBFE05E92582C815
:0210DD00F222FD
:1010DF00EF8DF0A4A8F0CF8CF0A428CE8DF0A42E25
:0210EF00FE22DF
:1010F100C2D5EC30E709B2D5E4C39DFDE49CFCEE1A
:1011010030E715B2D5E4C39FFFE49EFE121153C32D
:10111100E49DFDE49CFC800312115330D507C3E428
:061121009FFFE49EFE2288
:10112700C5F0F8A3E028F0C5F0F8E5821582700253
:061137001583E038F022F0
:10113D00EB9FF5F0EA9E42F0E99D42F0EC6480C829
:06114D0064809845F022C9
:10115300BC000BBE0029EF8DF084FFADF022E4CC80
:10116300F875F008EF2FFFEE33FEEC33FCEE9DEC49
:10117300984005FCEE9DFE0FD5F0E9E4CEFD22ED8F
:10118300F8F5F0EE8420D21CFEADF075F008EF2FD9
:10119300FFED33FD4007985006D5F0F222C398FDCA
:0511A3000FD5F0EA2267
:00000001FF
