:030000000219974B
:0C199700787FE4F6D8FD7581070219DEA8
:101F4700000000000000000000000000000000008A
:101CE50042007800006023005500080010A7625BE1
:101CF500F80322F80047B610181D1CC700B2EA2ADF
:0C1D05000011598135090B06060509FF85
:101E2800E4FDFCC3ED9FEC9E50070DBD00010C8046
:101E3800F2E4FCFDC3ED9FEC9E50070DBD00010CC4
:021E480080F226
:011E4A002275
:101EAF00000000000000000000000000000000EF34
:091EBF001F70011E144E70E82290
:071FA400C290C282D290221C
:0A1F8100121FA47F887E13021E28A1
:101DAF00E4FEC282FDEF30E704D2928002C292EFCE
:101DBF0025E0FFD2820000EE25E0FE3091010EC239
:0A1DCF008200000DEDB408DDAF0640
:011DD90022E7
:101F3700C2902091FD7F30121DAF2091FDD29022DB
:101E9100D2907F017E00121EAFC2907F017E0012A0
:0E1EA1001EAFD2907F297E00121EAF021F37A7
:041EF900E0FD7F0C7D
:101EFD00AC05C2902091FD121DAFAF04121DAFD2E3
:021F0D00902220
:0B1C6600900049EBF0A3EAF0A3E9F0C6
:101C7100EF4440FFC2902091FD121DAFE4FC9000A3
:101C81004CE0FFECC39F501A900049E0FBA3E0FA3F
:101C9100A3E0F98C82758300120E1DFF121DAF0C9B
:041CA10080DCD29081
:011CA500221C
:0B1F7600C2902091FD121DAFD29022FE
:101F0F00EF4480FFC2902091FD121DAFE4FF121D20
:031F1F00AFD290AE
:011F2200229C
:0B1C2400900051EBF0A3EAF0A3E9F000
:101C2F00EF44C0FFC2902091FD121DAFE4FC900065
:101C3F0054E0FFECC39F501CE4FF121DAF90005106
:101C4F00E0FBA3E0FAA3E0F98C82758300EF120E9C
:061C5F005C0C80DAD2905B
:011C6500225C
:101F2300EF44C0FFC2902091FD121DAFE4FF121DCC
:031F3300AFD2909A
:011F36002288
:10119600900055121EF9A3E0FD7F0B121EFDA3124F
:1011A6001EF9A3E0FD7F0D121EFDA3E0FD7F0E12CA
:1011B6001EFDA3E0FD7F0F121EFDA3E0FD7F1012B2
:1011C6001EFDA3E0FD7F11121EFDA3E0FD7F12129E
:1011D6001EFDA3E0FD7F13121EFDA3E0FD7F14128A
:1011E6001EFDA3E0FD7F0A121EFDA3E0FD7F151282
:1011F6001EFDA3E0FD7F21121EFDA3E0FD7F22124E
:101206001EFDA3E0FD7F18121EFDA3E0FD7F19124F
:101216001EFDA3E0FD7F1A121EFDA3E0FD7F1B123B
:101226001EFDA3E0FD7F1C121EFDA3E0FD7F1D1227
:101236001EFDA3E0FD7F23121EFDA3E0FD7F241209
:101246001EFDA3E0FD7F25121EFDA3E0FD7F2612F5
:101256001EFDA3E0FD7F29121EFDA3E0FD7F2C12DB
:101266001EFDA3E0FD7F2D121EFDA3E0FD7F2E12C5
:101276001EFDA3E0FDE4FF121EFDA3E0FD7F0212AA
:101286001EFDA3E0FD7F07121EFDA3E0FD7F0812F1
:101296001EFDA3E0FD7F09121EFDA3E0FD7F0602F1
:0212A6001EFD2B
:101DDA00900047EDF07F3F121EFDE090004CF07F2F
:101DEA003F121C667F36121F767F35121F763084AB
:091DFA00FD2084FD7F3B021F76F1
:051FAB007F34021F76E7
:0B13A700900047EBF0A3EAF0A3E9F090
:1013B200A3E0FBA3E0FAA3E0F9120E0475F014A473
:1013C200FB7F34121F767F027E00121E28308411AA
:1013D2007F027E00121E281BEBC3940150EF7FFF99
:1013E200227F3B121F23EF547F70030214817F3F41
:1013F200121F0F90004FEFF090004AE0FBA3E0FABB
:10140200A3E0F9120E04FEEFD39E5057900047E07E
:10141200FBA3E0FAA3E0F990004FE0900054F07FC4
:101422003F121C2490004FE0FF90004AE0FBA3E033
:10143200FAA3E0F9EF120E4A7B017A00794D90008F
:10144200547402F07F3F121C247F3A121F769000E0
:101452004DE0900091F090004EE030E7037F0122D2
:101462007F002290004FE0FF90004AE0FBA3E0FAE9
:10147200A3E0F9EF120E4A7F3A121F767F00227F15
:011482000069
:011483002246
:101E4B007F34121F23EFC39480EF400B2401FFE478
:101E5B0034FFC313EF8001C31324B6FCECFF33959F
:021E6B00E0FE97
:011E6D002252
:0E155D00900038EBF0A3EAF0A3E9F0A3EDF064
:10156B00783D7C007D017BFF7A1F79477E007F08E9
:10157B00120DDE9000457408F0E4A3F04389017569
:10158B008CD8758AF0C28D90003CE0FF900038E05B
:10159B00FBA3E0FAA3E0F9EF120E4A7F09121F2317
:1015AB00900038E0FBA3E0FAA3E0F9900002EF1201
:1015BB000E5C90003BE0FD121DDAD28C900046E0F1
:1015CB00606490004A7401F0A37400F0A37445F0BA
:1015DB007B017A00793D1213A7EF600990003EE082
:1015EB0070037F0122308DD4900079E004F07006F7
:1015FB00900078E004F0900046E014F0900078E062
:10160B00FEA3E0FF7B627D07121634900038E0FBEF
:10161B00A3E0FAA3E0F9A3E0FD121DDA758CD875EF
:08162B008AF0C28D80967F0059
:011633002294
:0B19090090007AEBF0A3EAF0A3E9F0F5
:1019140078807C007D017BFF7A1F794F7E007F08F1
:10192400120DDE9000887403F090007DE0F9A3E0CE
:10193400FAA3E090004AC9F0A3EAF0A3E9F090000A
:101944007AE0FBA3E0FAA3E0F91213A7EF60419059
:10195400007AE0FBA3E0FAA3E0F9900002120E1D66
:10196400900080F0E4A3F07F09121F23A3EFF0900E
:10197400007AE0FBA3E0FAA3E0F9120E04600E7B08
:10198400017A007980900088E0FD121DDA7F01223F
:021994007F00D2
:01199600222E
:1000030000000000000000000000004F000000009E
:1000130000000708101010080700F0080404040883
:10002300F00008181F00000000000404FC04040092
:1000330000000E101010110E00001C3464C4840C58
:1000430000000C101010110E0000180404848870B6
:100053000000010204081F000000E0202424FC2407
:1000630020001F101111111000008884040408F0EF
:1000730000000708111111110800F0880404040896
:10008300F00018101010111C1000000000FC0000FC
:1000930000000E111010110E0000384484844438FF
:1000A30000000708101008070000008C444488F083
:1000B300000000031C07000000043CC44040E41C93
:1000C30004101F1111110E000004FC0404048870B5
:1000D30000030C101010101C00E018040404081096
:1000E30000101F10101008070004FC04040408F09B
:1000F30000101F11111710080004FC0404C4041895
:1001030000101F11111710080004FC0400C00000A8
:100113000000000003030000000000000C0C0000BE
:10012300000000000101111F00007088040408FC96
:1001330004101F1111110E000004FC040404887044
:10014300000000000000000000000C0C0000000094
:10015300000000000F00000000808080F880808095
:10016300000000000000000000008080808080808C
:1001730080000000000000000002024242424242AE
:100183007F4242424242020200010102040830C09F
:1001930000C0300804020101000806403003082AA9
:1001A3002A2AFF2A2A3E08080020203EC0000848C9
:1001B3004848FF48484808000004040404040404B1
:1001C300FF0404040404040400010102040830C011
:1001D30000C030080402010100020C886909098982
:1001E3006909091928C80A0C00202020202022218F
:1001F3007E60A020202020200002423300004744DC
:1002030054544F5464440700000102FC0201FF915F
:100213009191FD919593FD01000001061FE00020DF
:100223002424A4642424242000800000FF00000070
:100233009F92929292929F00000001061FE000207D
:100243002424A4642424242000800000FF00000050
:100253009F92929292929F00000101017D45454534
:10026300454545457D0101010000000060A02020B7
:10027300202221223C00000000404744447C00012E
:100283007949494F494979010000C241427C02E260
:10029300222222FE22222AE70000003F2424243FB8
:1002A300A464243F2424242000020CF1012132AA57
:1002B300A4A4A4AA3201010100007F40484949498E
:1002C3004F49494948407F000000FF0212121212B1
:1002D300F21252321202FF000002040B32C2221346
:1002E3000804001F0000FF00000000FC022212E2CD
:1002F300020E00F00201FE000000000007000000F3
:10030300FF00000004020100001020C000000201F1
:10031300FE0000000000807000040C35C60C0000D5
:100323007F444444447F00000044E64448480202BA
:10033300FE42424242FE02020000000000000000B2
:1003430000000000000000000000000000000000AA
:10035300000000000000000000000000000000009A
:10036300000000000000000000000000000000008A
:10037300000000000000000000000000000000007A
:1005C3000000000000000000000004040404040410
:1005D30004040707040404040404040C1C0C0400AE
:1005E30000000000000002020202020202020202F4
:1005F3000202FFFF020302020202020202060E06C9
:1006030002000000000000000000000000000103E1
:100613000E7CF00000C0300C070100000000000059
:100623000000000000000202040C08102060C080DB
:1006330000000000000000000080C06070381C1C37
:10064300080808000000000020180E060000000241
:1006530002020202023F3F020202020203070200F9
:1006630000000000008060381C0000031CE0202113
:100673002121212121FFFF2121212121FFFF2020F1
:100683006020000000000202030F3CC001011111B1
:100693001111111111FFFF1111111111113131112B
:1006A3000301000000000000FCFC0000000000004B
:1006B3000000000000FEFE0000000000000000003B
:1006C3000000000000000000000000000000000027
:1006D3000000003F1F0000000000000000000000B9
:1006E3000000000000000010101010101010101077
:1006F300101017FFFE1110101010101010102060B2
:100703006020000000000000000000000000000165
:10071300073EF8C000C0701C060301000000000083
:100723000000000000000202040408183060C080CA
:1007330000000000000000000080C0E07038381C9A
:100743001808000000000000000000180E07030056
:1007530000201C0F0700000000030E3C18000000DF
:1007630000000000000000063E3C202121A1A12141
:10077300212121A121212121E1A323212024287842
:1007830070200000000004040404040404040404AE
:100793000404043F1F2424448484040404040C1C20
:1007A3000C0400000000000000000000000000082E
:1007B300080C0EFCFC00000000000000000000001C
:1007C300000000000002030202020202020202030E
:1007D3000702000000033F1C10000000000000009F
:1007E3000000000000000020100C060301073EF08B
:1007F3008000010638E0C0405F4F484040445870D5
:10080300E04000000000000000030EB8E0F03C1FD1
:10081300070100000001077CF000F80F0100000051
:1008230000000000001020408000000000020204CD
:10083300C808102060C0000000000000C070381C11
:100843000C08000000000000100C0F07000000005F
:10085300070304040808181003010101010101073B
:10086300020000000000040404040F0F0000000055
:10087300FFFF000000000000FFFF0000000000FF7A
:1008830000000000000000000000FFFF0000000067
:10089300FCFC183020204000FFFF000008080CFC7F
:1008A3000000000000207060C08000008040203005
:1008B3001010181818181818D89818181818181885
:1008C30018100000000000000000030F3C1000009F
:1008D3000001073D19110101010101010101030398
:1008E300010000000004081060C0FFFF000010209A
:1008F30041861E0C0800007F3F00080426C38100C8
:1009030000000000000000000000F3F00000478733
:1009130000004826273370F0800000000202C1C0A7
:10092300000000000000001030F080000000FCFC1C
:10093300040404048484040404049C7C080080E00C
:10094300F0000000000000000000000000030301AD
:100953000000000000000000000000000000000094
:1009630000000000000000000000000000FFFFE0A6
:100973000000000000000000000000000000000074
:100983000000000000000000000000000183F303EA
:100993000000000000000000000000000000000054
:1009A30000000000000000000000000080C0C080C4
:1009B3000000000000000000000000000000000034
:0509C30000000000002F
:081F8B007F207EFFDEFEDFFA7D
:011F9300222B
:101E6E00121E80121E80121E80121E80121E8012E2
:021E7E001E80C4
:101E80007FFF7EFF0000000000000000DEF6DFF2B2
:011E9000222F
:101CA600C2B5121F8BD2B5121F8B7FA3121EEB7FFC
:101CB600A0121EEB7FAF121EEB7F2F121EEB7F23AF
:101CC600121EEB7F81121EEB7F28121EEB7FC012C5
:0F1CD6001EEB7FAF121EEB7F40121EEB000022B1
:0A1EE1009000B1E0C4540F2410FF7C
:0E1EEB00C2B600C2B400121E030000D2B6221E
:101D55009000AFE075F080A42FF582E435F0F583AF
:0F1D6500E58224C7F582E5833405F583E493FF17
:0E1D7400C2B600D2B400121E030000D2B62286
:101E0300C2B37D087C00C2B30000EF54806004D2EB
:101E1300B28002C2B2D2B3EF25E0FFED1D70011C08
:041E2300ED4C70E230
:011E27002298
:0B1B72009000A3EFF0A3EDF0A3EBF058
:101B7D007FAF121EEB9000A4E024B0FF121EEB907D
:101B8D0000A5121EE49000A5E0540FFF121EEBE419
:101B9D009000A6F09000A6E0FFC394085025900099
:101BAD00A3E075F008A42FF582E435F0F583E58206
:101BBD002403F582E5833400121D6F9000A6E00426
:031BCD00F080D1D4
:011BD00022F2
:0B185B009000A7EFF0A3EDF0A3EBF06E
:101866007FAF121EEB9000A8E024B0FF121EEB9093
:1018760000A9121EE49000A9E0540FFF121EEBE42B
:101886009000AAF09000AAE0FFC3941050259000A3
:10189600A7E075F020A42FF582E435F0F583E58204
:1018A6002413F582E5833400121D6F9000AAE0042C
:1018B600F080D19000A8E024AFFF121EEB9000A9A3
:1018C600121EE49000A9E0540FFF121EEB9000AA2E
:1018D6007410F09000AAE0FFC3942050259000A752
:1018E600E075F020A42FF582E435F0F583E5822437
:1018F60013F582E5833400121D6F9000AAE004F010
:0219060080D18E
:0119080022BC
:0816F100A3E0FDA3E0FB7F1460
:0B16F90090004DEFF0A3EDF0A3EBF02C
:101704007FAF121EEB90004EE024B0FF121EEB9050
:10171400004F121EE490004FE0540FFF121EEB9096
:1017240000507408F0900050E0FFD39400402590DE
:10173400004DE075F010A42FF582E435F0F583E553
:10174400822413F582E5833400121D6F900050E06B
:1017540014F080D190004EE024AFFF121EEB9000F5
:101764004F121EE490004FE0540FFF121EEB900046
:10177400507410F0900050E0FFD39408402590007E
:101784004DE075F010A42FF582E435F0F583E58281
:101794002413F582E5833400121D6F900050E01489
:0317A400F080D101
:0117A700221F
:0417A8007B707F0FC4
:0B17AC009000ABEFF0A3EDF0A3EBF01A
:1017B7007FAF121EEB9000ACE024B0FF121EEB903F
:1017C70000AD121EE49000ADE0540FFF121EEB9027
:1017D70000AE7410F09000AEE0FFD3940040259067
:1017E70000ABE075F020A42FF582E435F0F583E532
:1017F70082247BF582E5833401121D6F9000AEE0F1
:1018070014F080D19000ACE024AFFF121EEB9000E3
:10181700AD121EE49000ADE0540FFF121EEB9000D6
:10182700AE7420F09000AEE0FFD3941040259000F6
:10183700ABE075F020A42FF582E435F0F583E5825F
:10184700247BF582E5833401121D6F9000AEE0140E
:03185700F080D14D
:01185A00226B
:0B1484009000AFEFF0A3EDF0A3EBF041
:10148F007FAF121EEB9000B0E024B0FF121EEB12E4
:10149F001EE19000B1E0540FFF121EEB9000B274EA
:1014AF0020F09000B2E0FFD39400400B121D559036
:1014BF0000B2E014F080EB9000B0E024AFFF121EFA
:1014CF00EB121EE19000B1E0540FFF121EEB9000E3
:1014DF00B27440F09000B2E0FFD39420400B121D85
:1014EF00559000B2E014F080EB9000B0E024AEFF16
:1014FF00121EEB121EE19000B1E0540FFF121EEB13
:10150F009000B27460F09000B2E0FFD39440400BB3
:10151F00121D559000B2E014F080EB9000B0E02463
:10152F00ADFF121EEB121EE19000B1E0540FFF123F
:10153F001EEB9000B27480F09000B2E0FFD3946085
:0D154F00400B121D559000B2E014F080EB2F
:01155C00226C
:0B1BD1009000B3EFF0A3EDF0A3EBF0E9
:101BDC007FAF121EEB9000B4E024B0FF121EEB900E
:101BEC0000B5121EE49000B5E0540FFF121EEBE49A
:101BFC00FF0FEFB410FB9000B4E024B1FF121EEB0A
:101C0C009000B5121EE49000B5E0540FFF121EEBCD
:071C1C007F100FEFB420FB65
:011C2300229E
:081B0A00900038EFF0A3EDF0AC
:101B120090003C74B0F090003CE0FFC394B9504B8D
:101B2200121EEB7F10121EEBE4FF121EEBE490007C
:101B32003AF0A3F0900038E0FF121D74900039E0F3
:101B4200FF121D7490003BE004F0700690003AE032
:101B520004F0C390003BE0944090003AE06480942B
:101B62008040D190003CE004F080AB7FAF021EEBDE
:0B1A970090009DEBF0A3EAF0A3E9F043
:101AA2007FAF121EEB9000A274B0F09000A2E0FF94
:101AB200C394B85052121EEB7F10121EEBE4FF12B9
:101AC2001EEBE49000A0F0A3F090009DE0FBA3E4E5
:101AD20075F001120F1BA9F0FA120E04FF121D7409
:101AE2009000A1E004F070069000A0E004F0C39022
:101AF20000A1E094809000A0E06480948040CA90AD
:071B020000A2E004F080A442
:011B090022B9
:10107E007D071217A87B607D077F0F1217AC7B5080
:10108E007D077F0F1217AC7B407D077F0F1217ACC9
:10109E007B307D077F0F1217AC7B207D077F0F12F1
:1010AE0017AC7B107D077F0F1217ACE4FB7D077F1B
:1010BE000F1217AC7B707D057F0F1217AC7B607D16
:1010CE00057F0F1217AC7B507D057F0F1217AC7B7F
:1010DE00407D057F0F1217AC7B307D057F0F1217F9
:1010EE00AC7B207D057F0F1217AC7B107D057F0F2B
:1010FE001217ACE4FB7D057F0F1217AC7D031217A0
:10110E00A87B607D037F0F1217AC7B507D037F0F92
:10111E001217AC7B407D037F0F1217AC7B307D0323
:10112E007F0F1217AC7B207D037F0F1217AC7B1045
:10113E007D037F0F1217ACE4FB7D037F0F1217ACFC
:10114E007B707D017F0F1217AC7B607D017F0F12CC
:10115E0017AC7B507D017F0F1217AC7B407D017F5A
:10116E000F1217AC7B307D017F0F1217AC7B207DE9
:10117E00017F0F1217AC7B107D017F0F1217ACE4AD
:08118E00FB7D017F0F0217AC8D
:1012A8007B607D07E4FF121484121E7A7B407D0761
:1012B8007F01121484121E7A7B207D077F0212148C
:1012C80084121E7AE4FB7D077F03121484121E7AAF
:1012D8007B607D037F04121484121E7A7B407D0399
:1012E8007F05121484121E7A7B207D037F06121458
:1012F80084121E7AE4FB7D037F07121484121E6E8B
:1013080012107E121E6E7B607D06E4FF1217AC7B06
:10131800507D067F011217AC7B407D067F021217B5
:10132800AC7B307D067F031217AC7B207D067F04E3
:101338001217AC7B107D067F051217AC7B707D03FE
:101348007F061217AC7B607D037F071217AC7B50BA
:101358007D037F081217AC7B407D037F091217AC11
:101368007B387D037F101216F97B087D037F1112ED
:1013780016F97B017D037F121216F97B507D017FE0
:101388000A1217AC7B407D017F0B1217AC7B307DB6
:0F139800017F0C1217AC7B207D017F0D0217AC7B
:10163400900049EDF0A3EBF0900047EEF0A3EFF03B
:10164400C3EE6480948040051216F1802290004914
:10165400E0FDA3E0FB7F151216F9900047E0FEA31E
:10166400E0FFC3E49FFFE49E900047F0A3EFF090F7
:101674000047E0FEA3E0FF7C007D64120EE5AB07AB
:10168400EB75F064A4FFC3E09FFF900047E095F082
:10169400FE7C007D0A120EE590004BEFF0900047AF
:1016A400A3E0FEEB75F064A4FDC3EE9DFEEF75F0C0
:1016B4000AA4FFC3EE9F90004CF0AF03900049E0F2
:1016C400FDA3E024F8FB1216F990004BE0FF900014
:1016D40049E0FDA3E024F0FB1216F990004CE0FF72
:0D16E400900049E0FDA3E024E8FB0216F9A8
:100F3100900096EDF0A3EBF0900094EEF0A3EFF0AB
:100F4100C3EE6480948040051216F18022900096D1
:100F5100E0FDA3E0FB7F151216F9900094E0FEA3DB
:100F6100E0FFC3E49FFFE49E900094F0A3EFF090B4
:100F71000094E0FEA3E0FF7C277D10120EE59000B7
:100F810098EFF07E007C277D10120E7EAA06AB073B
:100F9100C3900095E09BFF900094E09AFE7C037D56
:100FA100E8120E90A907900099E9F0C3900095E02E
:100FB1009BFB900094E09AFA7E007C037DE8120E80
:100FC1007EC3EB9FFBEA9EFA7C007D64AF03FE12B9
:100FD1000E9090009AEFF0E075F064A4FFC3EB9FD0
:100FE100FFEA95F0FE7C007D0A120E90A3EFF0FE61
:100FF100900094A3E0FD900098E0FBC454F0FCC382
:10100100ED9CFDA3E075F0E8A4FCC3ED9CFDA3E01D
:1010110075F064A4FCC3ED9CFDEE75F00AA4FEC35B
:10102100ED9E90009CF0AF03900096E0FDA3E024BC
:10103100F8FB1216F9900099E0FF900096E0FDA3ED
:10104100E024F0FB1216F990009AE0FF900096E080
:10105100FDA3E024E8FB1216F990009BE0FF90004D
:1010610096E0FDA3E024E0FB1216F990009CE0FF5E
:0D107100900096E0FDA3E024D8FB0216F9E4
:101D82000000000000000000000000000000000051
:101D92000000000000000000000000000000000041
:0D1DA2000000000000000000000000000034
:101D1100480089C0C0C0C0C0C0C0C042009200001D
:1009C800E4900000F0A3F0A3F0A3F0A3F0A3F0A339
:1009D800F078077C007D017BFF7A1D7982FE7F0914
:1009E800120DDE78127C007D017BFF7A1D798B7EEB
:1009F800007F0D120DDE781F7C007D017BFF7A1DC4
:100A080079987E007F0D120DDE782C7C007D017BAD
:100A1800FF7A1D79A57E007F0A120DDEE49000366C
:100A2800F0A3F0D2B7C2C0C2C3121F67C295121C8E
:100A3800A6121E80121E80121E80E4FDFF121B0AE1
:100A4800121E80121E80121E80121E80121E80121C
:100A58001E80D295121F81121E911211967B017A67
:100A680000798990004C7408F07F3E121C66D2C051
:100A7800D2B7D2C0D2C390004A7401F0A37400F078
:100A8800A37411F07B017A00791F1213A7EF60E6B7
:100A9800900020E0F46066A3E0FF640A6005EF645C
:100AA80008705A7F09121F23900020E0B5070FB283
:100AB800C07B017A00791F90003C7401803490005B
:100AC80020E0C39405500FB2C07B017A00791F90D3
:100AD800003C7402801C900020E0FFC394054096FF
:100AE800EF94095091B2C07B017A00791F90003CC5
:100AF8007408F07D0B12155DB2C0020A7E900006E4
:100B0800E0FF900024E06F703490001FE0FF601554
:100B1800900022E02405F582E43400F583E06401C6
:100B28007003020A7EEF70157F09121F2374052FC8
:100B3800F582E43400F583E06003020A7E90001F2A
:100B4800E06003020C90900022E0F46003020C9035
:100B5800900091E0FF900000E0242CF582E434003E
:100B6800F583EFF0900000E004F0E0C39401500337
:100B7800020CD790001374FFF07F09121F23900016
:100B880015EFF0900024E0900017F0E4900002F0D8
:100B9800A3F0900001F0900000E0FFA3E0FEC39FE7
:100BA8005021742C2EF582E43400F583E0FD90008A
:100BB80003E02DF0900002E03400F0900001E00422
:100BC800F080D3EFFD7C00900002E0FEA3E0FF126E
:100BD8000EE5900016EFF0900025E0900018F090D8
:100BE8000026E0900019F0900027E090001AF0909D
:100BF8000028E090001BF0900029E090001CF09085
:100C08000036E0FEA3E0FF7C017D00120EE5AE0495
:100C1800AF057B307D07121634900024E0FF7E007C
:100C28007B307D05121634B2C37B017A00791290AD
:100C3800003C740AF07D0B12155DB2C3900037E0DA
:100C480004F07006900036E004F07F09121F237448
:100C5800052FF582E43400F5837401F0E490000078
:100C6800F0F0900000E0FFC39406501574122FF5C1
:100C780082E43400F5837480F0900000E004F08092
:100C8800E1E4900000F08047900021E06408703FA4
:100C9800B2C07B017A00791F90003C740AF07D0B8A
:100CA80012155DB2C0900036E0FEA3E0FF7C017D26
:100CB80000120EE5AE04AF057B307D0512163490A8
:100CC8000022E02405F582E43400F5837401F090F5
:100CD8000024E0FF900006E06F7003020A7EEFF048
:100CE800E4900010F0900010E0FFC3940940030264
:100CF8000A7E74072FF582E43400F583E4F090004F
:060D080010E004F080DFA2
:0F1F6700759850438920758DFD758BFDD28E22A4
:081F94008F993099FDC29922DA
:101D22009000B6EBF0A3EAF0A3E9F09000B6E0FB76
:101D3200A3E0FAA3E0F9120E0460179000B6A3E440
:101D420075F001120F1BA9F0FA120E04FF121F9474
:031D520080D92213
:041A2300AB07AA065D
:101A2700D3EB9400EA6480948040047F2B8009C341
:101A3700E49BFBE49AFA7F2D121F947C007D64AF30
:101A470003AE02120EE59000B9EFF0E075F064A462
:101A5700FFC3EB9FFFEA95F0FE7C007D0A120EE5BF
:101A6700AE07AD03AF05E0FD75F064A4FCC3EF9CC2
:101A7700FFEE75F00AA4FCC3EF9CFCED2430FF12C7
:101A87001F94EE2430FF121F94EC2430FF021F94A2
:071F9C003098FDAF99C298D7
:011FA300221B
:0F1F57007F017E000FBF00010EBE06F8BF18F518
:011F66002258
:041EC800AD07AC06B0
:101ECC00E4FBFAC3EB9DEA9C500A121F570BBB00B4
:041EDC00010A80EF88
:011EE00022DF
:1019A3000209C8E493A3F8E493A34003F68001F289
:1019B30008DFF48029E493A3F85407240CC8C33345
:1019C300C4540F4420C8834004F456800146F6DF14
:1019D300E4800B0102040810204080901CE5E47EA3
:1019E300019360BCA3FF543F30E509541FFEE49309
:1019F300A360010ECF54C025E060A840B8E493A3D0
:101A0300FAE493A3F8E493A3C8C582C8CAC583CAFA
:101A1300F0A3C8C582C8CAC583CADFE9DEE780BEB2
:011D210000C1
:100D0E00E709F608DFFA8046E709F208DFFA803EC7
:100D1E0088828C83E709F0A3DFFA8032E309F608B4
:100D2E00DFFA8078E309F208DFFA807088828C831C
:100D3E00E309F0A3DFFA806489828A83E0A3F608D0
:100D4E00DFFA805889828A83E0A3F208DFFA804CAA
:100D5E0080D280FA80C680D4806980F28033801081
:100D6E0080A680EA809A80A880DA80E280CA8033EA
:100D7E0089828A83ECFAE493A3C8C582C8CCC58362
:100D8E00CCF0A3C8C582C8CCC583CCDFE9DEE78032
:100D9E000D89828A83E493A3F608DFF9ECFAA9F0B1
:100DAE00EDFB2289828A83ECFAE0A3C8C582C8CC07
:100DBE00C583CCF0A3C8C582C8CCC583CCDFEADE20
:100DCE00E880DB89828A83E493A3F208DFF980CC82
:100DDE0088F0EF60010E4E60C388F0ED2402B4047B
:100DEE000050B9F582EB2402B4040050AF23234522
:060DFE008223900D5E73DC
:100E0400BB010689828A83E0225002E722BBFE02EC
:090E1400E32289828A83E493221F
:100E1D00BB010CE58229F582E5833AF583E022508A
:100E2D0006E92582F8E622BBFE06E92582F8E222D4
:0D0E3D00E58229F582E5833AF583E49322EE
:100E4A00BB010689828A83F0225002F722BBFE0187
:020E5A00F32281
:100E5C00F8BB010DE58229F582E5833AF583E8F0CC
:100E6C00225006E92582C8F622BBFE05E92582C878
:020E7C00F22260
:100E7E00EF8DF0A4A8F0CF8CF0A428CE8DF0A42E88
:020E8E00FE2242
:100E9000BC000BBE0029EF8DF084FFADF022E4CC46
:100EA000F875F008EF2FFFEE33FEEC33FCEE9DEC0F
:100EB000984005FCEE9DFE0FD5F0E9E4CEFD22ED55
:100EC000F8F5F0EE8420D21CFEADF075F008EF2F9F
:100ED000FFED33FD4007985006D5F0F222C398FD90
:050EE0000FD5F0EA222D
:100EE500C2D5EC30E709B2D5E4C39DFDE49CFCEE28
:100EF50030E715B2D5E4C39FFFE49EFE120E90C302
:100F0500E49DFDE49CFC8003120E9030D507C3E4FC
:060F15009FFFE49EFE2296
:100F1B00A3F8E0C5F025F0F0E58215827002158389
:060F2B00E0C838F0E822E6
:00000001FF
