:030000000218F6ED
:0C18F600787FE4F6D8FD75810702193DEB
:101EBA000000000000000000000000000000000018
:101C440042007100006023004E00080010A7625B90
:101C5400F80322F80047B610181D1CC700B2EA2A80
:0C1C64000011598135090B0606050AFF26
:101D8900E4FDFCC3ED9FEC9E50070DBD00010C80E6
:101D9900F2E4FCFDC3ED9FEC9E50070DBD00010C64
:021DA90080F2C6
:011DAB002215
:101E1000000000000000000000000000000000EFD3
:091E20001F70011E144E70E8222F
:071F0800C290C282D29022B8
:0A1EE500121F087F887E13021D897A
:101D1000E4FEC282FDEF30E704D2928002C292EF6D
:101D200025E0FFD2820000EE25E0FE3091010EC2D8
:0A1D30008200000DEDB408DDAF06DF
:011D3A002286
:101EAA00C2902091FD7F30121D102091FDD2902208
:101DF200D2907F017E00121E10C2907F017E0012DF
:0E1E02001E10D2907F297E00121E10021EAA12
:041E5A00E0FD7F0C1C
:101E5E00AC05C2902091FD121D10AF04121D10D2C0
:021E6E009022C0
:0B1BC500900042EBF0A3EAF0A3E9F06F
:101BD000EF4440FFC2902091FD121D10E4FC9000E4
:101BE00045E0FFECC39F501A900042E0FBA3E0FAEF
:101BF000A3E0F98C82758300120D8AFF121D100C70
:041C000080DCD29022
:011C040022BD
:0B1EDA00C2902091FD121D10D290223A
:101E7000EF4480FFC2902091FD121D10E4FF121D5F
:031E800010D290ED
:011E8300223C
:0B1B830090004AEBF0A3EAF0A3E9F0A9
:101B8E00EF44C0FFC2902091FD121D10E4FC9000A6
:101B9E004DE0FFECC39F501CE4FF121D1090004A55
:101BAE00E0FBA3E0FAA3E0F98C82758300EF120D3F
:061BBE00C90C80DAD29090
:011BC40022FE
:101E8400EF44C0FFC2902091FD121D10E4FF121D0B
:031E940010D290D9
:011E97002228
:1011030090004E121E5AA3E0FD7F0B121E5EA31227
:101113001E5AA3E0FD7F0D121E5EA3E0FD7F0E129B
:101123001E5EA3E0FD7F0F121E5EA3E0FD7F101283
:101133001E5EA3E0FD7F11121E5EA3E0FD7F12126F
:101143001E5EA3E0FD7F13121E5EA3E0FD7F14125B
:101153001E5EA3E0FD7F0A121E5EA3E0FD7F151253
:101163001E5EA3E0FD7F21121E5EA3E0FD7F22121F
:101173001E5EA3E0FD7F18121E5EA3E0FD7F191221
:101183001E5EA3E0FD7F1A121E5EA3E0FD7F1B120D
:101193001E5EA3E0FD7F1C121E5EA3E0FD7F1D12F9
:1011A3001E5EA3E0FD7F23121E5EA3E0FD7F2412DB
:1011B3001E5EA3E0FD7F25121E5EA3E0FD7F2612C7
:1011C3001E5EA3E0FD7F29121E5EA3E0FD7F2C12AD
:1011D3001E5EA3E0FD7F2D121E5EA3E0FD7F2E1297
:1011E3001E5EA3E0FDE4FF121E5EA3E0FD7F02127C
:1011F3001E5EA3E0FD7F07121E5EA3E0FD7F0812C3
:101203001E5EA3E0FD7F09121E5EA3E0FD7F0602C2
:021213001E5E5D
:101D3B00900040EDF07F3F121E5EE0900045F07F7B
:101D4B003F121BC57F36121EDA7F35121EDA308426
:091D5B00FD2084FD7F3B021EDA2D
:051F0F007F34021EDA20
:0B131400900040EBF0A3EAF0A3E9F02A
:10131F00A3E0FBA3E0FAA3E0F9120D7175F014A49A
:10132F00FB7F34121EDA7F027E00121D893084117A
:10133F007F027E00121D891BEBC3940150EF7FFFCC
:10134F00227F3B121E84EF547F70030213EE7F3F08
:10135F00121E70900048EFF0900043E0FBA3E0FAFC
:10136F00A3E0F9120D71FEEFD39E5057900040E0AD
:10137F00FBA3E0FAA3E0F9900048E090004DF07F66
:10138F003F121B83900048E0FF900043E0FBA3E077
:10139F00FAA3E0F9EF120DB77B017A0079469000BE
:1013AF004D7402F07F3F121B837F3A121EDA9000BA
:1013BF0046E09000A2F0900047E030E7037F012263
:1013CF007F0022900048E0FF900043E0FBA3E0FA8B
:1013DF00A3E0F9EF120DB77F3A121EDA7F00227FDA
:0113EF0000FD
:0113F00022DA
:101DAC007F34121E84EFC39480EF400B2401FFE4B8
:101DBC0034FFC313EF8001C31324B6FCECFF33953F
:021DCC00E0FE37
:011DCE0022F2
:0E14CA00900073EBF0A3EAF0A3E9F0A3EDF0BD
:1014D80078787C007D017BFF7A1E79BA7E007F08D0
:1014E800120D4B9000807408F0A37403F043890137
:1014F800758C8A758AD0C28D900077E0FF90007352
:10150800E0FBA3E0FAA3E0F9EF120DB77F09121E82
:1015180084900073E0FBA3E0FAA3E0F9900002EFE7
:10152800120DC9900076E0FD121D3BD28C9000810F
:10153800E060559000437401F0A37400F0A3748038
:10154800F07B017A007978121314EF600990007922
:10155800E070037F0122308DD4900072E004F070B7
:1015680006900071E004F0900081E014F0900073A0
:10157800E0FBA3E0FAA3E0F9A3E0FD121D3B758CA4
:0A1588008A758AD0C28D80A57F000D
:011592002236
:0B186800900082EBF0A3EAF0A3E9F08F
:1018730078887C007D017BFF7A1E79C27E007F0819
:10188300120D4B9000907403F0900085E0F9A3E0F3
:10189300FAA3E0900043C9F0A3EAF0A3E9F09000B3
:1018A30082E0FBA3E0FAA3E0F9121314EF60419086
:1018B3000082E0FBA3E0FAA3E0F9900002120D8A94
:1018C300900088F0E4A3F07F09121E84A3EFF09048
:1018D3000082E0FBA3E0FAA3E0F9120D71600E7B36
:1018E300017A007988900090E0FD121D3B7F012270
:0218F3007F0074
:0118F50022D0
:1000030000000000000000000000004F000000009E
:1000130000000708101010080700F0080404040883
:10002300F00008181F00000000000404FC04040092
:1000330000000E101010110E00001C3464C4840C58
:1000430000000C101010110E0000180404848870B6
:100053000000010204081F000000E0202424FC2407
:1000630020001F101111111000008884040408F0EF
:1000730000000708111111110800F0880404040896
:10008300F00018101010111C1000000000FC0000FC
:1000930000000E111010110E0000384484844438FF
:1000A30000000708101008070000008C444488F083
:1000B300000000031C07000000043CC44040E41C93
:1000C30004101F1111110E000004FC0404048870B5
:1000D30000030C101010101C00E018040404081096
:1000E30000101F10101008070004FC04040408F09B
:1000F30000101F11111710080004FC0404C4041895
:1001030000101F11111710080004FC0400C00000A8
:100113000000000003030000000000000C0C0000BE
:10012300000000000101111F00007088040408FC96
:1001330004101F1111110E000004FC040404887044
:10014300000000000000000000000C0C0000000094
:10015300000000000F00000000808080F880808095
:10016300000000000000000000008080808080808C
:1001730080000000000000000002024242424242AE
:100183007F4242424242020200010102040830C09F
:1001930000C0300804020101000806403003082AA9
:1001A3002A2AFF2A2A3E08080020203EC0000848C9
:1001B3004848FF48484808000004040404040404B1
:1001C300FF0404040404040400010102040830C011
:1001D30000C030080402010100020C886909098982
:1001E3006909091928C80A0C00202020202022218F
:1001F3007E60A020202020200002423300004744DC
:1002030054544F5464440700000102FC0201FF915F
:100213009191FD919593FD01000001061FE00020DF
:100223002424A4642424242000800000FF00000070
:100233009F92929292929F00000001061FE000207D
:100243002424A4642424242000800000FF00000050
:100253009F92929292929F00000101017D45454534
:10026300454545457D0101010000000060A02020B7
:10027300202221223C00000000404744447C00012E
:100283007949494F494979010000C241427C02E260
:10029300222222FE22222AE70000003F2424243FB8
:1002A300A464243F2424242000020CF1012132AA57
:1002B300A4A4A4AA3201010100007F40484949498E
:1002C3004F49494948407F000000FF0212121212B1
:1002D300F21252321202FF000002040B32C2221346
:1002E3000804001F0000FF00000000FC022212E2CD
:1002F300020E00F00201FE000000000007000000F3
:10030300FF00000004020100001020C000000201F1
:10031300FE0000000000807000040C35C60C0000D5
:100323007F444444447F00000044E64448480202BA
:10033300FE42424242FE02020000000000000000B2
:1003430000000000000000000000000000000000AA
:10035300000000000000000000000000000000009A
:10036300000000000000000000000000000000008A
:10037300000000000000000000000000000000007A
:1005C3000000000000000000000004040404040410
:1005D30004040707040404040404040C1C0C0400AE
:1005E30000000000000002020202020202020202F4
:1005F3000202FFFF020302020202020202060E06C9
:1006030002000000000000000000000000000103E1
:100613000E7CF00000C0300C070100000000000059
:100623000000000000000202040C08102060C080DB
:1006330000000000000000000080C06070381C1C37
:10064300080808000000000020180E060000000241
:1006530002020202023F3F020202020203070200F9
:1006630000000000008060381C0000031CE0202113
:100673002121212121FFFF2121212121FFFF2020F1
:100683006020000000000202030F3CC001011111B1
:100693001111111111FFFF1111111111113131112B
:1006A3000301000000000000FCFC0000000000004B
:1006B3000000000000FEFE0000000000000000003B
:1006C3000000000000000000000000000000000027
:1006D3000000003F1F0000000000000000000000B9
:1006E3000000000000000010101010101010101077
:1006F300101017FFFE1110101010101010102060B2
:100703006020000000000000000000000000000165
:10071300073EF8C000C0701C060301000000000083
:100723000000000000000202040408183060C080CA
:1007330000000000000000000080C0E07038381C9A
:100743001808000000000000000000180E07030056
:1007530000201C0F0700000000030E3C18000000DF
:1007630000000000000000063E3C202121A1A12141
:10077300212121A121212121E1A323212024287842
:1007830070200000000004040404040404040404AE
:100793000404043F1F2424448484040404040C1C20
:1007A3000C0400000000000000000000000000082E
:1007B300080C0EFCFC00000000000000000000001C
:1007C300000000000002030202020202020202030E
:1007D3000702000000033F1C10000000000000009F
:1007E3000000000000000020100C060301073EF08B
:1007F3008000010638E0C0405F4F484040445870D5
:10080300E04000000000000000030EB8E0F03C1FD1
:10081300070100000001077CF000F80F0100000051
:1008230000000000001020408000000000020204CD
:10083300C808102060C0000000000000C070381C11
:100843000C08000000000000100C0F07000000005F
:10085300070304040808181003010101010101073B
:10086300020000000000040404040F0F0000000055
:10087300FFFF000000000000FFFF0000000000FF7A
:1008830000000000000000000000FFFF0000000067
:10089300FCFC183020204000FFFF000008080CFC7F
:1008A3000000000000207060C08000008040203005
:1008B3001010181818181818D89818181818181885
:1008C30018100000000000000000030F3C1000009F
:1008D3000001073D19110101010101010101030398
:1008E300010000000004081060C0FFFF000010209A
:1008F30041861E0C0800007F3F00080426C38100C8
:1009030000000000000000000000F3F00000478733
:1009130000004826273370F0800000000202C1C0A7
:10092300000000000000001030F080000000FCFC1C
:10093300040404048484040404049C7C080080E00C
:10094300F0000000000000000000000000030301AD
:100953000000000000000000000000000000000094
:1009630000000000000000000000000000FFFFE0A6
:100973000000000000000000000000000000000074
:100983000000000000000000000000000183F303EA
:100993000000000000000000000000000000000054
:1009A30000000000000000000000000080C0C080C4
:1009B3000000000000000000000000000000000034
:0509C30000000000002F
:081EEF007F207EFFDEFEDFFA1A
:011EF70022C8
:101DCF00121DE1121DE1121DE1121DE1121DE112A2
:021DDF001DE104
:101DE1007FFF7EFF0000000000000000DEF6DFF252
:011DF10022CF
:101C0500C2B5121EEFD2B5121EEF7FA3121E4C7F76
:101C1500A0121E4C7FAF121E4C7F2F121E4C7F232D
:101C2500121E4C7F81121E4C7F28121E4C7FC01243
:0F1C35001E4C7FAF121E4C7F40121E4C0000222F
:0A1E42009000C1E0C4540F2410FF0B
:0E1E4C00C2B600C2B400121D640000D2B6225D
:101CE3009000BFE075F080A42FF582E435F0F58312
:0F1CF300E58224C7F582E5833405F583E493FF8A
:0E1D0200C2B600D2B400121D640000D2B62298
:101D6400C2B37D087C00C2B30000EF54806004D28B
:101D7400B28002C2B2D2B3EF25E0FFED1D70011CA8
:041D8400ED4C70E2D0
:011D88002238
:0B1AD1009000AFEFF0A3EDF0A3EBF0EE
:101ADC007FAF121E4C9000B0E024B0FF121E4C9051
:101AEC0000B1121E459000B1E0540FFF121E4CE4E1
:101AFC009000B2F09000B2E0FFC394085025900023
:101B0C00AFE075F008A42FF582E435F0F583E5829B
:101B1C002403F582E5833400121CFD9000B2E0042E
:031B2C00F080D175
:011B2F002293
:0B17BA009000B3EFF0A3EDF0A3EBF004
:1017C5007FAF121E4C9000B4E024B0FF121E4C9067
:1017D50000B5121E459000B5E0540FFF121E4CE4F3
:1017E5009000B6F09000B6E0FFC39410502590002D
:1017F500B3E075F020A42FF582E435F0F583E5829A
:101805002413F582E5833400121CFD9000B6E00434
:10181500F080D19000B4E024AFFF121E4C9000B5CB
:10182500121E459000B5E0540FFF121E4C9000B6F5
:101835007410F09000B6E0FFC3942050259000B3DB
:10184500E075F020A42FF582E435F0F583E58224D8
:1018550013F582E5833400121CFD9000B6E004F018
:0218650080D130
:01186700225E
:08165000A3E0FDA3E0FB7F1401
:0B1658009000B7EFF0A3EDF0A3EBF063
:101663007FAF121E4C9000B8E024B0FF121E4C90C6
:1016730000B9121E459000B9E0540FFF121E4C90A2
:1016830000BA7408F09000BAE0FFD39400402590AC
:1016930000B7E075F010A42FF582E435F0F583E58B
:1016A300822413F582E5833400121CFD9000BAE016
:1016B30014F080D19000B8E024AFFF121E4C9000CC
:1016C300B9121E459000B9E0540FFF121E4C900052
:1016D300BA7410F09000BAE0FFD39408402590004C
:1016E300B7E075F010A42FF582E435F0F583E582B9
:1016F3002413F582E5833400121CFD9000BAE01434
:03170300F080D1A2
:0117060022C0
:041707007B707F0F65
:0B170B009000BBEFF0A3EDF0A3EBF0AB
:101716007FAF121E4C9000BCE024B0FF121E4C900E
:1017260000BD121E459000BDE0540FFF121E4C90E6
:1017360000BE7410F09000BEE0FFD39400402590E8
:1017460000BBE075F020A42FF582E435F0F583E5C3
:1017560082247BF582E5833401121CFD9000BEE0F5
:1017660014F080D19000BCE024AFFF121E4C900014
:10177600BD121E459000BDE0540FFF121E4C900096
:10178600BE7420F09000BEE0FFD394104025900078
:10179600BBE075F020A42FF582E435F0F583E582F1
:1017A600247BF582E5833401121CFD9000BEE01413
:0317B600F080D1EF
:0117B900220D
:0B13F1009000BFEFF0A3EDF0A3EBF0C5
:1013FC007FAF121E4C9000C0E024B0FF121E4C12A6
:10140C001E429000C1E0540FFF121E4C9000C2749B
:10141C0020F09000C2E0FFD39400400B121CE3902C
:10142C0000C2E014F080EB9000C0E024AFFF121E6D
:10143C004C121E429000C1E0540FFF121E4C900043
:10144C00C27440F09000C2E0FFD39420400B121CF9
:10145C00E39000C2E014F080EB9000C0E024AEFFFB
:10146C00121E4C121E429000C1E0540FFF121E4C73
:10147C009000C27460F09000C2E0FFD39440400B27
:10148C00121CE39000C2E014F080EB9000C0E0244A
:10149C00ADFF121E4C121E429000C1E0540FFF1201
:1014AC001E4C9000C27480F09000C2E0FFD3946098
:0D14BC00400B121CE39000C2E014F080EB26
:0114C9002200
:0B1B30009000C3EFF0A3EDF0A3EBF07A
:101B3B007FAF121E4C9000C4E024B0FF121E4C90DD
:101B4B0000C5121E459000C5E0540FFF121E4CE459
:101B5B00FF0FEFB410FB9000C4E024B1FF121E4C3A
:101B6B009000C5121E459000C5E0540FFF121E4C8D
:071B7B007F100FEFB420FB07
:011B82002240
:081A6900900040EFF0A3EDF046
:101A710090004474B0F0900044E0FFC394B9504B1F
:101A8100121E4C7F10121E4CE4FF121E4CE49000FB
:101A910042F0A3F0900040E0FF121D02900041E0EF
:101AA100FF121D02900043E004F07006900042E036
:101AB10004F0C3900043E09440900042E0648094BD
:101AC1008040D1900044E004F080AB7FAF021E4C17
:0B19F6009000A3EBF0A3EAF0A3E9F0DF
:101A01007FAF121E4C9000A874B0F09000A8E0FFC8
:101A1100C394B85052121E4C7F10121E4CE4FF1298
:101A21001E4CE49000A6F0A3F09000A3E0FBA3E419
:101A310075F001120E88A9F0FA120D71FF121D0244
:101A41009000A7E004F070069000A6E004F0C390B7
:101A510000A7E094809000A6E06480948040CA9042
:071A610000A8E004F080A4DE
:011A6800225B
:100FEB007D071217077B607D077F0F12170B7B5056
:100FFB007D077F0F12170B7B407D077F0F12170B9F
:10100B007B307D077F0F12170B7B207D077F0F1225
:10101B00170B7B107D077F0F12170BE4FB7D077FF0
:10102B000F12170B7B707D057F0F12170B7B607DEB
:10103B00057F0F12170B7B507D057F0F12170B7B54
:10104B00407D057F0F12170B7B307D057F0F12172D
:10105B000B7B207D057F0F12170B7B107D057F0F00
:10106B0012170BE4FB7D057F0F12170B7D03121775
:10107B00077B607D037F0F12170B7B507D037F0F68
:10108B0012170B7B407D037F0F12170B7B307D03F9
:10109B007F0F12170B7B207D037F0F12170B7B101B
:1010AB007D037F0F12170BE4FB7D037F0F12170BD2
:1010BB007B707D017F0F12170B7B607D017F0F1201
:1010CB00170B7B507D017F0F12170B7B407D017F30
:1010DB000F12170B7B307D017F0F12170B7B207DBF
:1010EB00017F0F12170B7B107D017F0F12170BE483
:0810FB00FB7D017F0F02170BC2
:101215007B607D07E4FF1213F1121DDB7B407D0728
:101225007F011213F1121DDB7B207D077F02121354
:10123500F1121DDBE4FB7D077F031213F1121DDBA9
:101245007B607D037F041213F1121DDB7B407D0360
:101255007F051213F1121DDB7B207D037F06121320
:10126500F1121DDBE4FB7D037F071213F1121DCF85
:10127500120FEB121DCF7B607D06E4FF12170B7B6F
:10128500507D067F0112170B7B407D067F021217EA
:101295000B7B307D067F0312170B7B207D067F04B9
:1012A50012170B7B107D067F0512170B7B707D03D4
:1012B5007F0612170B7B607D037F0712170B7B5090
:1012C5007D037F0812170B7B407D037F0912170BE7
:1012D5007B387D037F101216587B087D037F111222
:1012E50016587B017D037F121216587B507D017FB6
:1012F5000A12170B7B407D017F0B12170B7B307D8C
:0F130500017F0C12170B7B207D017F0D02170B50
:101593009000ABEDF0A3EBF09000A9EEF0A3EFF019
:1015A300C3EE64809480400512165080229000ABF5
:1015B300E0FDA3E0FB7F151216589000A9E0FEA3FF
:1015C300E0FFC3E49FFFE49E9000A9F0A3EFF09037
:1015D30000A9E0FEA3E0FF7C007D64120E52AB077E
:1015E300EB75F064A4FFC3E09FFF9000A9E095F0C2
:1015F300FE7C007D0A120E529000ADEFF09000A920
:10160300A3E0FEEB75F064A4FDC3EE9DFEEF75F061
:101613000AA4FFC3EE9F9000AEF0AF039000ABE0CF
:10162300FDA3E024F8FB1216589000ADE0FF9000F4
:10163300ABE0FDA3E024F0FB1216589000AEE0FFF0
:0D1643009000ABE0FDA3E024E8FB02165888
:100E9E00900093EDF0A3EBF0900091EEF0A3EFF045
:100EAE00C3EE648094804005121650802290009309
:100EBE00E0FDA3E0FB7F15121658900091E0FEA313
:100ECE00E0FFC3E49FFFE49E900091F0A3EFF0904B
:100EDE000091E0FEA3E0FF7C277D10120E529000E1
:100EEE0095EFF07E007C277D10120DEBAA06AB0766
:100EFE00C3900092E09BFF900091E09AFE7C037DF0
:100F0E00E8120DFDA907900096E9F0C3900092E05B
:100F1E009BFB900091E09AFA7E007C037DE8120D17
:100F2E00EBC3EB9FFBEA9EFA7C007D64AF03FE12DF
:100F3E000DFD900097EFF0E075F064A4FFC3EB9FFA
:100F4E00FFEA95F0FE7C007D0A120DFDA3EFF0FE88
:100F5E00900091A3E0FD900095E0FBC454F0FCC31B
:100F6E00ED9CFDA3E075F0E8A4FCC3ED9CFDA3E0B1
:100F7E0075F064A4FCC3ED9CFDEE75F00AA4FEC3EF
:100F8E00ED9E900099F0AF03900093E0FDA3E02456
:100F9E00F8FB121658900096E0FF900093E0FDA328
:100FAE00E024F0FB121658900097E0FF900093E0BB
:100FBE00FDA3E024E8FB121658900098E0FF900085
:100FCE0093E0FDA3E024E0FB121658900099E0FF99
:0D0FDE00900093E0FDA3E024D8FB0216581C
:101C7C000000000000000000000000000000000058
:101C8C000000000000000000000000000000000048
:101C9C000000000000000000000000000000000038
:041CAC000000000034
:0B1C700048009AC0C0C0C0C0C0C0C087
:1009C800E4900000F0A3F0900003F0A3F0A3F07807
:1009D800067C007D017BFF7A1C797CFE7F09120D65
:1009E8004BE490000FF078117C007D017BFF7A1CAE
:1009F8007985FE7F0F120D4B78207C007D017BFFEF
:100A08007A1C79947E007F0F120D4B782F7C007D25
:100A1800017BFF7A1C79A37E007F0D120D4BE490B9
:100A2800003CF0A3F0A3F0A3F0D2B7C2C0C2C31237
:100A38001E98C295121C05121DE1121DE1121DE13E
:100A4800E4FDFF121A69121DE1121DE1121DE112E7
:100A58001DE1121DE1121DE1D295121EE5121DF2D3
:100A68001211037B017A00799A9000457408F07F8F
:100A78003E121BC5D2C0D2B7D2C0D2C390004374B5
:100A880001F0A37400F0A37410F07B017A007920C0
:100A9800121314EF7003020B9BB2C39000A2E090F4
:100AA8000002F0900005E0FF900025E0FEB5072A5F
:100AB800900020E0FD6015900023E02404F582E416
:100AC8003400F583E064017003020B99ED700B901C
:100AD800000EE064017003020B99900024E070039B
:100AE800020B99EE6F6029A3E0900005F0E49000F6
:100AF8000FF090000FE0FFC39409501474062FF50F
:100B080082E43400F583E4F090000FE004F080E222
:100B1800900020E0FF7005A3E0F46075900022E0EB
:100B28006409706DEF640A7068900021E0F47061E8
:100B3800900023E0FF121EF8900024E0FF121EF838
:100B4800900025E0FF121EF8900000E070337FFF50
:100B5800121EF8900026E0FF121EF8900027E0FF12
:100B6800121EF8900028E0FF121EF8900029E0FFFE
:100B7800121EF890002AE0FF121EF890000074017F
:100B8800F0900023E02404F582E43400F583740136
:100B9800F0B2C3209803020A84E4900000F0E599BB
:100BA800F46017A3E0242FF582E43400F583E59977
:100BB800F0900001E004F0020C76E4900001F0C22D
:100BC8009890002FE0FF900012F0900005E0FE9052
:100BD8000016F0900030E0900014F0900031E090A2
:100BE8000015F0900032E0900017F0900033E0908C
:100BF8000018F0900012EFF0900016EEF09000341C
:100C0800E0900014F0900035E0900015F090003668
:100C1800E0900017F0900037E0900018F0B2C09014
:100C280000117409F090001304F07B017A00791127
:100C38007D0B121D3BB2C090002FE0900012F09087
:100C48000005E02402900016F0900038E0900014AF
:100C5800F0900039E0900015F090003AE09000170D
:100C6800F090003BE0900018F0E4900001F0C2988A
:030C7800020A84E9
:101E9800759850438920758DFF758BFF758780D2A3
:021EA8008E2288
:081EF8008F993099FDC2992277
:101CB0009000C6EBF0A3EAF0A3E9F09000C6E0FBC9
:101CC000A3E0FAA3E0F9120D7160179000C6A3E437
:101CD00075F001120E88A9F0FA120D71FF121EF8AC
:031CE00080D92286
:04198200AB07AA06FF
:10198600D3EB9400EA6480948040047F2B8009C3E3
:10199600E49BFBE49AFA7F2D121EF87C007D64AF6F
:1019A60003AE02120E529000C9EFF0E075F064A487
:1019B600FFC3EB9FFFEA95F0FE7C007D0A120E52F4
:1019C600AE07AD03AF05E0FD75F064A4FCC3EF9C64
:1019D600FFEE75F00AA4FCC3EF9CFCED2430FF1269
:1019E6001EF8EE2430FF121EF8EC2430FF021EF81B
:071F00003098FDAF99C29873
:011F070022B7
:0F1ECA007F017E000FBF00010EBE06F8BF18F5A6
:011ED90022E6
:041E2900AD07AC064F
:101E2D00E4FBFAC3EB9DEA9C500A121ECA0BBB00E1
:041E3D00010A80EF27
:011E4100227E
:101902000209C8E493A3F8E493A34003F68001F22A
:1019120008DFF48029E493A3F85407240CC8C333E6
:10192200C4540F4420C8834004F456800146F6DFB5
:10193200E4800B0102040810204080901C44E47EE5
:10194200019360BCA3FF543F30E509541FFEE493AA
:10195200A360010ECF54C025E060A840B8E493A371
:10196200FAE493A3F8E493A3C8C582C8CAC583CA9C
:10197200F0A3C8C582C8CAC583CADFE9DEE780BE54
:011C7B000068
:100C7B00E709F608DFFA8046E709F208DFFA803E5B
:100C8B0088828C83E709F0A3DFFA8032E309F60848
:100C9B00DFFA8078E309F208DFFA807088828C83B0
:100CAB00E309F0A3DFFA806489828A83E0A3F60864
:100CBB00DFFA805889828A83E0A3F208DFFA804C3E
:100CCB0080D280FA80C680D4806980F28033801015
:100CDB0080A680EA809A80A880DA80E280CA80337E
:100CEB0089828A83ECFAE493A3C8C582C8CCC583F6
:100CFB00CCF0A3C8C582C8CCC583CCDFE9DEE780C6
:100D0B000D89828A83E493A3F608DFF9ECFAA9F044
:100D1B00EDFB2289828A83ECFAE0A3C8C582C8CC9A
:100D2B00C583CCF0A3C8C582C8CCC583CCDFEADEB3
:100D3B00E880DB89828A83E493A3F208DFF980CC15
:100D4B0088F0EF60010E4E60C388F0ED2402B4040E
:100D5B000050B9F582EB2402B4040050AF232345B5
:060D6B008223900CCB7303
:100D7100BB010689828A83E0225002E722BBFE0280
:090D8100E32289828A83E49322B3
:100D8A00BB010CE58229F582E5833AF583E022501E
:100D9A0006E92582F8E622BBFE06E92582F8E22268
:0D0DAA00E58229F582E5833AF583E4932282
:100DB700BB010689828A83F0225002F722BBFE011B
:020DC700F32215
:100DC900F8BB010DE58229F582E5833AF583E8F060
:100DD900225006E92582C8F622BBFE05E92582C80C
:020DE900F222F4
:100DEB00EF8DF0A4A8F0CF8CF0A428CE8DF0A42E1C
:020DFB00FE22D6
:100DFD00BC000BBE0029EF8DF084FFADF022E4CCDA
:100E0D00F875F008EF2FFFEE33FEEC33FCEE9DECA2
:100E1D00984005FCEE9DFE0FD5F0E9E4CEFD22EDE8
:100E2D00F8F5F0EE8420D21CFEADF075F008EF2F32
:100E3D00FFED33FD4007985006D5F0F222C398FD23
:050E4D000FD5F0EA22C0
:100E5200C2D5EC30E709B2D5E4C39DFDE49CFCEEBB
:100E620030E715B2D5E4C39FFFE49EFE120DFDC329
:100E7200E49DFDE49CFC8003120DFD30D507C3E424
:060E82009FFFE49EFE222A
:100E8800A3F8E0C5F025F0F0E5821582700215831D
:060E9800E0C838F0E8227A
:00000001FF
