:030000000216D213
:0C16D200787FE4F6D8FD75816A021719D4
:101EEA0000000000000000000000000000000000E8
:101AB000022B000020230800080010A7625BF80337
:101AC00022F80047B610181D1CC700B2EA2A001100
:0A1AD000598135090B06060501FFD8
:101D8F00E4FDFCC3ED9FEC9E50070DBD00010C80E0
:101D9F00F2E4FCFDC3ED9FEC9E50070DBD00010C5E
:021DAF0080F2C0
:011DB100220F
:101E2F00000000000000000000000000000000EFB4
:091E3F001F70011E144E70E82210
:071F6400C290C282D290225C
:0A1F4100121F647F887E13021D8FBB
:101CF700E4FEC282FDEF30E704D2928002C292EF87
:101D070025E0FFD2820000EE25E0FE3091010EC2F1
:091D17008200000DBD08DEAF06DC
:011D200022A0
:101EDA00C2902091FD7F30121CF72091FDD29022F2
:101DF500D2907F017E00121E2FC2907F017E0012BD
:0E1E05001E2FD2907F297E00121E2F021EDAA1
:101EB700AC05C2902091FD121CF7AF04121CF7D29B
:021EC700902267
:061C3F008B3B8A3C893D4D
:101C4500EF4440FFC2902091FD121CF7E4FCECC369
:101C5500953E5015AB3BAA3CA93D8C82758300127D
:0B1C65001131FF121CF70C80E5D2903B
:011C70002251
:0B1F3600C2902091FD121CF7D29022F7
:101E8F00EF4480FFC2902091FD121CF7E4FF121C5B
:031E9F00F7D290E7
:011EA200221D
:061C0B008B438A44894569
:101C1100EF44C0FFC2902091FD121CF7E4FCECC31D
:101C210095465017E4FF121CF7AB43AA44A9458C13
:0D1C310082758300EF1211700C80E3D290D9
:011C3E002283
:101EA300EF44C0FFC2902091FD121CF7E4FF121C07
:031EB300F7D290D3
:011EB6002209
:1014A300AD087F0C121EB7AD097F0B121EB7AD0A34
:1014B3007F0C121EB7AD0B7F0D121EB7AD0C7F0E46
:1014C300121EB7AD0D7F0F121EB7AD0E7F10121E89
:1014D300B7AD0F7F11121EB7AD107F12121EB7AD3D
:1014E300117F13121EB7AD127F14121EB7AD137FF7
:1014F3000A121EB7AD147F15121EB7AD157F211248
:101503001EB7AD167F22121EB7AD177F18121EB776
:10151300AD187F19121EB7AD197F1A121EB7AD1A77
:101523007F1B121EB7AD1B7F1C121EB7AD1C7F1D88
:10153300121EB7AD1D7F23121EB7AD1E7F24121ED0
:10154300B7AD1F7F25121EB7AD207F26121EB7AD84
:10155300217F29121EB7AD227F2C121EB7AD237F28
:101563002D121EB7AD247F2E121EB7AD25E4FF1238
:101573001EB7AD267F02121EB7AD277F07121EB717
:10158300AD287F08121EB7AD297F09121EB7AD2AF9
:051593007F06021EB7F7
:101D6B008D397F3F121EB785393E7F3F121C3F7F57
:101D7B0036121F367F35121F363084FD2084FD7FCF
:041D8B003B021F36C2
:051F72007F34021F3660
:061598008B398A3A893B01
:10159E00AB3CAA3DA93E12111875F014A4FB7F3482
:1015AE00121F367F027E00121D8F3084117F027E45
:1015BE0000121D8F1BEBC3940150EF7FFF227F3B68
:1015CE00121EA3EF547F60647F3F121E8F8F41ABBC
:1015DE003CAA3DA93E121118FFE541D39F503AABEC
:1015EE0039AA3AA93B8541467F3F121C0BAB3CAA58
:1015FE003DA93EE54112115E7B007A00793F7546AA
:10160E00027F3F121C0B7F3A121F36853F69E54061
:10161E0030E7037F01227F0022AB3CAA3DA93EE5C5
:0E162E004112115E7F3A121F367F00227F00AC
:01163C00228B
:101DB2007F34121EA3EFC39480EF400B2401FFE493
:101DC20034FFC313EF8001C31324B6FCECFF339539
:021DD200E0FE31
:011DD40022EC
:08163D008B478A4889498D4A58
:1016450078197C007D017BFF7A1E79EA7E007F0890
:101655001210F2754C08754D04438901E4F58CF5BB
:101665008AC28DAB47AA48A949E54B12115E7F098D
:10167500121EA3AB47AA48A949900002EF121170A8
:10168500AD4A121D6BD28CE54D603F753C00753D32
:1016950000753E4C7B017A007919121598EF6009A7
:1016A50090001AE070037F0122308DDB052CE52CBC
:1016B5007002052B154DAB47AA48A949AD4A121D25
:0C16C5006BE4F58CF58AC28D80BD7F00BF
:0116D10022F6
:0618DA008B328A338934D1
:1018E00078117C007D017BFF7A1E79F27E007F08F3
:1018F0001210F275380385353C85363D85373EAB91
:1019000032AA33A934121598EF6034AB32AA33A946
:1019100034900002121131900011F0E4A3F07F091D
:10192000121EA3A3EFF0AB32AA33A9341211186030
:101930000B7B017A007911AD38121D6B7F01227F7C
:0119400000A6
:011941002283
:100CF20000000000000000000000004F00000000A3
:100D020000000708101010080700F0080404040887
:100D1200F00008181F00000000000404FC04040096
:100D220000000E101010110E00001C3464C4840C5C
:100D320000000C101010110E0000180404848870BA
:100D42000000010204081F000000E0202424FC240B
:100D520020001F101111111000008884040408F0F3
:100D620000000708111111110800F088040404089A
:100D7200F00018101010111C1000000000FC000000
:100D820000000E111010110E000038448484443803
:100D920000000708101008070000008C444488F087
:100DA200000000031C07000000043CC44040E41C97
:100DB20004101F1111110E000004FC0404048870B9
:100DC20000030C101010101C00E01804040408109A
:100DD20000101F10101008070004FC04040408F09F
:100DE20000101F11111710080004FC0404C4041899
:100DF20000101F11111710080004FC0400C00000AD
:100E02000000000003030000000000000C0C0000C2
:100E12000000380F1010100C000000F008040C083D
:100E220000101F1111110E000004FC04040488704C
:100E3200000000000000000000000C0C0000000098
:100E420000010100010101000004FC84000004FC17
:100E520004101F0C0300101F1004FC0400E018FC17
:100E62000002030100010302001030E0C0E0301074
:100E72000002030000000302000282E61CF0800070
:100E82000000000000000000000000000000000060
:100E92000000000000000000000000000000000050
:100EA2000000000000000000000000000000000040
:100EB2000000000000000000000000000000000030
:100EC2000000000000000000000000000000000020
:100ED2000000000000000000000000000000000010
:100EE2000000000000000000000000000000000000
:100EF20000000000000000000000000000000000F0
:100F020000000000000000000000000000000000DF
:100F12000000000000609090671F30204040404079
:100F22004020780000000000E0F80C0402020202F7
:100F320002040800000002424242437E424342420F
:100F420042020200000102040830C00000FC02025A
:100F520002020E00000001061FE000202424A46407
:100F62002424242000800000FF0000009F9292921F
:100F720092929F00000101017D4545454545454549
:100F82007D0101010000000060A02020202221221A
:100F92003C00000000000242221A0202FE02020A83
:100FA2001263000000000222222222222222222296
:100FB20022FF000000101017947414171010133041
:100FC200D0171010000000FF909291FE0000F00276
:100FD20001FE0000000001061FE0080908886808F9
:100FE200080B080000800000FF0202827A02020E53
:100FF200728202020000E8A8ABAAEAAABEAAEAAA82
:10100200ABA8E80000020202FEAAAAAAAAAAAAAAF9
:10101200FE020202000000000000000000000000CA
:081F4B007F207EFFDEFEDFFABD
:011F5300226B
:101EC9007FFF7EFF0000000000000000DEF6DFF269
:011ED90022E6
:101BCC00C2B5121F4BD2B5121F4B7FA3121E817FC1
:101BDC00A0121E817FAF121E817F2F121E817F23C8
:101BEC00121E817F81121E817F28121E817FC012DE
:0F1BFC001E817FAF121E817F40121E81000022CA
:081E7900E534C4540F2410FFEE
:0E1E8100C2B600C2B400121D210000D2B6226B
:101CA00075F020E55FA42562F582E435F0F583E563
:0E1CB000822402F582E583340DF583E493FF70
:0E1CBE00C2B600D2B400121D210000D2B62220
:101D2100C2B37D087C00C2B30000EF54806004D2CE
:101D3100B28002C2B2D2B3EF25E0FFED1D70011CEB
:041D4100ED4C70E213
:011D4500227B
:0417E6007D077F0FED
:0617EA008F328D338B34B9
:1017F0007FAF121E81E53324B0FF121E81121E79C5
:10180000E534540FFF121E8175351075F020E53256
:10181000A42535F582E435F0F583E58224F6F582DA
:10182000E583340E121CB91535E535D3940050DB31
:10183000E53324AFFF121E81121E79E534540FFFE9
:10184000121E8175352075F020E532A42535F5820C
:10185000E435F0F583E58224F6F582E583340E1253
:0B1860001CB91535E535D3941050DBA2
:01186B00225A
:061AFB008F5B8D5C8B5D2A
:101B01007FAF121E81E55C24B0FF121E81E55D12DC
:101B11001E7BE55D540FFF121E81E4F55E75F00832
:101B2100E55BA4255EF582E435F0F583E58224F2D8
:101B3100F582E583340C121CB9055EE55EC3940899
:021B410040DB87
:011B4300227F
:061A08008F5F8D608B6111
:101A0E007FAF121E81E56024B0FF121E81E56112C8
:101A1E001E7BE561540FFF121E81E4F562121CA0BD
:101A2E000562E562C3941040F4E56024AFFF121E18
:101A3E0081E561121E7BE561540FFF121E817562F6
:0D1A4E0010121CA00562E562C3942040F454
:011A5B002268
:061942008F388D398B3A4D
:101948007FAF121E81E53924B0FF121E81E53A12DD
:101958001E7BE53A540FFF121E81753B0875F01087
:10196800E538A4253B121CA8153BE53BD394005051
:10197800ECE53924AFFF121E81E53A121E7BE53AE9
:10198800540FFF121E81753B1075F010E538A42521
:0D1998003B121CA8153BE53BD3940850EC16
:0119A500221F
:061B8A008F638D648B6582
:101B90007FAF121E81E56424B0FF121E81E565123D
:101BA0001E7BE565540FFF121E81E4FF0FBF10FC82
:101BB000E56424B1FF121E81E565121E7BE56554C4
:0B1BC0000FFF121E817F100FBF20FCE2
:011BCB0022F7
:041B44008F328D331C
:101B48007536B0AF36121E817F10121E81E4FF1267
:101B58001E81E4F534F535AF32121CBEAF33121CCA
:101B6800BE0535E53570020534C39440E53464801C
:101B7800948040E30536E536C394B940C67FAF028A
:021B88001E81BC
:061A5C008B558A568957E4
:101A62007FAF121E81755AB0AF5A121E817F1012BB
:101A72001E81E4FF121E81E4F558F559AB55055756
:101A8200E557AA567002055614F9121118FF121CD6
:101A9200BE0559E55970020558C39480E558648023
:0D1AA200948040D8055AE55AC394B840BB63
:011AAF002214
:1013A3007B701217E67B601217E67B501217E67B01
:1013B300401217E67B301217E67B201217E67B10EC
:1013C3001217E6E4FB1217E67B707D057F0F1217F9
:1013D300EA7B607D057F0F1217EA7B507D057F0F47
:1013E3001217EA7B407D057F0F1217EA7B307D05DC
:1013F3007F0F1217EA7B207D057F0F1217EA7B1000
:101403007D057F0F1217EAE4FB7D057F0F1217EAB4
:101413007B707D037F0F1217EA7B607D037F0F12C2
:1014230017EA7B507D037F0F1217EA7B407D037F12
:101433000F1217EA7B307D037F0F1217EA7B207DA3
:10144300037F0F1217EA7B107D037F0F1217EAE465
:10145300FB7D037F0F1217EA7B707D017F0F12174D
:10146300EA7B607D017F0F1217EA7B507D017F0FBE
:101473001217EA7B407D017F0F1217EA7B307D0153
:101483007F0F1217EA7B207D017F0F1217EA7B1073
:101493007D017F0F1217EAE4FB7D017F0F0217EA3C
:0819A6008E328F338D348B3536
:1019AE007C007D64121192AB07EB75F064A4FFC34B
:1019BE00E5339FFFE53295F0FE7C007D0A12119211
:1019CE008F36EB75F064A4FEC3E5339EFFE53675E6
:1019DE00F00AA4FEC3EF9EF537AF03AB35AD34125C
:1019EE001942E53524F8FBAD34AF36121942E53510
:0A19FE0024F0FBAD34AF37021942AC
:0A1C71007452C39533FB7D077FE832
:101C7B008F388D398B3A7FAF121E81E53924B0FF37
:101C8B00121E81E53A121E7BE53A540FFF121E819C
:051C9B00AF38021CBE81
:1006E9008E328F338C348D3512121DE535640145F8
:1006F900347040D3E5339403E53264809480403309
:10070900E533944BE532648094805027C374529545
:1007190033FBE4FD7FD7121C7BC374519533FBE493
:10072900FD7FFF121C7BC374509533FBE4FD7FD71B
:10073900121C7BE535643845347040D3E5339403A6
:10074900E532648094804033E533944BE53264802C
:1007590094805027C374529533FB7D077FEB121C9D
:100769007BC374519533FB7D077FFF121C7BC374D8
:10077900509533FB7D077FEB121C7BE535643845CB
:10078900347025E53364034532701D121C71C3743E
:10079900519533FB7D077FFF121C7BC37450953342
:1007A900FB7D077FEB121C7BE535643845347027E8
:1007B900E533644B4532701F7450121C73C3745176
:1007C9009533FB7D077FFF121C7BC374529533FB66
:1007D9007D077FEB121C7BE53564014534702FE5FD
:1007E90033640345327027C374529533FBE4FD7FAC
:1007F90017121C7BC374519533FBE4FD7FFF121C58
:100809007BC374509533FBE4FD7FD7121C7BE53520
:1008190064014534702FE533644B45327027C37446
:10082900509533FBE4FD7F17121C7BC3745195333C
:10083900FBE4FD7FFF121C7BC374529533FBE4FD7F
:100849007FD7121C7BE535643845347025E5336460
:10085900024532701D121C71C374519533FB7D071B
:100869007FFC121C7BC374509533FB7D077FEB1211
:100879001C7BE535643845347028E533644C4532D2
:100889007020C37450121C74C374519533FB7D07D7
:100899007FFC121C7BC374529533FB7D077FEB12DF
:1008A9001C7BE53564014534702FE533640245321C
:1008B9007027C374529533FBE4FD7F17121C7BC369
:1008C90074519533FBE4FD7F3F121C7BC374509533
:1008D90033FBE4FD7FD7121C7BE535640145347099
:1008E9002FE533644C45327027C374509533FBE4CC
:1008F900FD7F17121C7BC374519533FBE4FD7F3FC9
:10090900121C7BC374529533FBE4FD7FD7121C7B09
:10091900E53564384534701EE53364014532701697
:10092900121C71C374519533FB7D077FFC121C7B2C
:10093900C37450121C74E53564384534701EE533B0
:10094900644D45327016C37450121C74C3745195AA
:1009590033FB7D077FFC121C7B121C71E53564019A
:100969004534702FE533640145327027C3745295BD
:1009790033FBE4FD7F17121C7BC374519533FBE4F1
:10098900FD7F3F121C7BC374509533FBE4FD7F1739
:10099900121C7BE53564014534702FE533644D4500
:1009A900327027C374509533FBE4FD7F17121C7B0B
:1009B900C374519533FBE4FD7F3F121C7BC3745212
:1009C9009533FBE4FD7F17121C7BE5336401453247
:1009D900600BE533644D45326003020C20E5356454
:1009E9000245347057E5352403FFE43534FE7C00B5
:1009F9007D08121192AD07C374519533FB7F2712FD
:100A09001C7BE5352403FFE43534FE7C007D0812A8
:100A19001192AD07C374529533FB7F27121C7BE5F6
:100A2900352403FFE43534FE7C007D08121192ADB4
:100A390007C374509533FB7F27121C7BE53564038C
:100A490045347057E5352403FFE43534FE7C007DD9
:100A590008121192AD07C374519533FB7F47121CDD
:100A69007BE5352403FFE43534FE7C007D08121153
:100A790092AD07C374529533FB7F47121C7BE53552
:100A89002403FFE43534FE7C007D08121192AD0782
:100A9900C374509533FB7F47121C7BE535640445CD
:100AA900347057E5352403FFE43534FE7C007D08B6
:100AB900121192AD07C374519533FB7F87121C7BCA
:100AC900E5352403FFE43534FE7C007D08121192DC
:100AD900AD07C374529533FB7F87121C7BE5352420
:100AE90003FFE43534FE7C007D08121192AD07C383
:100AF90074509533FB7F87121C7BE535643545348B
:100B09007057E5352403FFE43534FE7C007D081277
:100B19001192AD07C374519533FB7FE1121C7BE53C
:100B2900352403FFE43534FE7C007D08121192ADB3
:100B390007C374529533FB7FE1121C7BE53524030F
:100B4900FFE43534FE7C007D08121192AD07C374B1
:100B5900509533FB7FE1121C7BE5356436453470D3
:100B690057E5352403FFE43534FE7C007D08121176
:100B790092AD07C374519533FB7FE2121C7BE535B7
:100B89002403FFE43534FE7C007D08121192AD0781
:100B9900C374529533FB7FE2121C7BE5352403FFB6
:100BA900E43534FE7C007D08121192AD07C3745000
:100BB9009533FB7FE2121C7BE5356437453470576A
:100BC900E5352403FFE43534FE7C007D08121192DB
:100BD900AD07C374519533FB7FE4121C7BE53524C3
:100BE90003FFE43534FE7C007D08121192AD07C382
:100BF90074529533FB7FE4121C7BE5352403FFE433
:100C09003534FE7C007D08121192AD07C3745095EE
:100C190033FB7FE4121C7BC3E5359405E53464801E
:100C290094805003020CF1D3E5359434E5346480A3
:100C390094804003020CF1E5352403FBE43534FAD2
:100C49007C007D08AF03FE121192AD07C0057C0040
:100C59007D08AF03AE02121192AF057401A807080F
:100C69008002C333D8FCFFC374519533FBD00512FE
:100C79001C7BE5352403FBE43534FA7C007D08AFA1
:100C890003FE121192AD07C0057C007D08AF03AECB
:100C990002121192AF057401A807088002C333D864
:100CA900FCFFC374529533FBD005121C7BE5352438
:100CB90003FBE43534FA7C007D08AF03FE12119280
:100CC900AD07C0057C007D08AF03AE02121192AFDB
:100CD900057401A807088002C333D8FCFFC3745008
:090CE9009533FBD005121C7B229F
:10121D00E4F537E4FBAD377FFF121C7B7B01AD3767
:10122D007FFF121C7B7B02AD377FFF121C7B7B5235
:10123D00AD377FFF121C7B7B53AD377FFF121C7BBD
:10124D007B54AD377FFF121C7B0537E537D39407F1
:10125D0040C17537017B03AD37E4FF121C7B7B0466
:10126D00AD37E4FF121C7B7B05AD37E4FF121C7B11
:10127D007B4FAD37E4FF121C7B7B50AD37E4FF1283
:10128D001C7B7B51AD37E4FF121C7B0537E537D353
:10129D00940640C1753606AB367D077FE3121C7B85
:1012AD00AB36E4FD7FC7121C7B0536E536D3944E75
:1012BD0040E57B03E4FD7F07121C7B7B04E4FD7F8F
:1012CD0007121C7B7B05E4FD7F07121C7B7B4FE423
:1012DD00FD7F07121C7B7B50E4FD7F07121C7B7B7F
:1012ED0051E4FD7F07121C7B7B037D077FE0121C01
:1012FD007B7B047D077FE0121C7B7B057D077FE0F8
:10130D00121C7B7B4F7D077FE0121C7B7B507D0782
:10131D007FE0121C7B7B517D077FE0121C7B7537B4
:10132D00017B06AD377FFF121C7B7B07AD377FFF3F
:10133D00121C7B7B4DAD377FFF121C7B7B4EAD3777
:10134D007FFF121C7B0537E537D3940640D37B41D5
:10135D00E4FD7FCF121C7B7B12E4FD7FCF121C7B43
:10136D007B02E4FD7F7F121C7B7B027D067FFB12DF
:10137D001C7B7B127D077FF3121C7B7B477D077FD8
:10138D00F3121C7B7B527D067FEF121C7B7B527D03
:06139D00027FF7021C7B39
:0E1F28000000000000000000000000000000AB
:0B1ADA00480021C0C0C0C0C0C0C0C098
:10000300E4F52DF52FF530753101900000740AF0F9
:10001300E4A3F078027C007D017BFF7A1F7928FE40
:100023007F061210F278087C007D017BFF7A1F792E
:100033002E7E007F081210F2900010740AF0D2B7DF
:10004300C2C0C2C3C295121BCC121EC9121EC91252
:100053001EC9E4FDFF121B44121EC9121EC9121E43
:10006300C9121EC9121EC9121EC9121F41121DF543
:100073001214A37B017A007921753E087F3E121C7E
:100083003FD2C0D2B7D2C0D2C312121D7B417D046E
:100093007F161219427B417D027F171219427B3969
:1000A3007D047F101219427B397D027F10121942A1
:1000B3007B787D037F151219427B707D037F1512B8
:1000C30019427B687D037F101219427B787D077F7D
:1000D300141219427B717D077F10121942121DD52C
:1000E300438910758D3C758BB0C28FD28E900003FF
:1000F30074FFF0900005F0900010E004F020970AE0
:10010300E075F00384E5F0F0800C900010E0C394F8
:100113000A5003740AF0900010E0900007F0B2C098
:10012300E4900006F07B017A0079027D06121D6BD4
:100133007F087E00121E487B017A0079027D061239
:100143001D6B7F087E00121E487B017A0079027DB9
:1001530006121D6B7F087E00121E487B017A007910
:10016300027D06121D6B7F087E00121E487B017AFA
:100173000079027D06121D6B7F087E00121E487BEC
:10018300017A0079027D06121D6B7F087E00121E24
:10019300487B017A0079027D06121D6B7F087E0081
:1001A300121E487B017A0079027D06121D6B7F08BF
:1001B3007E00121E487B017A0079027D06121D6BB8
:1001C3007F087E00121E4890000674FFF07B017AC0
:1001D3000079027D06121D6B7F067E00121E487B8E
:1001E300017A0079027D06121D6B7F067E00121EC6
:1001F300487B017A0079027D06121D6B7F067E0023
:10020300121E487B017A0079027D06121D6BB2C073
:10021300900010E0FF7E007B677D071219A6E49033
:100223000001F0121DD57FCC121E617F44121E61A6
:10023300121DD57FCC121E617FBE121E61121E13CA
:100243008F4F121E138F4EE54ED3947F400C634F96
:10025300FFE54EF404F54EE4F552E54FC4540FFFA9
:10026300E54EC454F02FF554E54F540FFD75F00AD5
:10027300A4FFE5F0C4F854F0C8EFC4540F48F55098
:10028300ED75F064A4FFE5F0C4F854F0C8EFC4546E
:100293000F4875F00A8485F051E55075F00AA425DE
:1002A30051F553E55475F00A84F52E7B787D01FFF3
:1002B300121942E52E75F00AA4FFC3E5549FF52EEB
:1002C3007B707D01FF1219427B687D017F13121938
:1002D30042E55375F00A84F52E7B657D01FF121903
:1002E30042E52E75F00AA4FFC3E5539FF52E7B5517
:1002F3007D017F011217EA208F0302048B90000116
:10030300E004F0E064146003020483900010E0044E
:10031300F020970AE075F00384E5F0F0800C90007C
:1003230010E0C3940A5003740AF0900010E09000A8
:1003330007F0B2C0052DE52D640270417B3C7D06BC
:10034300FF1217EA7B2C7D06E4FF1217EA7B1C7D64
:1003530006E4FF1217EA7B0C7D06E4FF1217EA7B23
:10036300347D067F021217EA7B247D067F03121772
:10037300EA7B147D067F041217EAE4F52DE490006E
:1003830006F07B017A0079027D06121D6B7F087EE1
:1003930000121E487B017A0079027D06121D6B7FD5
:1003A300087E00121E487B017A0079027D06121D29
:1003B3006B7F087E00121E487B017A0079027D065E
:1003C300121D6B7F087E00121E487B017A007902A2
:1003D3007D06121D6B7F087E00121E487B017A008A
:1003E30079027D06121D6B7F087E00121E487B0179
:1003F3007A0079027D06121D6B7F087E00121E486B
:100403007B017A0079027D06121D6B7F087E001244
:100413001E487B017A0079027D06121D6B7F087EE0
:1004230000121E4890000674FFF07B017A007902E7
:100433007D06121D6B7F067E00121E487B017A002B
:1004430079027D06121D6B7F067E00121E487B011A
:100453007A0079027D06121D6B7F067E00121E480C
:100463007B017A0079027D06121D6BB2C0900010E9
:10047300E0FF7E007B677D071219A6E4900001F080
:10048300758D3C758BB0C28F753501753600753728
:10049300007B017A0079081218DAEF700302022652
:1004A3007B347D06E4FF1217EA7B247D06E4FF120A
:1004B30017EA7B147D06E4FF1217EA7B3C7D067F77
:1004C300051217EA7B2C7D067F061217EA7B1C7D3B
:1004D300067F071217EA7B0C7D067F081217EA9046
:1004E3000010E0FF90000DE0B50712B2C3900009C1
:1004F300E0FF7B5A7D031219420531B2C39000100D
:10050300E02401FFE433FE90000DE06F7001EE6024
:1005130003020226B2C3900009E0FF7B5A7D031257
:10052300194290000BE0FF7E0090000EE0FD7C007E
:100533001206E990000BE075F00A84F52E7B327DFC
:1005430004FF121942E52E75F00AA4FF90000BE098
:10055300C39FF52E7B2A7D04FF1219427B227D0463
:100563007F1312194290000CE075F00A84F52E7B7C
:100573001F7D04FF121942E52E75F00AA4FF9000B7
:100583000CE0C39FF52E7B167D04FF1219429000E9
:100593000EE075F00A84F52E7B327D02FF121942BC
:1005A300E52E75F00AA4FF90000EE0C39FF52E7BA5
:1005B3002A7D02FF1219427B227D027F1312194208
:1005C30090000FE075F00A84F52E7B1F7D02FF1269
:1005D3001942E52E75F00AA4FF90000FE0C39FF5C2
:1005E3002E7B167D02FF1219420531B2C390001013
:1005F300E004F020970AE075F00384E5F0F0800C46
:10060300900010E0C3940A5003740AF0900010E0C5
:10061300900007F0B2C0E4900006F07B017A007905
:10062300027D06121D6B7F0A7E00121E487B017A33
:100633000079027D06121D6B7F0A7E00121E487B25
:10064300017A0079027D06121D6B7F0A7E00121E5D
:10065300487B017A0079027D06121D6B7F0A7E00BA
:10066300121E487B017A0079027D06121D6B7F0AF8
:100673007E00121E487B017A0079027D06121D6BF3
:100683007F0A7E00121E487B017A0079027D0612E2
:100693001D6B7F0A7E00121E487B017A0079027D62
:1006A30006121D6B7F0A7E00121E487B017A0079B9
:1006B300027D06121D6B7F0A7E00121E4890000603
:1006C30074FFF07B017A0079027D06121D6BB2C0C4
:1006D300900010E0FF7E007B677D071219A6E4906F
:0606E3000001F0020226F6
:0F1F0A00759850438920758DFD758BFDD28E2201
:081F54008F993099FDC299221A
:101D46008B668A678968AB66AA67A96812111860EC
:101D5600130568E5687002056714F9121118FF1279
:051D66001F5480E22281
:04186C00AB07AA0616
:10187000D3EB9400EA6480948040047F2B8009C3FA
:10188000E49BFBE49AFA7F2D121F547C007D64AF29
:1018900003AE021211928F6AEF75F064A4FFC3EBDE
:1018A0009FFFEA95F0FE7C007D0A121192AE07E5DB
:1018B0006A75F064A4FDC3EB9DFFEE75F00AA4FD0C
:1018C000C3EF9DFDE56A2430FF121F54EE2430FF64
:0A18D000121F54ED2430FF021F54D4
:071F5C003098FDAF99C29817
:011F6300225B
:0F1EFA007F017E000FBF00010EBE06F8BF18F576
:011F090022B5
:041E4800AD07AC0630
:101E4C00E4FBFAC3EB9DEA9C500A121EFA0BBB0092
:041E5C00010A80EF08
:011E6000225F
:101AE500014F00014E000154000150000151000159
:051AF500530001520046
:0E1F1900E4FEEF14FDEEC39D5004000E80F4B4
:011F27002297
:071F6B00AE071FEE70FA2221
:101DD500E4F532D2A27F0A121F19C2A27FE0121FB8
:101DE50019D2A27F41121F1930A2FD7F14021F6B69
:101E1300E4FB7C08C2A2EBC313FBD2A230A20343B0
:0B1E230003807F3C121F19DCEBAF03B3
:011E2E002291
:021E6100AB07CD
:101E63007A08C2A2EB1392A27F3C121F19D2A2EBF3
:051E7300C313FBDAEDD2
:011E78002247
:101CCC00AC07121DD57FCC121E617F4E121E617F98
:101CDC0002121E617F01121E61AF04121E61121DE1
:0B1CEC00D57FCC121E617F48021E61F4
:10175E00121DD57FCC121E617F44121E617F207E2A
:10176E0003121E48121DD57FCC121E617FBE121EA3
:10177E0061121E138F4F121E138F4EE54ED3947FA0
:10178E00400C634FFFE54EF404F54EE4F552E54F81
:10179E00C4540FFFE54EC454F02FF554E54F540FCB
:1017AE00FD75F00AA4FFE5F0C4F854F0C8EFC45478
:1017BE000F48F550ED75F064A4FFE5F0C4F854F051
:1017CE00C8EFC4540F4875F00A8485F051E5507582
:0817DE00F00AA42551F5532285
:1016DE00020003E493A3F8E493A34003F68001F21F
:1016EE0008DFF48029E493A3F85407240CC8C3330D
:1016FE00C4540F4420C8834004F456800146F6DFDC
:10170E00E4800B0102040810204080901AB0E47EA1
:10171E00019360BCA3FF543F30E509541FFEE493D0
:10172E00A360010ECF54C025E060A840B8E493A397
:10173E00FAE493A3F8E493A3C8C582C8CAC583CAC2
:10174E00F0A3C8C582C8CAC583CADFE9DEE780BE7A
:011AFA0000EB
:10102200E709F608DFFA8046E709F208DFFA803EB0
:1010320088828C83E709F0A3DFFA8032E309F6089D
:10104200DFFA8078E309F208DFFA807088828C8305
:10105200E309F0A3DFFA806489828A83E0A3F608B9
:10106200DFFA805889828A83E0A3F208DFFA804C93
:1010720080D280FA80C680D4806980F2803380106A
:1010820080A680EA809A80A880DA80E280CA8033D3
:1010920089828A83ECFAE493A3C8C582C8CCC5834B
:1010A200CCF0A3C8C582C8CCC583CCDFE9DEE7801B
:1010B2000D89828A83E493A3F608DFF9ECFAA9F09A
:1010C200EDFB2289828A83ECFAE0A3C8C582C8CCF0
:1010D200C583CCF0A3C8C582C8CCC583CCDFEADE09
:1010E200E880DB89828A83E493A3F208DFF980CC6B
:1010F20088F0EF60010E4E60C388F0ED2402B40464
:101102000050B9F582EB2402B4040050AF2323450A
:06111200822390107273AD
:10111800BB010689828A83E0225002E722BBFE02D5
:09112800E32289828A83E4932208
:10113100BB010CE58229F582E5833AF583E0225073
:1011410006E92582F8E622BBFE06E92582F8E222BD
:0D115100E58229F582E5833AF583E49322D7
:10115E00BB010689828A83F0225002F722BBFE0170
:02116E00F3226A
:10117000F8BB010DE58229F582E5833AF583E8F0B5
:10118000225006E92582C8F622BBFE05E92582C861
:02119000F22249
:10119200C2D5EC30E709B2D5E4C39DFDE49CFCEE78
:1011A20030E715B2D5E4C39FFFE49EFE1211C8C317
:1011B200E49DFDE49CFC80031211C830D507C3E412
:0611C2009FFFE49EFE22E7
:1011C800BC000BBE0029EF8DF084FFADF022E4CC0B
:1011D800F875F008EF2FFFEE33FEEC33FCEE9DECD4
:1011E800984005FCEE9DFE0FD5F0E9E4CEFD22ED1A
:1011F800F8F5F0EE8420D21CFEADF075F008EF2F64
:10120800FFED33FD4007985006D5F0F222C398FD54
:051218000FD5F0EA22F1
:00000001FF
