:0300000002196D75
:0C196D00787FE4F6D8FD7581070219B4FC
:101F1D0000000000000000000000000000000000B4
:101CBB0042007800006023005500080010A7625B0B
:101CCB00F80322F80047B610181D1CC700B2EA2A09
:0C1CDB000011598135090B06060508FFB1
:101DFE00E4FDFCC3ED9FEC9E50070DBD00010C8071
:101E0E00F2E4FCFDC3ED9FEC9E50070DBD00010CEE
:021E1E0080F250
:011E2000229F
:101E8500000000000000000000000000000000EF5E
:091E95001F70011E144E70E822BA
:071F7A00C290C282D2902246
:0A1F5700121F7A7F887E13021DFE20
:101D8500E4FEC282FDEF30E704D2928002C292EFF8
:101D950025E0FFD2820000EE25E0FE3091010EC263
:0A1DA5008200000DEDB408DDAF066A
:011DAF002211
:101F0D00C2902091FD7F30121D852091FDD290222F
:101E6700D2907F017E00121E85C2907F017E0012F4
:0E1E77001E85D2907F297E00121E85021F0D4F
:041ECF00E0FD7F0CA7
:101ED300AC05C2902091FD121D85AF04121D85D261
:021EE30090224B
:0B1C3C00900049EBF0A3EAF0A3E9F0F0
:101C4700EF4440FFC2902091FD121D85E4FC9000F7
:101C57004CE0FFECC39F501A900049E0FBA3E0FA69
:101C6700A3E0F98C82758300120DF3FF121D850C1A
:041C770080DCD290AB
:011C7B002246
:0B1F4C00C2902091FD121D85D2902252
:101EE500EF4480FFC2902091FD121D85E4FF121D75
:031EF50085D29003
:011EF80022C7
:0B1BFA00900051EBF0A3EAF0A3E9F02B
:101C0500EF44C0FFC2902091FD121D85E4FC9000B9
:101C150054E0FFECC39F501CE4FF121D859000515A
:101C2500E0FBA3E0FAA3E0F98C82758300EF120EC6
:061C3500320C80DAD290AF
:011C3B002286
:101EF900EF44C0FFC2902091FD121D85E4FF121D21
:031F090085D290EE
:011F0C0022B2
:10116C00900055121ECFA3E0FD7F0B121ED3A312CD
:10117C001ECFA3E0FD7F0D121ED3A3E0FD7F0E1248
:10118C001ED3A3E0FD7F0F121ED3A3E0FD7F101230
:10119C001ED3A3E0FD7F11121ED3A3E0FD7F12121C
:1011AC001ED3A3E0FD7F13121ED3A3E0FD7F141208
:1011BC001ED3A3E0FD7F0A121ED3A3E0FD7F151200
:1011CC001ED3A3E0FD7F21121ED3A3E0FD7F2212CC
:1011DC001ED3A3E0FD7F18121ED3A3E0FD7F1912CE
:1011EC001ED3A3E0FD7F1A121ED3A3E0FD7F1B12BA
:1011FC001ED3A3E0FD7F1C121ED3A3E0FD7F1D12A6
:10120C001ED3A3E0FD7F23121ED3A3E0FD7F241287
:10121C001ED3A3E0FD7F25121ED3A3E0FD7F261273
:10122C001ED3A3E0FD7F29121ED3A3E0FD7F2C1259
:10123C001ED3A3E0FD7F2D121ED3A3E0FD7F2E1243
:10124C001ED3A3E0FDE4FF121ED3A3E0FD7F021228
:10125C001ED3A3E0FD7F07121ED3A3E0FD7F08126F
:10126C001ED3A3E0FD7F09121ED3A3E0FD7F06026F
:02127C001ED37F
:101DB000900047EDF07F3F121ED3E090004CF07F83
:101DC0003F121C3C7F36121F4C7F35121F4C308453
:091DD000FD2084FD7F3B021F4C45
:051F81007F34021F4C3B
:0B137D00900047EBF0A3EAF0A3E9F0BA
:10138800A3E0FBA3E0FAA3E0F9120DDA75F014A4C8
:10139800FB7F34121F4C7F027E00121DFE30841129
:1013A8007F027E00121DFE1BEBC3940150EF7FFFEE
:1013B800227F3B121EF9EF547F70030214577F3FC0
:1013C800121EE590004FEFF090004AE0FBA3E0FA10
:1013D800A3E0F9120DDAFEEFD39E5057900047E0D4
:1013E800FBA3E0FAA3E0F990004FE0900054F07FEF
:1013F8003F121BFA90004FE0FF90004AE0FBA3E089
:10140800FAA3E0F9EF120E207B017A00794D9000E3
:10141800547402F07F3F121BFA7F3A121F4C90005F
:101428004DE0900091F090004EE030E7037F0122FC
:101438007F002290004FE0FF90004AE0FBA3E0FA13
:10144800A3E0F9EF120E207F3A121F4C7F00227F93
:011458000093
:011459002270
:101E21007F34121EF9EFC39480EF400B2401FFE4CD
:101E310034FFC313EF8001C31324B6FCECFF3395C9
:021E4100E0FEC1
:011E4300227C
:0E153300900038EBF0A3EAF0A3E9F0A3EDF08E
:10154100783D7C007D017BFF7A1F791D7E007F083D
:10155100120DB49000457408F0E4A3F043890175BD
:101561008CD8758AF0C28D90003CE0FF900038E085
:10157100FBA3E0FAA3E0F9EF120E207F09121EF996
:10158100900038E0FBA3E0FAA3E0F9900002EF122B
:101591000E3290003BE0FD121DB0D28C900046E06F
:1015A100606490004A7401F0A37400F0A37445F0E4
:1015B1007B017A00793D12137DEF600990003EE0D6
:1015C10070037F0122308DD4900079E004F0700621
:1015D100900078E004F0900046E014F0900078E08C
:1015E100FEA3E0FF7B627D0712160A900038E0FB44
:1015F100A3E0FAA3E0F9A3E0FD121DB0758CD87544
:081601008AF0C28D80967F0083
:0116090022BE
:0B18DF0090007AEBF0A3EAF0A3E9F020
:1018EA0078807C007D017BFF7A1F79257E007F0846
:1018FA00120DB49000887403F090007DE0F9A3E023
:10190A00FAA3E090004AC9F0A3EAF0A3E9F0900034
:10191A007AE0FBA3E0FAA3E0F912137DEF604190AD
:10192A00007AE0FBA3E0FAA3E0F9900002120DF3BB
:10193A00900080F0E4A3F07F09121EF9A3EFF09063
:10194A00007AE0FBA3E0FAA3E0F9120DDA600E7B5D
:10195A00017A007980900088E0FD121DB07F012293
:02196A007F00FC
:01196C002258
:1000030000000000000000000000004F000000009E
:1000130000000708101010080700F0080404040883
:10002300F00008181F00000000000404FC04040092
:1000330000000E101010110E00001C3464C4840C58
:1000430000000C101010110E0000180404848870B6
:100053000000010204081F000000E0202424FC2407
:1000630020001F101111111000008884040408F0EF
:1000730000000708111111110800F0880404040896
:10008300F00018101010111C1000000000FC0000FC
:1000930000000E111010110E0000384484844438FF
:1000A30000000708101008070000008C444488F083
:1000B300000000031C07000000043CC44040E41C93
:1000C30004101F1111110E000004FC0404048870B5
:1000D30000030C101010101C00E018040404081096
:1000E30000101F10101008070004FC04040408F09B
:1000F30000101F11111710080004FC0404C4041895
:1001030000101F11111710080004FC0400C00000A8
:100113000000000003030000000000000C0C0000BE
:10012300000000000101111F00007088040408FC96
:1001330004101F1111110E000004FC040404887044
:10014300000000000000000000000C0C0000000094
:10015300000000000F00000000808080F880808095
:10016300000000000000000000008080808080808C
:1001730080000000000000000002024242424242AE
:100183007F4242424242020200010102040830C09F
:1001930000C0300804020101000806403003082AA9
:1001A3002A2AFF2A2A3E08080020203EC0000848C9
:1001B3004848FF48484808000004040404040404B1
:1001C300FF0404040404040400010102040830C011
:1001D30000C030080402010100020C886909098982
:1001E3006909091928C80A0C00202020202022218F
:1001F3007E60A020202020200002423300004744DC
:1002030054544F5464440700000102FC0201FF915F
:100213009191FD919593FD01000001061FE00020DF
:100223002424A4642424242000800000FF00000070
:100233009F92929292929F00000001061FE000207D
:100243002424A4642424242000800000FF00000050
:100253009F92929292929F00000101017D45454534
:10026300454545457D0101010000000060A02020B7
:10027300202221223C00000000404744447C00012E
:100283007949494F494979010000C241427C02E260
:10029300222222FE22222AE70000003F2424243FB8
:1002A300A464243F2424242000020CF1012132AA57
:1002B300A4A4A4AA3201010100007F40484949498E
:1002C3004F49494948407F000000FF0212121212B1
:1002D300F21252321202FF000002040B32C2221346
:1002E3000804001F0000FF00000000FC022212E2CD
:1002F300020E00F00201FE000000000007000000F3
:10030300FF00000004020100001020C000000201F1
:10031300FE0000000000807000040C35C60C0000D5
:100323007F444444447F00000044E64448480202BA
:10033300FE42424242FE02020000000000000000B2
:1003430000000000000000000000000000000000AA
:10035300000000000000000000000000000000009A
:10036300000000000000000000000000000000008A
:10037300000000000000000000000000000000007A
:1005C3000000000000000000000004040404040410
:1005D30004040707040404040404040C1C0C0400AE
:1005E30000000000000002020202020202020202F4
:1005F3000202FFFF020302020202020202060E06C9
:1006030002000000000000000000000000000103E1
:100613000E7CF00000C0300C070100000000000059
:100623000000000000000202040C08102060C080DB
:1006330000000000000000000080C06070381C1C37
:10064300080808000000000020180E060000000241
:1006530002020202023F3F020202020203070200F9
:1006630000000000008060381C0000031CE0202113
:100673002121212121FFFF2121212121FFFF2020F1
:100683006020000000000202030F3CC001011111B1
:100693001111111111FFFF1111111111113131112B
:1006A3000301000000000000FCFC0000000000004B
:1006B3000000000000FEFE0000000000000000003B
:1006C3000000000000000000000000000000000027
:1006D3000000003F1F0000000000000000000000B9
:1006E3000000000000000010101010101010101077
:1006F300101017FFFE1110101010101010102060B2
:100703006020000000000000000000000000000165
:10071300073EF8C000C0701C060301000000000083
:100723000000000000000202040408183060C080CA
:1007330000000000000000000080C0E07038381C9A
:100743001808000000000000000000180E07030056
:1007530000201C0F0700000000030E3C18000000DF
:1007630000000000000000063E3C202121A1A12141
:10077300212121A121212121E1A323212024287842
:1007830070200000000004040404040404040404AE
:100793000404043F1F2424448484040404040C1C20
:1007A3000C0400000000000000000000000000082E
:1007B300080C0EFCFC00000000000000000000001C
:1007C300000000000002030202020202020202030E
:1007D3000702000000033F1C10000000000000009F
:1007E3000000000000000020100C060301073EF08B
:1007F3008000010638E0C0405F4F484040445870D5
:10080300E04000000000000000030EB8E0F03C1FD1
:10081300070100000001077CF000F80F0100000051
:1008230000000000001020408000000000020204CD
:10083300C808102060C0000000000000C070381C11
:100843000C08000000000000100C0F07000000005F
:10085300070304040808181003010101010101073B
:10086300020000000000040404040F0F0000000055
:10087300FFFF000000000000FFFF0000000000FF7A
:1008830000000000000000000000FFFF0000000067
:10089300FCFC183020204000FFFF000008080CFC7F
:1008A3000000000000207060C08000008040203005
:1008B3001010181818181818D89818181818181885
:1008C30018100000000000000000030F3C1000009F
:1008D3000001073D19110101010101010101030398
:1008E300010000000004081060C0FFFF000010209A
:1008F30041861E0C0800007F3F00080426C38100C8
:1009030000000000000000000000F3F00000478733
:1009130000004826273370F0800000000202C1C0A7
:10092300000000000000001030F080000000FCFC1C
:10093300040404048484040404049C7C080080E00C
:10094300F0000000000000000000000000030301AD
:100953000000000000000000000000000000000094
:1009630000000000000000000000000000FFFFE0A6
:100973000000000000000000000000000000000074
:100983000000000000000000000000000183F303EA
:100993000000000000000000000000000000000054
:1009A30000000000000000000000000080C0C080C4
:1009B3000000000000000000000000000000000034
:0509C30000000000002F
:081F61007F207EFFDEFEDFFAA7
:011F69002255
:101E4400121E56121E56121E56121E56121E5612DE
:021E54001E5618
:101E56007FFF7EFF0000000000000000DEF6DFF2DC
:011E66002259
:101C7C00C2B5121F61D2B5121F617FA3121EC17FA4
:101C8C00A0121EC17FAF121EC17F2F121EC17F2357
:101C9C00121EC17F81121EC17F28121EC17FC0126D
:0F1CAC001EC17FAF121EC17F40121EC100002259
:0A1EB7009000B1E0C4540F2410FFA6
:0E1EC100C2B600C2B400121DD90000D2B62273
:101D2B009000AFE075F080A42FF582E435F0F583D9
:0F1D3B00E58224C7F582E5833405F583E493FF41
:0E1D4A00C2B600D2B400121DD90000D2B622DB
:101DD900C2B37D087C00C2B30000EF54806004D216
:101DE900B28002C2B2D2B3EF25E0FFED1D70011C33
:041DF900ED4C70E25B
:011DFD0022C3
:0B1B48009000A3EFF0A3EDF0A3EBF082
:101B53007FAF121EC19000A4E024B0FF121EC190FB
:101B630000A5121EBA9000A5E0540FFF121EC1E497
:101B73009000A6F09000A6E0FFC3940850259000C3
:101B8300A3E075F008A42FF582E435F0F583E58230
:101B93002403F582E5833400121D459000A6E0047A
:031BA300F080D1FE
:011BA600221C
:0B1831009000A7EFF0A3EDF0A3EBF098
:10183C007FAF121EC19000A8E024B0FF121EC19011
:10184C0000A9121EBA9000A9E0540FFF121EC1E4A9
:10185C009000AAF09000AAE0FFC3941050259000CD
:10186C00A7E075F020A42FF582E435F0F583E5822E
:10187C002413F582E5833400121D459000AAE00480
:10188C00F080D19000A8E024AFFF121EC19000A9F7
:10189C00121EBA9000A9E0540FFF121EC19000AAAC
:1018AC007410F09000AAE0FFC3942050259000A77C
:1018BC00E075F020A42FF582E435F0F583E5822461
:1018CC0013F582E5833400121D459000AAE004F064
:0218DC0080D1B9
:0118DE0022E7
:0816C700A3E0FDA3E0FB7F148A
:0B16CF0090004DEFF0A3EDF0A3EBF056
:1016DA007FAF121EC190004EE024B0FF121EC190CF
:1016EA00004F121EBA90004FE0540FFF121EC19015
:1016FA0000507408F0900050E0FFD3940040259009
:10170A00004DE075F010A42FF582E435F0F583E57D
:10171A00822413F582E5833400121D45900050E0BF
:10172A0014F080D190004EE024AFFF121EC1900049
:10173A004F121EBA90004FE0540FFF121EC19000C4
:10174A00507410F0900050E0FFD3940840259000A8
:10175A004DE075F010A42FF582E435F0F583E582AB
:10176A002413F582E5833400121D45900050E014DD
:03177A00F080D12B
:01177D002249
:04177E007B707F0FEE
:0B1782009000ABEFF0A3EDF0A3EBF044
:10178D007FAF121EC19000ACE024B0FF121EC190BD
:10179D0000AD121EBA9000ADE0540FFF121EC190A5
:1017AD0000AE7410F09000AEE0FFD3940040259091
:1017BD0000ABE075F020A42FF582E435F0F583E55C
:1017CD0082247BF582E5833401121D459000AEE045
:1017DD0014F080D19000ACE024AFFF121EC1900038
:1017ED00AD121EBA9000ADE0540FFF121EC1900055
:1017FD00AE7420F09000AEE0FFD394104025900021
:10180D00ABE075F020A42FF582E435F0F583E58289
:10181D00247BF582E5833401121D459000AEE01462
:03182D00F080D177
:011830002295
:0B145A009000AFEFF0A3EDF0A3EBF06B
:101465007FAF121EC19000B0E024B0FF121EC11262
:101475001EB79000B1E0540FFF121EC19000B27468
:1014850020F09000B2E0FFD39400400B121D2B908A
:1014950000B2E014F080EB9000B0E024AFFF121E24
:1014A500C1121EB79000B1E0540FFF121EC190008B
:1014B500B27440F09000B2E0FFD39420400B121DAF
:1014C5002B9000B2E014F080EB9000B0E024AEFF6A
:1014D500121EC1121EB79000B1E0540FFF121EC1BB
:1014E5009000B27460F09000B2E0FFD39440400BDE
:1014F500121D2B9000B2E014F080EB9000B0E024B8
:10150500ADFF121EC1121EB79000B1E0540FFF12BD
:101515001EC19000B27480F09000B2E0FFD39460D9
:0D152500400B121D2B9000B2E014F080EB83
:011532002296
:0B1BA7009000B3EFF0A3EDF0A3EBF013
:101BB2007FAF121EC19000B4E024B0FF121EC1908C
:101BC20000B5121EBA9000B5E0540FFF121EC1E418
:101BD200FF0FEFB410FB9000B4E024B1FF121EC15E
:101BE2009000B5121EBA9000B5E0540FFF121EC14C
:071BF2007F100FEFB420FB90
:011BF90022C9
:081AE000900038EFF0A3EDF0D7
:101AE80090003C74B0F090003CE0FFC394B9504BB8
:101AF800121EC17F10121EC1E4FF121EC1E4900025
:101B08003AF0A3F0900038E0FF121D4A900039E047
:101B1800FF121D4A90003BE004F0700690003AE086
:101B280004F0C390003BE0944090003AE064809455
:101B38008040D190003CE004F080AB7FAF021EC132
:0B1A6D0090009DEBF0A3EAF0A3E9F06D
:101A78007FAF121EC19000A274B0F09000A2E0FFE8
:101A8800C394B85052121EC17F10121EC1E4FF1237
:101A98001EC1E49000A0F0A3F090009DE0FBA3E439
:101AA80075F001120EF1A9F0FA120DDAFF121D4AB3
:101AB8009000A1E004F070069000A0E004F0C3904C
:101AC80000A1E094809000A0E06480948040CA90D7
:071AD80000A2E004F080A46D
:011ADF0022E4
:101054007D0712177E7B607D077F0F1217827B50FE
:101064007D077F0F1217827B407D077F0F12178247
:101074007B307D077F0F1217827B207D077F0F1245
:1010840017827B107D077F0F121782E4FB7D077F99
:101094000F1217827B707D057F0F1217827B607D94
:1010A400057F0F1217827B507D057F0F1217827BFD
:1010B400407D057F0F1217827B307D057F0F12174D
:1010C400827B207D057F0F1217827B107D057F0FA9
:1010D400121782E4FB7D057F0F1217827D0312171E
:1010E4007E7B607D037F0F1217827B507D037F0F11
:1010F4001217827B407D037F0F1217827B307D03A2
:101104007F0F1217827B207D037F0F1217827B10C3
:101114007D037F0F121782E4FB7D037F0F1217827A
:101124007B707D017F0F1217827B607D017F0F1220
:1011340017827B507D017F0F1217827B407D017FD8
:101144000F1217827B307D017F0F1217827B207D67
:10115400017F0F1217827B107D017F0F121782E42B
:08116400FB7D017F0F021782E1
:10127E007B607D07E4FF12145A121E507B407D07DF
:10128E007F0112145A121E507B207D077F0212140A
:10129E005A121E50E4FB7D077F0312145A121E5081
:1012AE007B607D037F0412145A121E507B407D0317
:1012BE007F0512145A121E507B207D037F061214D6
:1012CE005A121E50E4FB7D037F0712145A121E445D
:1012DE00121054121E447B607D06E4FF1217827BAF
:1012EE00507D067F011217827B407D067F0212170A
:1012FE00827B307D067F031217827B207D067F0462
:10130E001217827B107D067F051217827B707D037C
:10131E007F061217827B607D037F071217827B5038
:10132E007D037F081217827B407D037F091217828F
:10133E007B387D037F101216CF7B087D037F111241
:10134E0016CF7B017D037F121216CF7B507D017F5E
:10135E000A1217827B407D017F0B1217827B307D34
:0F136E00017F0C1217827B207D017F0D021782F9
:10160A00900049EDF0A3EBF0900047EEF0A3EFF065
:10161A00C3EE6480948040051216C7802290004968
:10162A00E0FDA3E0FB7F151216CF900047E0FEA372
:10163A00E0FFC3E49FFFE49E900047F0A3EFF09021
:10164A000047E0FEA3E0FF7C007D64120EBBAB07FF
:10165A00EB75F064A4FFC3E09FFF900047E095F0AC
:10166A00FE7C007D0A120EBB90004BEFF090004703
:10167A00A3E0FEEB75F064A4FDC3EE9DFEEF75F0EA
:10168A000AA4FFC3EE9F90004CF0AF03900049E01C
:10169A00FDA3E024F8FB1216CF90004BE0FF900068
:1016AA0049E0FDA3E024F0FB1216CF90004CE0FFC6
:0D16BA00900049E0FDA3E024E8FB0216CFFC
:100F0700900096EDF0A3EBF0900094EEF0A3EFF0D5
:100F1700C3EE6480948040051216C7802290009625
:100F2700E0FDA3E0FB7F151216CF900094E0FEA32F
:100F3700E0FFC3E49FFFE49E900094F0A3EFF090DE
:100F47000094E0FEA3E0FF7C277D10120EBB90000B
:100F570098EFF07E007C277D10120E54AA06AB078F
:100F6700C3900095E09BFF900094E09AFE7C037D80
:100F7700E8120E66A907900099E9F0C3900095E082
:100F87009BFB900094E09AFA7E007C037DE8120EAA
:100F970054C3EB9FFBEA9EFA7C007D64AF03FE120D
:100FA7000E6690009AEFF0E075F064A4FFC3EB9F24
:100FB700FFEA95F0FE7C007D0A120E66A3EFF0FEB5
:100FC700900094A3E0FD900098E0FBC454F0FCC3AC
:100FD700ED9CFDA3E075F0E8A4FCC3ED9CFDA3E048
:100FE70075F064A4FCC3ED9CFDEE75F00AA4FEC386
:100FF700ED9E90009CF0AF03900096E0FDA3E024E7
:10100700F8FB1216CF900099E0FF900096E0FDA341
:10101700E024F0FB1216CF90009AE0FF900096E0D4
:10102700FDA3E024E8FB1216CF90009BE0FF9000A1
:1010370096E0FDA3E024E0FB1216CF90009CE0FFB2
:0D104700900096E0FDA3E024D8FB0216CF38
:101D5800000000000000000000000000000000007B
:101D6800000000000000000000000000000000006B
:0D1D7800000000000000000000000000005E
:101CE700480089C0C0C0C0C0C0C0C0420092000048
:1009C800E4900000F0A3F0A3F0A3F0A3F0A3F0A339
:1009D800F078077C007D017BFF7A1D7958FE7F093E
:1009E800120DB478127C007D017BFF7A1D79617E3F
:1009F800007F0D120DB4781F7C007D017BFF7A1DEE
:100A0800796E7E007F0D120DB4782C7C007D017B01
:100A1800FF7A1D797B7E007F0A120DB4E4900036C0
:100A2800F0A3F0D2B7C2C0C2C3121F3DC295121CB8
:100A38007C121E56121E56121E56E4FDFF121AE0B4
:100A4800121E56121E56121E56121E56121E5612EE
:100A58001E56D295121F57121E6712116C7B017A0F
:100A680000798990004C7408F07F3E121C3CD2C07B
:100A7800D2B7D2C0D2C390004A7401F0A37400F078
:100A8800A37411F07B017A00791F12137DEF60E6E1
:100A9800900020E0F46038A3E0640970327F091206
:100AA8001EF9900020E0B5070FB2C07B017A0079EB
:100AB8001F90003C7401800DB2C07B017A00791F41
:100AC80090003C7407F07D0B121533B2C080A790DC
:100AD8000006E0FF900024E06F703190001FE0FFF7
:100AE8006012900022E02405F582E43400F583E0EA
:100AF80064016082EF70157F09121EF974052FF5E5
:100B080082E43400F583E06003020A7E90001FE06F
:100B18006003020C66900022E0F46003020C669009
:100B28000091E0FF900000E0242CF582E43400F509
:100B380083EFF0900000E004F0E0C394015003025A
:100B48000CAD90001374FFF07F09121EF990001588
:100B5800EFF0900024E0900017F0E4900002F0A37A
:100B6800F0900001F0900000E0FFA3E0FEC39F506A
:100B780021742C2EF582E43400F583E0FD90000307
:100B8800E02DF0900002E03400F0900001E004F065
:100B980080D3EFFD7C00900002E0FEA3E0FF120E80
:100BA800BB900016EFF0900025E0900018F0900040
:100BB80026E0900019F0900027E090001AF09000CD
:100BC80028E090001BF0900029E090001CF09000B5
:100BD80036E0FEA3E0FF7C017D00120EBBAE04AF41
:100BE800057B307D0712160A900024E0FF7E007B0B
:100BF800307D0512160A7F037E00121E9EB2C37B4B
:100C0800017A00791290003C7409F07D0B121533BB
:100C1800B2C3900037E004F07006900036E004F0AC
:100C28007F09121EF974052FF582E43400F58374E8
:100C380001F0E4900000F0F0900000E0FFC394069B
:100C4800501574122FF582E43400F5837480F09007
:100C58000000E004F080E1E4900000F0804790009C
:100C680021E06407703FB2C07B017A00791F9000D1
:100C78003C7409F07D0B121533B2C0900036E0FECB
:100C8800A3E0FF7C017D00120EBBAE04AF057B30F4
:100C98007D0512160A900022E02405F582E434004E
:100CA800F5837401F0900024E0FF900006E06F7077
:100CB80003020A7EEFF0E4900010F0900010E0FFCD
:100CC800C394094003020A7E74072FF582E43400B6
:0C0CD800F583E4F0900010E004F080DFF1
:0F1F3D00759850438920758DFD758BFDD28E22CE
:081F6A008F993099FDC2992204
:101CF8009000B6EBF0A3EAF0A3E9F09000B6E0FBA1
:101D0800A3E0FAA3E0F9120DDA60179000B6A3E495
:101D180075F001120EF1A9F0FA120DDAFF121F6A1E
:031D280080D9223D
:0419F900AB07AA0688
:1019FD00D3EB9400EA6480948040047F2B8009C36C
:101A0D00E49BFBE49AFA7F2D121F6A7C007D64AF84
:101A1D0003AE02120EBB9000B9EFF0E075F064A4B6
:101A2D00FFC3EB9FFFEA95F0FE7C007D0A120EBB13
:101A3D00AE07AD03AF05E0FD75F064A4FCC3EF9CEC
:101A4D00FFEE75F00AA4FCC3EF9CFCED2430FF12F1
:101A5D001F6AEE2430FF121F6AEC2430FF021F6A4A
:071F72003098FDAF99C29801
:011F79002245
:0F1F2D007F017E000FBF00010EBE06F8BF18F542
:011F3C002282
:041E9E00AD07AC06DA
:101EA200E4FBFAC3EB9DEA9C500A121F2D0BBB0008
:041EB200010A80EFB2
:011EB6002209
:101979000209C8E493A3F8E493A34003F68001F2B3
:1019890008DFF48029E493A3F85407240CC8C3336F
:10199900C4540F4420C8834004F456800146F6DF3E
:1019A900E4800B0102040810204080901CBBE47EF7
:1019B900019360BCA3FF543F30E509541FFEE49333
:1019C900A360010ECF54C025E060A840B8E493A3FA
:1019D900FAE493A3F8E493A3C8C582C8CAC583CA25
:1019E900F0A3C8C582C8CAC583CADFE9DEE780BEDD
:011CF70000EC
:100CE400E709F608DFFA8046E709F208DFFA803EF2
:100CF40088828C83E709F0A3DFFA8032E309F608DF
:100D0400DFFA8078E309F208DFFA807088828C8346
:100D1400E309F0A3DFFA806489828A83E0A3F608FA
:100D2400DFFA805889828A83E0A3F208DFFA804CD4
:100D340080D280FA80C680D4806980F280338010AB
:100D440080A680EA809A80A880DA80E280CA803314
:100D540089828A83ECFAE493A3C8C582C8CCC5838C
:100D6400CCF0A3C8C582C8CCC583CCDFE9DEE7805C
:100D74000D89828A83E493A3F608DFF9ECFAA9F0DB
:100D8400EDFB2289828A83ECFAE0A3C8C582C8CC31
:100D9400C583CCF0A3C8C582C8CCC583CCDFEADE4A
:100DA400E880DB89828A83E493A3F208DFF980CCAC
:100DB40088F0EF60010E4E60C388F0ED2402B404A5
:100DC4000050B9F582EB2402B4040050AF2323454C
:060DD4008223900D347330
:100DDA00BB010689828A83E0225002E722BBFE0217
:090DEA00E32289828A83E493224A
:100DF300BB010CE58229F582E5833AF583E02250B5
:100E030006E92582F8E622BBFE06E92582F8E222FE
:0D0E1300E58229F582E5833AF583E4932218
:100E2000BB010689828A83F0225002F722BBFE01B1
:020E3000F322AB
:100E3200F8BB010DE58229F582E5833AF583E8F0F6
:100E4200225006E92582C8F622BBFE05E92582C8A2
:020E5200F2228A
:100E5400EF8DF0A4A8F0CF8CF0A428CE8DF0A42EB2
:020E6400FE226C
:100E6600BC000BBE0029EF8DF084FFADF022E4CC70
:100E7600F875F008EF2FFFEE33FEEC33FCEE9DEC39
:100E8600984005FCEE9DFE0FD5F0E9E4CEFD22ED7F
:100E9600F8F5F0EE8420D21CFEADF075F008EF2FC9
:100EA600FFED33FD4007985006D5F0F222C398FDBA
:050EB6000FD5F0EA2257
:100EBB00C2D5EC30E709B2D5E4C39DFDE49CFCEE52
:100ECB0030E715B2D5E4C39FFFE49EFE120E66C356
:100EDB00E49DFDE49CFC8003120E6630D507C3E451
:060EEB009FFFE49EFE22C1
:100EF100A3F8E0C5F025F0F0E582158270021583B4
:060F0100E0C838F0E82210
:00000001FF
