:030000000216B62F
:0C16B600787FE4F6D8FD75816B0216FD0C
:101DF00000000000000000000000000000000000E3
:101B7700022B000020230800080010A7625BF8036F
:101B870022F80047B610181D1CC700B2EA2A001138
:0A1B9700598135090B06060501FF10
:101CD700E4FDFCC3ED9FEC9E50070DBD00010C8099
:101CE700F2E4FCFDC3ED9FEC9E50070DBD00010C17
:021CF70080F279
:011CF90022C8
:101D5E00000000000000000000000000000000EF86
:091D6E001F70011E144E70E822E2
:071E5B00C290C282D2902266
:0A1E3800121E5B7F887E13021CD788
:101C3F00E4FEC282FDEF30E704D2928002C292EF3F
:101C4F0025E0FFD2820000EE25E0FE3091010EC2AA
:091C5F008200000DBD08DEAF0695
:011C68002259
:101DE000C2902091FD7F30121C3F2091FDD29022A5
:101D4000D2907F017E00121D5EC2907F017E001244
:0E1D50001D5ED2907F297E00121D5E021DE0F6
:101DCE00AC05C2902091FD121C3FAF04121C3FD2F5
:021DDE00902251
:061BE1008B378A388939B8
:101BE700EF4440FFC2902091FD121C3FE4FCECC380
:101BF700953A5015AB37AA38A9398C8275830012EC
:0B1C07000FC6FF121C3F0C80E5D290BE
:011C120022AF
:0B1E2D00C2902091FD121C3FD29022B9
:101DA600EF4480FFC2902091FD121C3FE4FF121CFD
:031DB6003FD29089
:011DB9002207
:061BAD008B3F8A408941D4
:101BB300EF44C0FFC2902091FD121C3FE4FCECC334
:101BC30095425017E4FF121C3FAB3FAA40A9418C3A
:0D1BD30082758300EF1210050C80E3D290A4
:011BE00022E2
:101DBA00EF44C0FFC2902091FD121C3FE4FF121CA9
:031DCA003FD29075
:011DCD0022F3
:1013E900AD087F0C121DCEAD097F0B121DCEAD0AC3
:1013F9007F0C121DCEAD0B7F0D121DCEAD0C7F0ED5
:10140900121DCEAD0D7F0F121DCEAD0E7F10121D18
:10141900CEAD0F7F11121DCEAD107F12121DCEADB4
:10142900117F13121DCEAD127F14121DCEAD137F85
:101439000A121DCEAD147F15121DCEAD157F2112D6
:101449001DCEAD167F22121DCEAD177F18121DCEEF
:10145900AD187F19121DCEAD197F1A121DCEAD1A06
:101469007F1B121DCEAD1B7F1C121DCEAD1C7F1D17
:10147900121DCEAD1D7F23121DCEAD1E7F24121D60
:10148900CEAD1F7F25121DCEAD207F26121DCEADFC
:10149900217F29121DCEAD227F2C121DCEAD237FB7
:1014A9002D121DCEAD247F2E121DCEAD25E4FF12C7
:1014B9001DCEAD267F02121DCEAD277F07121DCE90
:1014C900AD287F08121DCEAD297F09121DCEAD2A88
:0514D9007F06021DCE9C
:101CB3008D357F3F121DCE85353A7F3F121BE17F65
:101CC30036121E2D7F35121E2D3084FD2084FD7F9C
:041CD3003B021E2D85
:051E62007F34021E2D7B
:0614DE008B358A368937C8
:1014E400AB38AA39A93A120FAD75F014A4FB7F34B6
:1014F400121E2D7F027E00121CD73084117F027EC3
:1015040000121CD71BEBC3940150EF7FFF227F3BDB
:10151400121DBAEF547F60647F3F121DA68F3DAB4E
:1015240038AA39A93A120FADFFE53DD39F503AAB23
:1015340035AA36A937853D427F3F121BADAB38AA89
:1015440039A93AE53D120FF37B007A00793B7542E5
:10155400027F3F121BAD7F3A121E2D853B6AE53C8C
:1015640030E7037F01227F0022AB38AA39A93AE58C
:0E1574003D120FF37F3A121E2D7F00227F00E2
:011582002246
:101CFA007F34121DBAEFC39480EF400B2401FFE436
:101D0A0034FFC313EF8001C31324B6FCECFF3395F1
:021D1A00E0FEE9
:011D1C0022A4
:081583008B438A4489458D4623
:10158B0078197C007D017BFF7A1D79F07E007F0846
:10159B00120F87754808754904438901E4F58CF5EA
:1015AB008AC28DAB43AA44A945E547120FF37F09C5
:1015BB00121DBAAB43AA44A945900002EF121005C5
:1015CB00AD46121CB3D28CE54960497538007539AC
:1015DB0000753A487B017A0079191214DEEF600925
:1015EB0090001AE070037F0122308DDB052CE52C77
:1015FB007002052B15497B1E7D05FFAE2B1219B111
:10160B00AB43AA44A945AD46121CB3E4F58CF58A4D
:06161B00C28D80B37F00C8
:0116210022A6
:061949008B2E8A2F89306D
:10194F0078117C007D017BFF7A1D79F87E007F087E
:10195F00120F8775340385313885323985333AABA9
:10196F002EAA2FA9301214DEEF6034AB2EAA2FA9A6
:10197F0030900002120FC6900011F0E4A3F07F091F
:10198F00121DBAA3EFF0AB2EAA2FA930120FAD6024
:10199F000B7B017A007911AD34121CB37F01227FCA
:0119AF000037
:0119B0002214
:1000030000000000000000000000004F000000009E
:1000130000000708101010080700F0080404040883
:10002300F00008181F00000000000404FC04040092
:1000330000000E101010110E00001C3464C4840C58
:1000430000000C101010110E0000180404848870B6
:100053000000010204081F000000E0202424FC2407
:1000630020001F101111111000008884040408F0EF
:1000730000000708111111110800F0880404040896
:10008300F00018101010111C1000000000FC0000FC
:1000930000000E111010110E0000384484844438FF
:1000A30000000708101008070000008C444488F083
:1000B300000000031C07000000043CC44040E41C93
:1000C30004101F1111110E000004FC0404048870B5
:1000D30000030C101010101C00E018040404081096
:1000E30000101F10101008070004FC04040408F09B
:1000F30000101F11111710080004FC0404C4041895
:1001030000101F11111710080004FC0400C00000A8
:100113000000000003030000000000000C0C0000BE
:10012300000000000101111F00007088040408FC96
:1001330004101F1111110E000004FC040404887044
:10014300000000000000000000000C0C0000000094
:10015300000000000F00000000808080F880808095
:10016300000000000000000000008080808080808C
:1001730080000000000000000002024242424242AE
:100183007F4242424242020200010102040830C09F
:1001930000C0300804020101000806403003082AA9
:1001A3002A2AFF2A2A3E08080020203EC0000848C9
:1001B3004848FF48484808000004040404040404B1
:1001C300FF0404040404040400010102040830C011
:1001D30000C030080402010100020C886909098982
:1001E3006909091928C80A0C00202020202022218F
:1001F3007E60A020202020200002423300004744DC
:1002030054544F5464440700000102FC0201FF915F
:100213009191FD919593FD01000001061FE00020DF
:100223002424A4642424242000800000FF00000070
:100233009F92929292929F00000001061FE000207D
:100243002424A4642424242000800000FF00000050
:100253009F92929292929F00000101017D45454534
:10026300454545457D0101010000000060A02020B7
:10027300202221223C00000000404744447C00012E
:100283007949494F494979010000C241427C02E260
:10029300222222FE22222AE70000003F2424243FB8
:1002A300A464243F2424242000020CF1012132AA57
:1002B300A4A4A4AA3201010100007F40484949498E
:1002C3004F49494948407F000000FF0212121212B1
:1002D300F21252321202FF000002040B32C2221346
:1002E3000804001F0000FF00000000FC022212E2CD
:1002F300020E00F00201FE000000000007000000F3
:10030300FF00000004020100001020C000000201F1
:10031300FE0000000000807000040C35C60C0000D5
:100323007F444444447F00000044E64448480202BA
:10033300FE42424242FE02020000000000000000B2
:1003430000000000000000000000000000000000AA
:10035300000000000000000000000000000000009A
:10036300000000000000000000000000000000008A
:10037300000000000000000000000000000000007A
:1005C3000000000000000000000004040404040410
:1005D30004040707040404040404040C1C0C0400AE
:1005E30000000000000002020202020202020202F4
:1005F3000202FFFF020302020202020202060E06C9
:1006030002000000000000000000000000000103E1
:100613000E7CF00000C0300C070100000000000059
:100623000000000000000202040C08102060C080DB
:1006330000000000000000000080C06070381C1C37
:10064300080808000000000020180E060000000241
:1006530002020202023F3F020202020203070200F9
:1006630000000000008060381C0000031CE0202113
:100673002121212121FFFF2121212121FFFF2020F1
:100683006020000000000202030F3CC001011111B1
:100693001111111111FFFF1111111111113131112B
:1006A3000301000000000000FCFC0000000000004B
:1006B3000000000000FEFE0000000000000000003B
:1006C3000000000000000000000000000000000027
:1006D3000000003F1F0000000000000000000000B9
:1006E3000000000000000010101010101010101077
:1006F300101017FFFE1110101010101010102060B2
:100703006020000000000000000000000000000165
:10071300073EF8C000C0701C060301000000000083
:100723000000000000000202040408183060C080CA
:1007330000000000000000000080C0E07038381C9A
:100743001808000000000000000000180E07030056
:1007530000201C0F0700000000030E3C18000000DF
:1007630000000000000000063E3C202121A1A12141
:10077300212121A121212121E1A323212024287842
:1007830070200000000004040404040404040404AE
:100793000404043F1F2424448484040404040C1C20
:1007A3000C0400000000000000000000000000082E
:1007B300080C0EFCFC00000000000000000000001C
:1007C300000000000002030202020202020202030E
:1007D3000702000000033F1C10000000000000009F
:1007E3000000000000000020100C060301073EF08B
:1007F3008000010638E0C0405F4F484040445870D5
:10080300E04000000000000000030EB8E0F03C1FD1
:10081300070100000001077CF000F80F0100000051
:1008230000000000001020408000000000020204CD
:10083300C808102060C0000000000000C070381C11
:100843000C08000000000000100C0F07000000005F
:10085300070304040808181003010101010101073B
:10086300020000000000040404040F0F0000000055
:10087300FFFF000000000000FFFF0000000000FF7A
:1008830000000000000000000000FFFF0000000067
:10089300FCFC183020204000FFFF000008080CFC7F
:1008A3000000000000207060C08000008040203005
:1008B3001010181818181818D89818181818181885
:1008C30018100000000000000000030F3C1000009F
:1008D3000001073D19110101010101010101030398
:1008E300010000000004081060C0FFFF000010209A
:1008F30041861E0C0800007F3F00080426C38100C8
:1009030000000000000000000000F3F00000478733
:1009130000004826273370F0800000000202C1C0A7
:10092300000000000000001030F080000000FCFC1C
:10093300040404048484040404049C7C080080E00C
:10094300F0000000000000000000000000030301AD
:100953000000000000000000000000000000000094
:1009630000000000000000000000000000FFFFE0A6
:100973000000000000000000000000000000000074
:100983000000000000000000000000000183F303EA
:100993000000000000000000000000000000000054
:1009A30000000000000000000000000080C0C080C4
:1009B3000000000000000000000000000000000034
:0509C30000000000002F
:081E42007F207EFFDEFEDFFAC7
:011E4A002275
:101D1D00121D2F121D2F121D2F121D2F121D2F12CE
:021D2D001D2F68
:101D2F007FFF7EFF0000000000000000DEF6DFF204
:011D3F002281
:101B3800C2B5121E42D2B5121E427FA3121D987F53
:101B4800A0121D987FAF121D987F2F121D987F231A
:101B5800121D987F81121D987F28121D987FC01230
:0F1B68001D987FAF121D987F40121D980000221C
:081D9000E55EC4540F2410FFAE
:0E1D9800C2B600C2B400121C690000D2B6220E
:101C130075F080E55CA4255FF582E435F0F583E596
:0E1C23008224C7F582E5833405F583E493FF40
:0E1C3100C2B600D2B400121C690000D2B62266
:101C6900C2B37D087C00C2B30000EF54806004D287
:101C7900B28002C2B2D2B3EF25E0FFED1D70011CA4
:041C8900ED4C70E2CC
:011C8D002234
:061A67008F508D518B52DF
:101A6D007FAF121D98E55124B0FF121D98E552125B
:101A7D001D92E552540FFF121D98E4F55375F008B1
:101A8D00E550A42553F582E435F0F583E582240372
:101A9D00F582E5833400121C2C0553E553C39408DD
:021AAD0040DB1C
:011AAF002214
:061855008F548D558B56E7
:10185B007FAF121D98E55524B0FF121D98E5561267
:10186B001D92E556540FFF121D98E4F55775F020A5
:10187B00E554A42557F582E435F0F583E58224136E
:10188B00F582E5833400121C2C0557E557C39410E1
:10189B0040DBE55524AFFF121D98E556121D92E56E
:1018AB0056540FFF121D9875571075F020E554A470
:1018BB002557F582E435F0F583E5822413F582E5AF
:0F18CB00833400121C2C0557E557C3942040DBD3
:0118DA0022EB
:0317CC00FBAD6210
:0617CF008F348D358B36CE
:1017D5007FAF121D98E53524B0FF121D98E536122E
:1017E5001D92E536540FFF121D9875370875F010D8
:1017F500E534A42537F582E435F0F583E582241335
:10180500F582E5833400121C2C1537E537D3940097
:1018150050DBE53524AFFF121D98E536121D92E524
:1018250036540FFF121D9875371075F010E534A466
:101835002537F582E435F0F583E5822413F582E555
:0F184500833400121C2C1537E537D3940850DB81
:011854002271
:041742007B707F0F2A
:061746008F588D598B5AEB
:10174C007FAF121D98E55924B0FF121D98E55A126F
:10175C001D92E55A540FFF121D98755B1075F02001
:10176C00E558A4255BF582E435F0F583E582247B0E
:10177C00F582E5833401121C2C155BE55BD39400D8
:10178C0050DBE55924AFFF121D98E55A121D92E566
:10179C005A540FFF121D98755B2075F020E558A464
:1017AC00255BF582E435F0F583E582247BF582E553
:0F17BC00833401121C2C155BE55BD3941050DBBA
:0117CB0022FB
:061622008F5C8D5D8B5E04
:101628007FAF121D98E55D24B0FF121D98121D9022
:10163800E55E540FFF121D98755F20121C13155F8D
:10164800E55FD3940050F4E55D24AFFF121D9812B6
:101658001D90E55E540FFF121D98755F40121C1314
:10166800155FE55FD3942050F4E55D24AEFF121DAD
:1016780098121D90E55E540FFF121D98755F601259
:101688001C13155FE55FD3944050F4E55D24ADFF6E
:10169800121D98121D90E55E540FFF121D98755F7C
:0D16A80080121C13155FE55FD3946050F4B1
:0116B5002212
:061AF6008F648D658B6614
:101AFC007FAF121D98E56524B0FF121D98E56612A4
:101B0C001D92E566540FFF121D98E4FF0FBF10FCE9
:101B1C00E56524B1FF121D98E566121D92E5665429
:0B1B2C000FFF121D987F100FBF20FC60
:011B3700228B
:041AB0008F2E8D2FB9
:101AB4007532B0AF32121D987F10121D98E4FF12D8
:101AC4001D98E4F530F531AF2E121C31AF2F121CE6
:101AD400310531E53170020530C39440E53064804E
:101AE400948040E30532E532C394B940C67FAF0227
:021AF4001D983B
:061A13008B4A8A4B894C4E
:101A19007FAF121D98754FB0AF4F121D987F1012EE
:101A29001D98E4FF121D98E4F54DF54EAB4A054C9F
:101A3900E54CAA4B7002054B14F9120FADFF121CAD
:101A490031054EE54E7002054DC39480E54D648025
:0D1A5900948040D8054FE54FC394B840BBC2
:011A6600225D
:1010C4007D071217427B607D077F0F1217467B5006
:1010D4007D077F0F1217467B407D077F0F1217464F
:1010E4007B307D077F0F1217467B207D077F0F1211
:1010F40017467B107D077F0F121746E4FB7D077FA1
:101104000F1217467B707D057F0F1217467B607D9B
:10111400057F0F1217467B507D057F0F1217467B04
:10112400407D057F0F1217467B307D057F0F121718
:10113400467B207D057F0F1217467B107D057F0FB0
:10114400121746E4FB7D057F0F1217467D03121725
:10115400427B607D037F0F1217467B507D037F0F18
:101164001217467B407D037F0F1217467B307D03A9
:101174007F0F1217467B207D037F0F1217467B10CB
:101184007D037F0F121746E4FB7D037F0F12174682
:101194007B707D017F0F1217467B607D017F0F12EC
:1011A40017467B507D017F0F1217467B407D017FE0
:1011B4000F1217467B307D017F0F1217467B207D6F
:1011C400017F0F1217467B107D017F0F121746E433
:0811D400FB7D017F0F021746AD
:1012EA007B607D07E4FF121622121D297B407D07D1
:1012FA007F01121622121D297B207D077F021216FA
:10130A0022121D29E4FB7D077F03121622121D29D2
:10131A007B607D037F04121622121D297B407D0308
:10132A007F05121622121D297B207D037F061216C5
:10133A0022121D29E4FB7D037F07121622121D1DAE
:10134A001210C4121D1D7B607D06E4FF1217467B36
:10135A00507D067F011217467B407D067F021217D9
:10136A00467B307D067F031217467B207D067F046D
:10137A001217467B107D067F051217467B707D0388
:10138A007F061217467B607D037F071217467B5044
:10139A007D037F081217467B407D037F091217469B
:1013AA007B387D037F101217CF7B087D037F1112D4
:1013BA0017CF7B017D037F121217CF7B507D017FF0
:1013CA000A1217467B407D017F0B1217467B307D40
:0F13DA00017F0C1217467B207D017F0D02174605
:0819B1008E2E8F2F8D308B313B
:1019B9007C007D6412108EAB07EB75F064A4FFC345
:1019C900E52F9FFFE52E95F0FE7C007D0A12108E13
:1019D9008F32EB75F064A4FEC3E52F9EFFE53275E7
:1019E900F00AA4FEC3EF9EF533AF03AB31AD30125D
:1019F90017CFE53124F8FBAD30AF321217CFE531FF
:0A1A090024F0FBAD30AF330217CF1D
:0811DC008E608F618D628B6350
:1011E400C3E5606480948040077F141217CF801495
:1011F400AB63AD627F151217CFC3E49561F561E46B
:101204009560F560AE60AF617C277D1012108E9002
:101214000029EFF07E007C277D10121027AA06AB70
:1012240007C3E5619BFFE5609AFE7C037DE812102D
:1012340039A3EFF0C3E5619BFBE5609AFA7E007C7D
:10124400037DE8121027C3EB9FFBEA9EFA7C007D26
:1012540064AF03FE121039A3EFF0E075F064A4FF4D
:10126400C3EB9FFFEA95F0FE7C007D0A121039A3C0
:10127400EFF0FE900029E0FBC454F0FCC3E5619C50
:10128400FDA3E075F0E8A4FCC3ED9CFDA3E075F0BC
:1012940064A4FCC3ED9CFDEE75F00AA4FEC3ED9EB0
:1012A40090002DF0AF03E56324F81217CC90002AC8
:1012B400E0FFE56324F01217CC90002BE0FFE56318
:1012C40024E8FBAD621217CF90002CE0FFE5632405
:1012D400E0FBAD621217CF90002DE0FFE56324D848
:0612E400FBAD620217CF12
:0E1E1F000000000000000000000000000000B5
:0B1BA100480021C0C0C0C0C0C0C0C0D0
:1009C800752D01900000740AF0E4A3F078027C0011
:1009D8007D017BFF7A1E791FFE7F06120F8778083C
:1009E8007C007D017BFF7A1E79257E007F08120F2F
:1009F80087E4900010F0D2B7C2C0C2C3C295121BE0
:100A080038121D2F121D2F121D2FE4FDFF121AB0D0
:100A1800121D2F121D2F121D2F121D2F121D2F12E6
:100A28001D2F121E38121D401213E97B017A00791E
:100A380021753A087F3E121BE1D2C0D2B7D2C0D28C
:100A4800C3438910758D3C758BB0C28FD28E9000D0
:100A58000374FFF0900005F0900010E004F0E090BF
:100A68000007F0B2C0E4900006F07B017A0079023A
:100A78007D06121CB37F087E00121D777B017A0069
:100A880079027D06121CB37F087E00121D777B0158
:100A98007A0079027D06121CB37F087E00121D774A
:100AA8007B017A0079027D06121CB37F087E001252
:100AB8001D777B017A0079027D06121CB37F087EC0
:100AC80000121D777B017A0079027D06121CB37F24
:100AD800087E00121D777B017A0079027D06121CC0
:100AE800B37F087E00121D777B017A0079027D06AC
:100AF800121CB37F087E00121D777B017A007902F1
:100B08007D06121CB37F087E00121D7790000674C4
:100B1800FFF07B017A0079027D06121CB37F067E06
:100B280000121D777B017A0079027D06121CB37FC3
:100B3800067E00121D777B017A0079027D06121C61
:100B4800B37F067E00121D777B017A0079027D064D
:100B5800121CB3B2C0900010E0FF7E007B1E7D0720
:100B68001219B1E4900001F0208F03020C9C900050
:100B780001E004F0E064146003020C94900010E0BB
:100B880004F0E0900007F0B2C0E4900006F07B01AA
:100B98007A0079027D06121CB37F087E00121D7749
:100BA8007B017A0079027D06121CB37F087E001251
:100BB8001D777B017A0079027D06121CB37F087EBF
:100BC80000121D777B017A0079027D06121CB37F23
:100BD800087E00121D777B017A0079027D06121CBF
:100BE800B37F087E00121D777B017A0079027D06AB
:100BF800121CB37F087E00121D777B017A007902F0
:100C08007D06121CB37F087E00121D777B017A00D7
:100C180079027D06121CB37F087E00121D777B01C6
:100C28007A0079027D06121CB37F087E00121D77B8
:100C380090000674FFF07B017A0079027D06121C91
:100C4800B37F067E00121D777B017A0079027D064C
:100C5800121CB37F067E00121D777B017A00790291
:100C68007D06121CB37F067E00121D777B017A0079
:100C780079027D06121CB3B2C0900010E0FF7E001E
:100C88007B1E7D071219B1E4900001F0758D3C754B
:100C98008BB0C28F7531017532007533007B017AD4
:100CA800007908121949EF7003020B70AF2D7E000E
:100CB8007B1E7D031219B1900010E0FF90000DE03B
:100CC8006F704CB2C390000BE0FF7E007B787D070D
:100CD8001219B190000CE0FF7E007B787D05121997
:100CE800B190000EE0FF7E007B787D031219B19071
:100CF800000FE0FF7E007B787D011219B19000099A
:100D0800E0FF7E007B1E7D011219B1052DB2C39054
:100D18000010E02401FFE433FE90000DE06F700145
:100D2800EE704CB2C390000BE0FF7E007B5A7D074B
:100D38001219B190000CE0FF7E007B5A7D05121954
:100D4800B190000EE0FF7E007B5A7D031219B1902E
:100D5800000FE0FF7E007B5A7D011219B190000957
:100D6800E0FF7E007B1E7D011219B1052DB2C390F4
:100D78000010E02402FFE433FE90000DE06F7001E4
:100D8800EE6003020B70B2C390000BE0FF7E007BA5
:100D98003C7D071219B190000CE0FF7E007B3C7D82
:100DA800051219B190000EE0FF7E007B3C7D031216
:100DB80019B190000FE0FF7E007B3C7D011219B154
:100DC800900009E0FF7E007B1E7D011219B1052D00
:100DD800B2C3900010E004F0E0900007F0B2C0E465
:100DE800900006F07B017A0079027D06121CB37F21
:100DF8000A7E00121D777B017A0079027D06121C9B
:100E0800B37F0A7E00121D777B017A0079027D0686
:100E1800121CB37F0A7E00121D777B017A007902CB
:100E28007D06121CB37F0A7E00121D777B017A00B3
:100E380079027D06121CB37F0A7E00121D777B01A2
:100E48007A0079027D06121CB37F0A7E00121D7794
:100E58007B017A0079027D06121CB37F0A7E00129C
:100E68001D777B017A0079027D06121CB37F0A7E0A
:100E780000121D777B017A0079027D06121CB37F70
:100E88000A7E00121D7790000674FFF07B017A003D
:100E980079027D06121CB3B2C0900010E0FF7E00FC
:0F0EA8007B1E7D071219B1E4900001F0020B7060
:0F1E1000759850438920758DFD758BFDD28E22FC
:081E4B008F993099FDC2992224
:101C8E008B678A688969AB67AA68A969120FAD600C
:101C9E00130569E5697002056814F9120FADFF129C
:051CAE001E4B80E22244
:0418DB00AB07AA06A7
:1018DF00D3EB9400EA6480948040047F2B8009C38B
:1018EF00E49BFBE49AFA7F2D121E4B7C007D64AFC4
:1018FF0003AE0212108E8F6BEF75F064A4FFC3EB73
:10190F009FFFEA95F0FE7C007D0A12108EAE07E570
:10191F006B75F064A4FDC3EB9DFFEE75F00AA4FD9B
:10192F00C3EF9DFDE56B2430FF121E4BEE2430FFFD
:0A193F00121E4BED2430FF021E4B78
:071E53003098FDAF99C29821
:011E5A002265
:0F1E00007F017E000FBF00010EBE06F8BF18F570
:011E0F0022B0
:041D7700AD07AC0602
:101D7B00E4FBFAC3EB9DEA9C500A121E000BBB005E
:041D8B00010A80EFDA
:011D8F002231
:1016C2000209C8E493A3F8E493A34003F68001F26D
:1016D20008DFF48029E493A3F85407240CC8C33329
:1016E200C4540F4420C8834004F456800146F6DFF8
:1016F200E4800B0102040810204080901B77E47EF6
:10170200019360BCA3FF543F30E509541FFEE493EC
:10171200A360010ECF54C025E060A840B8E493A3B3
:10172200FAE493A3F8E493A3C8C582C8CAC583CADE
:10173200F0A3C8C582C8CAC583CADFE9DEE780BE96
:011BAC000038
:100EB700E709F608DFFA8046E709F208DFFA803E1D
:100EC70088828C83E709F0A3DFFA8032E309F6080A
:100ED700DFFA8078E309F208DFFA807088828C8372
:100EE700E309F0A3DFFA806489828A83E0A3F60826
:100EF700DFFA805889828A83E0A3F208DFFA804C00
:100F070080D280FA80C680D4806980F280338010D6
:100F170080A680EA809A80A880DA80E280CA80333F
:100F270089828A83ECFAE493A3C8C582C8CCC583B7
:100F3700CCF0A3C8C582C8CCC583CCDFE9DEE78087
:100F47000D89828A83E493A3F608DFF9ECFAA9F006
:100F5700EDFB2289828A83ECFAE0A3C8C582C8CC5C
:100F6700C583CCF0A3C8C582C8CCC583CCDFEADE75
:100F7700E880DB89828A83E493A3F208DFF980CCD7
:100F870088F0EF60010E4E60C388F0ED2402B404D0
:100F97000050B9F582EB2402B4040050AF23234577
:060FA7008223900F077386
:100FAD00BB010689828A83E0225002E722BBFE0242
:090FBD00E32289828A83E4932275
:100FC600BB010CE58229F582E5833AF583E02250E0
:100FD60006E92582F8E622BBFE06E92582F8E2222A
:0D0FE600E58229F582E5833AF583E4932244
:100FF300BB010689828A83F0225002F722BBFE01DD
:02100300F322D6
:10100500F8BB010DE58229F582E5833AF583E8F021
:10101500225006E92582C8F622BBFE05E92582C8CD
:02102500F222B5
:10102700EF8DF0A4A8F0CF8CF0A428CE8DF0A42EDD
:02103700FE2297
:10103900BC000BBE0029EF8DF084FFADF022E4CC9B
:10104900F875F008EF2FFFEE33FEEC33FCEE9DEC64
:10105900984005FCEE9DFE0FD5F0E9E4CEFD22EDAA
:10106900F8F5F0EE8420D21CFEADF075F008EF2FF4
:10107900FFED33FD4007985006D5F0F222C398FDE5
:051089000FD5F0EA2282
:10108E00C2D5EC30E709B2D5E4C39DFDE49CFCEE7D
:10109E0030E715B2D5E4C39FFFE49EFE121039C3AC
:1010AE00E49DFDE49CFC800312103930D507C3E4A7
:0610BE009FFFE49EFE22EC
:00000001FF
