:0300000002195B87
:0C195B00787FE4F6D8FD7581070219A220
:101F0B0000000000000000000000000000000000C6
:101CA90042007800006023005500080010A7625B1D
:101CB900F80322F80047B610181D1CC700B2EA2A1B
:0C1CC9000011598135090B06060505FFC6
:101DEC00E4FDFCC3ED9FEC9E50070DBD00010C8083
:101DFC00F2E4FCFDC3ED9FEC9E50070DBD00010C01
:021E0C0080F262
:011E0E0022B1
:101E7300000000000000000000000000000000EF70
:091E83001F70011E144E70E822CC
:071F6800C290C282D2902258
:0A1F4500121F687F887E13021DEC56
:101D7300E4FEC282FDEF30E704D2928002C292EF0A
:101D830025E0FFD2820000EE25E0FE3091010EC275
:0A1D93008200000DEDB408DDAF067C
:011D9D002223
:101EFB00C2902091FD7F30121D732091FDD2902254
:101E5500D2907F017E00121E73C2907F017E001218
:0E1E65001E73D2907F297E00121E73021EFB98
:041EBD00E0FD7F0CB9
:101EC100AC05C2902091FD121D73AF04121D73D297
:021ED10090225D
:0B1C2A00900049EBF0A3EAF0A3E9F002
:101C3500EF4440FFC2902091FD121D73E4FC90001B
:101C45004CE0FFECC39F501A900049E0FBA3E0FA7B
:101C5500A3E0F98C82758300120DE1FF121D730C50
:041C650080DCD290BD
:011C69002258
:0B1F3A00C2902091FD121D73D2902276
:101ED300EF4480FFC2902091FD121D73E4FF121D99
:031EE30073D29027
:011EE60022D9
:0B1BE800900051EBF0A3EAF0A3E9F03D
:101BF300EF44C0FFC2902091FD121D73E4FC9000DE
:101C030054E0FFECC39F501CE4FF121D739000517E
:101C1300E0FBA3E0FAA3E0F98C82758300EF120ED8
:061C2300200C80DAD290D3
:011C29002298
:101EE700EF44C0FFC2902091FD121D73E4FF121D45
:031EF70073D29013
:011EFA0022C5
:10115A00900055121EBDA3E0FD7F0B121EC1A31203
:10116A001EBDA3E0FD7F0D121EC1A3E0FD7F0E127E
:10117A001EC1A3E0FD7F0F121EC1A3E0FD7F101266
:10118A001EC1A3E0FD7F11121EC1A3E0FD7F121252
:10119A001EC1A3E0FD7F13121EC1A3E0FD7F14123E
:1011AA001EC1A3E0FD7F0A121EC1A3E0FD7F151236
:1011BA001EC1A3E0FD7F21121EC1A3E0FD7F221202
:1011CA001EC1A3E0FD7F18121EC1A3E0FD7F191204
:1011DA001EC1A3E0FD7F1A121EC1A3E0FD7F1B12F0
:1011EA001EC1A3E0FD7F1C121EC1A3E0FD7F1D12DC
:1011FA001EC1A3E0FD7F23121EC1A3E0FD7F2412BE
:10120A001EC1A3E0FD7F25121EC1A3E0FD7F2612A9
:10121A001EC1A3E0FD7F29121EC1A3E0FD7F2C128F
:10122A001EC1A3E0FD7F2D121EC1A3E0FD7F2E1279
:10123A001EC1A3E0FDE4FF121EC1A3E0FD7F02125E
:10124A001EC1A3E0FD7F07121EC1A3E0FD7F0812A5
:10125A001EC1A3E0FD7F09121EC1A3E0FD7F0602A5
:02126A001EC1A3
:101D9E00900047EDF07F3F121EC1E090004CF07FA7
:101DAE003F121C2A7F36121F3A7F35121F3A30849B
:091DBE00FD2084FD7F3B021F3A69
:051F6F007F34021F3A5F
:0B136B00900047EBF0A3EAF0A3E9F0CC
:10137600A3E0FBA3E0FAA3E0F9120DC875F014A4EC
:10138600FB7F34121F3A7F027E00121DEC3084115F
:101396007F027E00121DEC1BEBC3940150EF7FFF12
:1013A600227F3B121EE7EF547F70030214457F3FF6
:1013B600121ED390004FEFF090004AE0FBA3E0FA34
:1013C600A3E0F9120DC8FEEFD39E5057900047E0F8
:1013D600FBA3E0FAA3E0F990004FE0900054F07F01
:1013E6003F121BE890004FE0FF90004AE0FBA3E0AD
:1013F600FAA3E0F9EF120E0E7B017A00794D900008
:10140600547402F07F3F121BE87F3A121F3A900095
:101416004DE0900091F090004EE030E7037F01220E
:101426007F002290004FE0FF90004AE0FBA3E0FA25
:10143600A3E0F9EF120E0E7F3A121F3A7F00227FC9
:0114460000A5
:011447002282
:101E0F007F34121EE7EFC39480EF400B2401FFE4F1
:101E1F0034FFC313EF8001C31324B6FCECFF3395DB
:021E2F00E0FED3
:011E3100228E
:0E152100900038EBF0A3EAF0A3E9F0A3EDF0A0
:10152F00783D7C007D017BFF7A1F790B7E007F0861
:10153F00120DA29000457408F0E4A3F043890175E1
:10154F008CD8758AF0C28D90003CE0FF900038E097
:10155F00FBA3E0FAA3E0F9EF120E0E7F09121EE7CC
:10156F00900038E0FBA3E0FAA3E0F9900002EF123D
:10157F000E2090003BE0FD121D9ED28C900046E0A5
:10158F00606490004A7401F0A37400F0A37445F0F6
:10159F007B017A00793D12136BEF600990003EE0FA
:1015AF0070037F0122308DD4900079E004F0700633
:1015BF00900078E004F0900046E014F0900078E09E
:1015CF00FEA3E0FF7B627D071215F8900038E0FB69
:1015DF00A3E0FAA3E0F9A3E0FD121D9E758CD87568
:0815EF008AF0C28D80967F0096
:0115F70022D1
:0B18CD0090007AEBF0A3EAF0A3E9F032
:1018D80078807C007D017BFF7A1F79137E007F086A
:1018E800120DA29000887403F090007DE0F9A3E047
:1018F800FAA3E090004AC9F0A3EAF0A3E9F0900047
:101908007AE0FBA3E0FAA3E0F912136BEF604190D1
:10191800007AE0FBA3E0FAA3E0F9900002120DE1DF
:10192800900080F0E4A3F07F09121EE7A3EFF09087
:10193800007AE0FBA3E0FAA3E0F9120DC8600E7B81
:10194800017A007980900088E0FD121D9E7F0122B7
:021958007F000E
:01195A00226A
:1000030000000000000000000000004F000000009E
:1000130000000708101010080700F0080404040883
:10002300F00008181F00000000000404FC04040092
:1000330000000E101010110E00001C3464C4840C58
:1000430000000C101010110E0000180404848870B6
:100053000000010204081F000000E0202424FC2407
:1000630020001F101111111000008884040408F0EF
:1000730000000708111111110800F0880404040896
:10008300F00018101010111C1000000000FC0000FC
:1000930000000E111010110E0000384484844438FF
:1000A30000000708101008070000008C444488F083
:1000B300000000031C07000000043CC44040E41C93
:1000C30004101F1111110E000004FC0404048870B5
:1000D30000030C101010101C00E018040404081096
:1000E30000101F10101008070004FC04040408F09B
:1000F30000101F11111710080004FC0404C4041895
:1001030000101F11111710080004FC0400C00000A8
:100113000000000003030000000000000C0C0000BE
:10012300000000000101111F00007088040408FC96
:1001330004101F1111110E000004FC040404887044
:10014300000000000000000000000C0C0000000094
:10015300000000000F00000000808080F880808095
:10016300000000000000000000008080808080808C
:1001730080000000000000000002024242424242AE
:100183007F4242424242020200010102040830C09F
:1001930000C0300804020101000806403003082AA9
:1001A3002A2AFF2A2A3E08080020203EC0000848C9
:1001B3004848FF48484808000004040404040404B1
:1001C300FF0404040404040400010102040830C011
:1001D30000C030080402010100020C886909098982
:1001E3006909091928C80A0C00202020202022218F
:1001F3007E60A020202020200002423300004744DC
:1002030054544F5464440700000102FC0201FF915F
:100213009191FD919593FD01000001061FE00020DF
:100223002424A4642424242000800000FF00000070
:100233009F92929292929F00000001061FE000207D
:100243002424A4642424242000800000FF00000050
:100253009F92929292929F00000101017D45454534
:10026300454545457D0101010000000060A02020B7
:10027300202221223C00000000404744447C00012E
:100283007949494F494979010000C241427C02E260
:10029300222222FE22222AE70000003F2424243FB8
:1002A300A464243F2424242000020CF1012132AA57
:1002B300A4A4A4AA3201010100007F40484949498E
:1002C3004F49494948407F000000FF0212121212B1
:1002D300F21252321202FF000002040B32C2221346
:1002E3000804001F0000FF00000000FC022212E2CD
:1002F300020E00F00201FE000000000007000000F3
:10030300FF00000004020100001020C000000201F1
:10031300FE0000000000807000040C35C60C0000D5
:100323007F444444447F00000044E64448480202BA
:10033300FE42424242FE02020000000000000000B2
:1003430000000000000000000000000000000000AA
:10035300000000000000000000000000000000009A
:10036300000000000000000000000000000000008A
:10037300000000000000000000000000000000007A
:1005C3000000000000000000000004040404040410
:1005D30004040707040404040404040C1C0C0400AE
:1005E30000000000000002020202020202020202F4
:1005F3000202FFFF020302020202020202060E06C9
:1006030002000000000000000000000000000103E1
:100613000E7CF00000C0300C070100000000000059
:100623000000000000000202040C08102060C080DB
:1006330000000000000000000080C06070381C1C37
:10064300080808000000000020180E060000000241
:1006530002020202023F3F020202020203070200F9
:1006630000000000008060381C0000031CE0202113
:100673002121212121FFFF2121212121FFFF2020F1
:100683006020000000000202030F3CC001011111B1
:100693001111111111FFFF1111111111113131112B
:1006A3000301000000000000FCFC0000000000004B
:1006B3000000000000FEFE0000000000000000003B
:1006C3000000000000000000000000000000000027
:1006D3000000003F1F0000000000000000000000B9
:1006E3000000000000000010101010101010101077
:1006F300101017FFFE1110101010101010102060B2
:100703006020000000000000000000000000000165
:10071300073EF8C000C0701C060301000000000083
:100723000000000000000202040408183060C080CA
:1007330000000000000000000080C0E07038381C9A
:100743001808000000000000000000180E07030056
:1007530000201C0F0700000000030E3C18000000DF
:1007630000000000000000063E3C202121A1A12141
:10077300212121A121212121E1A323212024287842
:1007830070200000000004040404040404040404AE
:100793000404043F1F2424448484040404040C1C20
:1007A3000C0400000000000000000000000000082E
:1007B300080C0EFCFC00000000000000000000001C
:1007C300000000000002030202020202020202030E
:1007D3000702000000033F1C10000000000000009F
:1007E3000000000000000020100C060301073EF08B
:1007F3008000010638E0C0405F4F484040445870D5
:10080300E04000000000000000030EB8E0F03C1FD1
:10081300070100000001077CF000F80F0100000051
:1008230000000000001020408000000000020204CD
:10083300C808102060C0000000000000C070381C11
:100843000C08000000000000100C0F07000000005F
:10085300070304040808181003010101010101073B
:10086300020000000000040404040F0F0000000055
:10087300FFFF000000000000FFFF0000000000FF7A
:1008830000000000000000000000FFFF0000000067
:10089300FCFC183020204000FFFF000008080CFC7F
:1008A3000000000000207060C08000008040203005
:1008B3001010181818181818D89818181818181885
:1008C30018100000000000000000030F3C1000009F
:1008D3000001073D19110101010101010101030398
:1008E300010000000004081060C0FFFF000010209A
:1008F30041861E0C0800007F3F00080426C38100C8
:1009030000000000000000000000F3F00000478733
:1009130000004826273370F0800000000202C1C0A7
:10092300000000000000001030F080000000FCFC1C
:10093300040404048484040404049C7C080080E00C
:10094300F0000000000000000000000000030301AD
:100953000000000000000000000000000000000094
:1009630000000000000000000000000000FFFFE0A6
:100973000000000000000000000000000000000074
:100983000000000000000000000000000183F303EA
:100993000000000000000000000000000000000054
:1009A30000000000000000000000000080C0C080C4
:1009B3000000000000000000000000000000000034
:0509C30000000000002F
:081F4F007F207EFFDEFEDFFAB9
:011F57002267
:101E3200121E44121E44121E44121E44121E44124A
:021E42001E443C
:101E44007FFF7EFF0000000000000000DEF6DFF2EE
:011E5400226B
:101C6A00C2B5121F4FD2B5121F4F7FA3121EAF7FEC
:101C7A00A0121EAF7FAF121EAF7F2F121EAF7F239F
:101C8A00121EAF7F81121EAF7F28121EAF7FC012B5
:0F1C9A001EAF7FAF121EAF7F40121EAF000022A1
:0A1EA5009000B1E0C4540F2410FFB8
:0E1EAF00C2B600C2B400121DC70000D2B62297
:101D19009000AFE075F080A42FF582E435F0F583EB
:0F1D2900E58224C7F582E5833405F583E493FF53
:0E1D3800C2B600D2B400121DC70000D2B622FF
:101DC700C2B37D087C00C2B30000EF54806004D228
:101DD700B28002C2B2D2B3EF25E0FFED1D70011C45
:041DE700ED4C70E26D
:011DEB0022D5
:0B1B36009000A3EFF0A3EDF0A3EBF094
:101B41007FAF121EAF9000A4E024B0FF121EAF9031
:101B510000A5121EA89000A5E0540FFF121EAFE4CD
:101B61009000A6F09000A6E0FFC3940850259000D5
:101B7100A3E075F008A42FF582E435F0F583E58242
:101B81002403F582E5833400121D339000A6E0049E
:031B9100F080D110
:011B9400222E
:0B181F009000A7EFF0A3EDF0A3EBF0AA
:10182A007FAF121EAF9000A8E024B0FF121EAF9047
:10183A0000A9121EA89000A9E0540FFF121EAFE4DF
:10184A009000AAF09000AAE0FFC3941050259000DF
:10185A00A7E075F020A42FF582E435F0F583E58240
:10186A002413F582E5833400121D339000AAE004A4
:10187A00F080D19000A8E024AFFF121EAF9000A91B
:10188A00121EA89000A9E0540FFF121EAF9000AAE2
:10189A007410F09000AAE0FFC3942050259000A78E
:1018AA00E075F020A42FF582E435F0F583E5822473
:1018BA0013F582E5833400121D339000AAE004F088
:0218CA0080D1CB
:0118CC0022F9
:0816B500A3E0FDA3E0FB7F149C
:0B16BD0090004DEFF0A3EDF0A3EBF068
:1016C8007FAF121EAF90004EE024B0FF121EAF9005
:1016D800004F121EA890004FE0540FFF121EAF904B
:1016E80000507408F0900050E0FFD394004025901B
:1016F800004DE075F010A42FF582E435F0F583E590
:10170800822413F582E5833400121D33900050E0E3
:1017180014F080D190004EE024AFFF121EAF90006D
:101728004F121EA890004FE0540FFF121EAF9000FA
:10173800507410F0900050E0FFD3940840259000BA
:101748004DE075F010A42FF582E435F0F583E582BD
:101758002413F582E5833400121D33900050E01401
:03176800F080D13D
:01176B00225B
:04176C007B707F0F00
:0B1770009000ABEFF0A3EDF0A3EBF056
:10177B007FAF121EAF9000ACE024B0FF121EAF90F3
:10178B0000AD121EA89000ADE0540FFF121EAF90DB
:10179B0000AE7410F09000AEE0FFD39400402590A3
:1017AB0000ABE075F020A42FF582E435F0F583E56E
:1017BB0082247BF582E5833401121D339000AEE069
:1017CB0014F080D19000ACE024AFFF121EAF90005C
:1017DB00AD121EA89000ADE0540FFF121EAF90008B
:1017EB00AE7420F09000AEE0FFD394104025900033
:1017FB00ABE075F020A42FF582E435F0F583E5829C
:10180B00247BF582E5833401121D339000AEE01486
:03181B00F080D189
:01181E0022A7
:0B1448009000AFEFF0A3EDF0A3EBF07D
:101453007FAF121EAF9000B0E024B0FF121EAF1298
:101463001EA59000B1E0540FFF121EAF9000B2749E
:1014730020F09000B2E0FFD39400400B121D1990AE
:1014830000B2E014F080EB9000B0E024AFFF121E36
:10149300AF121EA59000B1E0540FFF121EAF9000D3
:1014A300B27440F09000B2E0FFD39420400B121DC1
:1014B300199000B2E014F080EB9000B0E024AEFF8E
:1014C300121EAF121EA59000B1E0540FFF121EAF03
:1014D3009000B27460F09000B2E0FFD39440400BF0
:1014E300121D199000B2E014F080EB9000B0E024DC
:1014F300ADFF121EAF121EA59000B1E0540FFF12F4
:101503001EAF9000B27480F09000B2E0FFD39460FD
:0D151300400B121D199000B2E014F080EBA7
:0115200022A8
:0B1B95009000B3EFF0A3EDF0A3EBF025
:101BA0007FAF121EAF9000B4E024B0FF121EAF90C2
:101BB00000B5121EA89000B5E0540FFF121EAFE44E
:101BC000FF0FEFB410FB9000B4E024B1FF121EAF82
:101BD0009000B5121EA89000B5E0540FFF121EAF82
:071BE0007F100FEFB420FBA2
:011BE70022DB
:081ACE00900038EFF0A3EDF0E9
:101AD60090003C74B0F090003CE0FFC394B9504BCA
:101AE600121EAF7F10121EAFE4FF121EAFE490006D
:101AF6003AF0A3F0900038E0FF121D38900039E06C
:101B0600FF121D3890003BE004F0700690003AE0AA
:101B160004F0C390003BE0944090003AE064809467
:101B26008040D190003CE004F080AB7FAF021EAF56
:0B1A5B0090009DEBF0A3EAF0A3E9F07F
:101A66007FAF121EAF9000A274B0F09000A2E0FF0C
:101A7600C394B85052121EAF7F10121EAFE4FF126D
:101A86001EAFE49000A0F0A3F090009DE0FBA3E45D
:101A960075F001120EDFA9F0FA120DC8FF121D38FB
:101AA6009000A1E004F070069000A0E004F0C3905E
:101AB60000A1E094809000A0E06480948040CA90E9
:071AC60000A2E004F080A47F
:011ACD0022F6
:101042007D0712176C7B607D077F0F1217707B5034
:101052007D077F0F1217707B407D077F0F1217707D
:101062007B307D077F0F1217707B207D077F0F1269
:1010720017707B107D077F0F121770E4FB7D077FCF
:101082000F1217707B707D057F0F1217707B607DCA
:10109200057F0F1217707B507D057F0F1217707B33
:1010A200407D057F0F1217707B307D057F0F121771
:1010B200707B207D057F0F1217707B107D057F0FDF
:1010C200121770E4FB7D057F0F1217707D03121754
:1010D2006C7B607D037F0F1217707B507D037F0F47
:1010E2001217707B407D037F0F1217707B307D03D8
:1010F2007F0F1217707B207D037F0F1217707B10FA
:101102007D037F0F121770E4FB7D037F0F121770B0
:101112007B707D017F0F1217707B607D017F0F1244
:1011220017707B507D017F0F1217707B407D017F0E
:101132000F1217707B307D017F0F1217707B207D9D
:10114200017F0F1217707B107D017F0F121770E461
:08115200FB7D017F0F02177005
:10126C007B607D07E4FF121448121E3E7B407D0715
:10127C007F01121448121E3E7B207D077F02121440
:10128C0048121E3EE4FB7D077F03121448121E3EDB
:10129C007B607D037F04121448121E3E7B407D034D
:1012AC007F05121448121E3E7B207D037F0612140C
:1012BC0048121E3EE4FB7D037F07121448121E32B7
:1012CC00121042121E327B607D06E4FF1217707BF7
:1012DC00507D067F011217707B407D067F0212172E
:1012EC00707B307D067F031217707B207D067F0498
:1012FC001217707B107D067F051217707B707D03B3
:10130C007F061217707B607D037F071217707B506E
:10131C007D037F081217707B407D037F09121770C5
:10132C007B387D037F101216BD7B087D037F111265
:10133C0016BD7B017D037F121216BD7B507D017F94
:10134C000A1217707B407D017F0B1217707B307D6A
:0F135C00017F0C1217707B207D017F0D0217702F
:1015F800900049EDF0A3EBF0900047EEF0A3EFF078
:10160800C3EE6480948040051216B580229000498C
:10161800E0FDA3E0FB7F151216BD900047E0FEA396
:10162800E0FFC3E49FFFE49E900047F0A3EFF09033
:101638000047E0FEA3E0FF7C007D64120EA9AB0723
:10164800EB75F064A4FFC3E09FFF900047E095F0BE
:10165800FE7C007D0A120EA990004BEFF090004727
:10166800A3E0FEEB75F064A4FDC3EE9DFEEF75F0FC
:101678000AA4FFC3EE9F90004CF0AF03900049E02E
:10168800FDA3E024F8FB1216BD90004BE0FF90008C
:1016980049E0FDA3E024F0FB1216BD90004CE0FFEA
:0D16A800900049E0FDA3E024E8FB0216BD20
:100EF500900096EDF0A3EBF0900094EEF0A3EFF0E8
:100F0500C3EE6480948040051216B5802290009649
:100F1500E0FDA3E0FB7F151216BD900094E0FEA353
:100F2500E0FFC3E49FFFE49E900094F0A3EFF090F0
:100F35000094E0FEA3E0FF7C277D10120EA990002F
:100F450098EFF07E007C277D10120E42AA06AB07B3
:100F5500C3900095E09BFF900094E09AFE7C037D92
:100F6500E8120E54A907900099E9F0C3900095E0A6
:100F75009BFB900094E09AFA7E007C037DE8120EBC
:100F850042C3EB9FFBEA9EFA7C007D64AF03FE1231
:100F95000E5490009AEFF0E075F064A4FFC3EB9F48
:100FA500FFEA95F0FE7C007D0A120E54A3EFF0FED9
:100FB500900094A3E0FD900098E0FBC454F0FCC3BE
:100FC500ED9CFDA3E075F0E8A4FCC3ED9CFDA3E05A
:100FD50075F064A4FCC3ED9CFDEE75F00AA4FEC398
:100FE500ED9E90009CF0AF03900096E0FDA3E024F9
:100FF500F8FB1216BD900099E0FF900096E0FDA366
:10100500E024F0FB1216BD90009AE0FF900096E0F8
:10101500FDA3E024E8FB1216BD90009BE0FF9000C5
:1010250096E0FDA3E024E0FB1216BD90009CE0FFD6
:0D103500900096E0FDA3E024D8FB0216BD5C
:101D4600000000000000000000000000000000008D
:101D5600000000000000000000000000000000007D
:0D1D66000000000000000000000000000070
:101CD500480089C0C0C0C0C0C0C0C042009200005A
:1009C800E4900000F0A3F0A3F0A3F0A3F0A3F0A339
:1009D800F078077C007D017BFF7A1D7946FE7F0950
:1009E800120DA278127C007D017BFF7A1D794F7E63
:1009F800007F0D120DA2781F7C007D017BFF7A1D00
:100A0800795C7E007F0D120DA2782C7C007D017B25
:100A1800FF7A1D79697E007F0A120DA2E4900036E4
:100A2800F0A3F0D2B7C2C0C2C3121F2BC295121CCA
:100A38006A121E44121E44121E44E4FDFF121ACE0E
:100A4800121E44121E44121E44121E44121E441248
:100A58001E44D295121F45121E5512115A7B017A57
:100A680000798990004C7408F07F3E121C2AD2C08D
:100A7800D2B7D2C0D2C390004A7401F0A37400F078
:100A8800A37411F07B017A00791F12136BEF60E6F3
:100A9800900020E0F46026A3E0640670207F09122D
:100AA8001EE7900020E0B2C07B017A00791F900019
:100AB8003C7401F07D0B121521B2C080B99000067C
:100AC800E0FF900024E06F703190001FE0FF60129B
:100AD800900022E02405F582E43400F583E0640107
:100AE8006094EF70157F09121EE774052FF582E4F4
:100AF8003400F583E06003020A7E90001FE0600383
:100B0800020C54900022E0F46003020C549000910F
:100B1800E0FF900000E0242CF582E43400F583EF38
:100B2800F0900000E004F0E0C394015003020C9B35
:100B380090001374FFF07F09121EE7900015EFF084
:100B4800900024E0900017F0E4900002F0A3F090E9
:100B58000001F0900000E0FFA3E0FEC39F50217465
:100B68002C2EF582E43400F583E0FD900003E02D9F
:100B7800F0900002E03400F0900001E004F080D32F
:100B8800EFFD7C00900002E0FEA3E0FF120EA990AA
:100B98000016EFF0900025E0900018F0900026E095
:100BA800900019F0900027E090001AF0900028E0DB
:100BB80090001BF0900029E090001CF0900036E0B7
:100BC800FEA3E0FF7C017D00120EA9AE04AF057BF9
:100BD800307D071215F8900024E0FF7E007B307D01
:100BE800051215F87F1E7E00121E8CB2C37B017A97
:100BF80000791290003C7406F07D0B121521B2C3E7
:100C0800900037E004F07006900036E004F07F09A9
:100C1800121EE774052FF582E43400F5837401F0A1
:100C2800E4900000F0F0900000E0FFC39406501537
:100C380074122FF582E43400F5837480F09000007C
:100C4800E004F080E1E4900000F08047900021E0AB
:100C58006404703FB2C07B017A00791F90003C7435
:100C680006F07D0B121521B2C0900036E0FEA3E01D
:100C7800FF7C017D00120EA9AE04AF057B307D0517
:100C88001215F8900022E02405F582E43400F5837B
:100C98007401F0900024E0FF900006E06F700302FA
:100CA8000A7EEFF0E4900010F0900010E0FFC3948B
:100CB800094003020A7E74072FF582E43400F583A5
:0A0CC800E4F0900010E004F080DF7B
:0F1F2B00759850438920758DFD758BFDD28E22E0
:081F58008F993099FDC2992216
:101CE6009000B6EBF0A3EAF0A3E9F09000B6E0FBB3
:101CF600A3E0FAA3E0F9120DC860179000B6A3E4BA
:101D060075F001120EDFA9F0FA120DC8FF121F5866
:031D160080D9224F
:0419E700AB07AA069A
:1019EB00D3EB9400EA6480948040047F2B8009C37E
:1019FB00E49BFBE49AFA7F2D121F587C007D64AFA9
:101A0B0003AE02120EA99000B9EFF0E075F064A4DA
:101A1B00FFC3EB9FFFEA95F0FE7C007D0A120EA937
:101A2B00AE07AD03AF05E0FD75F064A4FCC3EF9CFE
:101A3B00FFEE75F00AA4FCC3EF9CFCED2430FF1203
:101A4B001F58EE2430FF121F58EC2430FF021F5892
:071F60003098FDAF99C29813
:011F67002257
:0F1F1B007F017E000FBF00010EBE06F8BF18F554
:011F2A002294
:041E8C00AD07AC06EC
:101E9000E4FBFAC3EB9DEA9C500A121F1B0BBB002C
:041EA000010A80EFC4
:011EA400221B
:101967000209C8E493A3F8E493A34003F68001F2C5
:1019770008DFF48029E493A3F85407240CC8C33381
:10198700C4540F4420C8834004F456800146F6DF50
:10199700E4800B0102040810204080901CA9E47E1B
:1019A700019360BCA3FF543F30E509541FFEE49345
:1019B700A360010ECF54C025E060A840B8E493A30C
:1019C700FAE493A3F8E493A3C8C582C8CAC583CA37
:1019D700F0A3C8C582C8CAC583CADFE9DEE780BEEF
:011CE50000FE
:100CD200E709F608DFFA8046E709F208DFFA803E04
:100CE20088828C83E709F0A3DFFA8032E309F608F1
:100CF200DFFA8078E309F208DFFA807088828C8359
:100D0200E309F0A3DFFA806489828A83E0A3F6080C
:100D1200DFFA805889828A83E0A3F208DFFA804CE6
:100D220080D280FA80C680D4806980F280338010BD
:100D320080A680EA809A80A880DA80E280CA803326
:100D420089828A83ECFAE493A3C8C582C8CCC5839E
:100D5200CCF0A3C8C582C8CCC583CCDFE9DEE7806E
:100D62000D89828A83E493A3F608DFF9ECFAA9F0ED
:100D7200EDFB2289828A83ECFAE0A3C8C582C8CC43
:100D8200C583CCF0A3C8C582C8CCC583CCDFEADE5C
:100D9200E880DB89828A83E493A3F208DFF980CCBE
:100DA20088F0EF60010E4E60C388F0ED2402B404B7
:100DB2000050B9F582EB2402B4040050AF2323455E
:060DC2008223900D227354
:100DC800BB010689828A83E0225002E722BBFE0229
:090DD800E32289828A83E493225C
:100DE100BB010CE58229F582E5833AF583E02250C7
:100DF10006E92582F8E622BBFE06E92582F8E22211
:0D0E0100E58229F582E5833AF583E493222A
:100E0E00BB010689828A83F0225002F722BBFE01C3
:020E1E00F322BD
:100E2000F8BB010DE58229F582E5833AF583E8F008
:100E3000225006E92582C8F622BBFE05E92582C8B4
:020E4000F2229C
:100E4200EF8DF0A4A8F0CF8CF0A428CE8DF0A42EC4
:020E5200FE227E
:100E5400BC000BBE0029EF8DF084FFADF022E4CC82
:100E6400F875F008EF2FFFEE33FEEC33FCEE9DEC4B
:100E7400984005FCEE9DFE0FD5F0E9E4CEFD22ED91
:100E8400F8F5F0EE8420D21CFEADF075F008EF2FDB
:100E9400FFED33FD4007985006D5F0F222C398FDCC
:050EA4000FD5F0EA2269
:100EA900C2D5EC30E709B2D5E4C39DFDE49CFCEE64
:100EB90030E715B2D5E4C39FFFE49EFE120E54C37A
:100EC900E49DFDE49CFC8003120E5430D507C3E475
:060ED9009FFFE49EFE22D3
:100EDF00A3F8E0C5F025F0F0E582158270021583C6
:060EEF00E0C838F0E82223
:00000001FF
